{
  "_format": "hh-sol-artifact-1",
  "contractName": "CadenceArchUtils",
  "sourceName": "@onflow/flow-sol-utils/src/cadence-arch/CadenceArchUtils.sol",
  "abi": [
    {
      "inputs": [],
      "name": "cadenceArch",
      "outputs": [
        {
          "internalType": "address",
          "name": "",
          "type": "address"
        }
      ],
      "stateMutability": "view",
      "type": "function"
    }
  ],
  "bytecode": "0x60eb610051600b82828239805160001a6073146044577f4e487b7100000000000000000000000000000000000000000000000000000000600052600060045260246000fd5b30600052607381538281f3fe730000000000000000000000000000000000000000301460806040526004361060335760003560e01c8063d0d250bd146038575b600080fd5b603e6052565b60405160499190609c565b60405180910390f35b6801000000000000000181565b600073ffffffffffffffffffffffffffffffffffffffff82169050919050565b6000608882605f565b9050919050565b609681607f565b82525050565b600060208201905060af6000830184608f565b9291505056fea2646970667358221220e83412e6ce762e9ee4f7752c4573c34655d076092d06dff051963e7f868919e764736f6c634300081c0033",
  "linkReferences": {},
  "deployedLinkReferences": {}
}