{"contracts/PackOpening.sol":{"PackOpening":{"abi":[{"inputs":[],"stateMutability":"nonpayable","type":"constructor"},{"inputs":[],"name":"EmptyItemArray","type":"error"},{"inputs":[],"name":"InsufficientPayment","type":"error"},{"inputs":[],"name":"NoNFTsAvailable","type":"error"},{"inputs":[{"internalType":"address","name":"owner","type":"address"}],"name":"OwnableInvalidOwner","type":"error"},{"inputs":[{"internalType":"address","name":"account","type":"address"}],"name":"OwnableUnauthorizedAccount","type":"error"},{"inputs":[],"name":"TransferFailed","type":"error"},{"anonymous":false,"inputs":[{"indexed":false,"internalType":"uint256","name":"tokenId","type":"uint256"}],"name":"NFTWithdrawn","type":"event"},{"anonymous":false,"inputs":[{"indexed":false,"internalType":"uint256[]","name":"tokenIds","type":"uint256[]"}],"name":"NFTsAdded","type":"event"},{"anonymous":false,"inputs":[{"indexed":true,"internalType":"address","name":"previousOwner","type":"address"},{"indexed":true,"internalType":"address","name":"newOwner","type":"address"}],"name":"OwnershipTransferred","type":"event"},{"anonymous":false,"inputs":[{"indexed":true,"internalType":"uint256","name":"round","type":"uint256"},{"indexed":true,"internalType":"address","name":"player","type":"address"},{"indexed":false,"internalType":"uint256","name":"tokenId","type":"uint256"}],"name":"PackOpened","type":"event"},{"anonymous":false,"inputs":[{"indexed":false,"internalType":"string","name":"item","type":"string"},{"indexed":false,"internalType":"uint256","name":"index","type":"uint256"}],"name":"RandomItemSelected","type":"event"},{"anonymous":false,"inputs":[{"indexed":false,"internalType":"uint64","name":"randomNumber","type":"uint64"},{"indexed":false,"internalType":"uint64","name":"min","type":"uint64"},{"indexed":false,"internalType":"uint64","name":"max","type":"uint64"}],"name":"RandomNumberGenerated","type":"event"},{"anonymous":false,"inputs":[{"indexed":true,"internalType":"uint256","name":"requestId","type":"uint256"},{"indexed":false,"internalType":"uint64","name":"randomResult","type":"uint64"}],"name":"RandomnessFulfilled","type":"event"},{"anonymous":false,"inputs":[{"indexed":true,"internalType":"uint256","name":"requestId","type":"uint256"},{"indexed":false,"internalType":"uint64","name":"flowHeight","type":"uint64"},{"indexed":false,"internalType":"uint256","name":"evmHeight","type":"uint256"}],"name":"RandomnessRequested","type":"event"},{"anonymous":false,"inputs":[{"indexed":true,"internalType":"uint256","name":"requestId","type":"uint256"},{"indexed":false,"internalType":"uint64","name":"flowHeight","type":"uint64"},{"indexed":false,"internalType":"uint256","name":"evmHeight","type":"uint256"},{"indexed":false,"internalType":"bytes32","name":"randomSource","type":"bytes32"}],"name":"RandomnessSourced","type":"event"},{"inputs":[],"name":"MAX_PACK_SIZE","outputs":[{"internalType":"uint256","name":"","type":"uint256"}],"stateMutability":"view","type":"function"},{"inputs":[],"name":"PACK_COST","outputs":[{"internalType":"uint256","name":"","type":"uint256"}],"stateMutability":"view","type":"function"},{"inputs":[{"internalType":"uint256[]","name":"tokenIds","type":"uint256[]"}],"name":"addNFTs","outputs":[],"stateMutability":"nonpayable","type":"function"},{"inputs":[{"internalType":"uint256","name":"","type":"uint256"}],"name":"allPackOpenings","outputs":[{"internalType":"uint256","name":"round","type":"uint256"},{"internalType":"address","name":"player","type":"address"},{"internalType":"uint256","name":"tokenId","type":"uint256"},{"internalType":"uint256","name":"timestamp","type":"uint256"}],"stateMutability":"view","type":"function"},{"inputs":[{"internalType":"uint256","name":"","type":"uint256"}],"name":"availableNFTs","outputs":[{"internalType":"uint256","name":"","type":"uint256"}],"stateMutability":"view","type":"function"},{"inputs":[{"internalType":"uint256","name":"requestId","type":"uint256"}],"name":"canFulfillRequest","outputs":[{"internalType":"bool","name":"","type":"bool"}],"stateMutability":"view","type":"function"},{"inputs":[],"name":"currentRound","outputs":[{"internalType":"uint256","name":"","type":"uint256"}],"stateMutability":"view","type":"function"},{"inputs":[],"name":"getAllPackOpenings","outputs":[{"components":[{"internalType":"uint256","name":"round","type":"uint256"},{"internalType":"address","name":"player","type":"address"},{"internalType":"uint256","name":"tokenId","type":"uint256"},{"internalType":"uint256","name":"timestamp","type":"uint256"}],"internalType":"struct PackOpening.PackOpeningRecord[]","name":"","type":"tuple[]"}],"stateMutability":"view","type":"function"},{"inputs":[],"name":"getAvailableNFTCount","outputs":[{"internalType":"uint256","name":"","type":"uint256"}],"stateMutability":"view","type":"function"},{"inputs":[],"name":"getAvailableNFTs","outputs":[{"internalType":"uint256[]","name":"","type":"uint256[]"}],"stateMutability":"view","type":"function"},{"inputs":[],"name":"getContractBalance","outputs":[{"internalType":"uint256","name":"","type":"uint256"}],"stateMutability":"view","type":"function"},{"inputs":[{"internalType":"uint256","name":"round","type":"uint256"}],"name":"getPackOpeningRecord","outputs":[{"components":[{"internalType":"uint256","name":"round","type":"uint256"},{"internalType":"address","name":"player","type":"address"},{"internalType":"uint256","name":"tokenId","type":"uint256"},{"internalType":"uint256","name":"timestamp","type":"uint256"}],"internalType":"struct PackOpening.PackOpeningRecord","name":"","type":"tuple"}],"stateMutability":"view","type":"function"},{"inputs":[{"internalType":"address","name":"player","type":"address"}],"name":"getPlayerPackOpenings","outputs":[{"components":[{"internalType":"uint256","name":"round","type":"uint256"},{"internalType":"address","name":"player","type":"address"},{"internalType":"uint256","name":"tokenId","type":"uint256"},{"internalType":"uint256","name":"timestamp","type":"uint256"}],"internalType":"struct PackOpening.PackOpeningRecord[]","name":"","type":"tuple[]"}],"stateMutability":"view","type":"function"},{"inputs":[{"internalType":"uint64","name":"min","type":"uint64"},{"internalType":"uint64","name":"max","type":"uint64"}],"name":"getRandomNumber","outputs":[{"internalType":"uint64","name":"","type":"uint64"}],"stateMutability":"view","type":"function"},{"inputs":[],"name":"nftContract","outputs":[{"internalType":"contract IERC721","name":"","type":"address"}],"stateMutability":"view","type":"function"},{"inputs":[{"internalType":"address","name":"","type":"address"},{"internalType":"address","name":"","type":"address"},{"internalType":"uint256","name":"","type":"uint256"},{"internalType":"bytes","name":"","type":"bytes"}],"name":"onERC721Received","outputs":[{"internalType":"bytes4","name":"","type":"bytes4"}],"stateMutability":"nonpayable","type":"function"},{"inputs":[],"name":"openPack","outputs":[{"internalType":"uint256","name":"","type":"uint256"}],"stateMutability":"payable","type":"function"},{"inputs":[],"name":"owner","outputs":[{"internalType":"address","name":"","type":"address"}],"stateMutability":"view","type":"function"},{"inputs":[{"internalType":"uint256","name":"","type":"uint256"}],"name":"packOpeningRecords","outputs":[{"internalType":"uint256","name":"round","type":"uint256"},{"internalType":"address","name":"player","type":"address"},{"internalType":"uint256","name":"tokenId","type":"uint256"},{"internalType":"uint256","name":"timestamp","type":"uint256"}],"stateMutability":"view","type":"function"},{"inputs":[],"name":"renounceOwnership","outputs":[],"stateMutability":"nonpayable","type":"function"},{"inputs":[{"internalType":"string[]","name":"items","type":"string[]"}],"name":"selectRandomItem","outputs":[{"internalType":"string","name":"","type":"string"}],"stateMutability":"view","type":"function"},{"inputs":[{"internalType":"address","name":"newOwner","type":"address"}],"name":"transferOwnership","outputs":[],"stateMutability":"nonpayable","type":"function"},{"inputs":[],"name":"withdrawFunds","outputs":[],"stateMutability":"nonpayable","type":"function"},{"inputs":[{"internalType":"uint256","name":"tokenId","type":"uint256"}],"name":"withdrawNFT","outputs":[],"stateMutability":"nonpayable","type":"function"}],"evm":{"bytecode":{"linkReferences":{},"object":"608060405234801561001057600080fd5b5033600073ffffffffffffffffffffffffffffffffffffffff168173ffffffffffffffffffffffffffffffffffffffff16036100845760006040517f1e4fbdf700000000000000000000000000000000000000000000000000000000815260040161007b91906101fd565b60405180910390fd5b610093816100f660201b60201c565b507384c6a2e6765e88427c41bb38c82a78b570e24709600560006101000a81548173ffffffffffffffffffffffffffffffffffffffff021916908373ffffffffffffffffffffffffffffffffffffffff1602179055506001600381905550610218565b6000600260009054906101000a900473ffffffffffffffffffffffffffffffffffffffff16905081600260006101000a81548173ffffffffffffffffffffffffffffffffffffffff021916908373ffffffffffffffffffffffffffffffffffffffff1602179055508173ffffffffffffffffffffffffffffffffffffffff168173ffffffffffffffffffffffffffffffffffffffff167f8be0079c531659141344cd1fd0a4f28419497f9722a3daafe3b4186f6b6457e060405160405180910390a35050565b600073ffffffffffffffffffffffffffffffffffffffff82169050919050565b60006101e7826101bc565b9050919050565b6101f7816101dc565b82525050565b600060208201905061021260008301846101ee565b92915050565b61344c806102276000396000f3fe60806040526004361061014b5760003560e01c8063715018a6116100b6578063c461fcc71161006f578063c461fcc71461048f578063d56d229d146104ba578063d59fd63c146104e5578063df5a9fa814610522578063e9b2e0d71461055f578063f2fde38b1461059c5761014b565b8063715018a61461038c57806371b70c19146103a35780638a19c8bc146103e35780638da5cb5b1461040e578063ad8bb0a114610439578063bbb2340d146104645761014b565b80632dab28c0116101085780632dab28c01461027357806332702c95146102b05780633bd042c3146102db5780633c4ea38514610306578063698854cd146103245780636f9fb98a146103615761014b565b8063023245d71461015057806312fc224914610179578063150b7a02146101b65780631a4f0e57146101f357806324600fc31461021c57806326997d8a14610233575b600080fd5b34801561015c57600080fd5b5061017760048036038101906101729190612005565b6105c5565b005b34801561018557600080fd5b506101a0600480360381019061019b9190612097565b61075a565b6040516101ad9190612174565b60405180910390f35b3480156101c257600080fd5b506101dd60048036038101906101d89190612324565b610832565b6040516101ea91906123e2565b60405180910390f35b3480156101ff57600080fd5b5061021a60048036038101906102159190612453565b610846565b005b34801561022857600080fd5b506102316109da565b005b34801561023f57600080fd5b5061025a60048036038101906102559190612005565b610ada565b60405161026a94939291906124be565b60405180910390f35b34801561027f57600080fd5b5061029a60048036038101906102959190612005565b610b3a565b6040516102a79190612576565b60405180910390f35b3480156102bc57600080fd5b506102c5610bdb565b6040516102d29190612640565b60405180910390f35b3480156102e757600080fd5b506102f0610c33565b6040516102fd9190612662565b60405180910390f35b61030e610c3f565b60405161031b9190612662565b60405180910390f35b34801561033057600080fd5b5061034b6004803603810190610346919061267d565b610ff5565b60405161035891906127ae565b60405180910390f35b34801561036d57600080fd5b50610376611265565b6040516103839190612662565b60405180910390f35b34801561039857600080fd5b506103a161126d565b005b3480156103af57600080fd5b506103ca60048036038101906103c59190612005565b611281565b6040516103da94939291906124be565b60405180910390f35b3480156103ef57600080fd5b506103f86112d1565b6040516104059190612662565b60405180910390f35b34801561041a57600080fd5b506104236112d7565b60405161043091906127d0565b60405180910390f35b34801561044557600080fd5b5061044e611301565b60405161045b9190612662565b60405180910390f35b34801561047057600080fd5b5061047961130e565b6040516104869190612662565b60405180910390f35b34801561049b57600080fd5b506104a4611313565b6040516104b191906127ae565b60405180910390f35b3480156104c657600080fd5b506104cf6113e6565b6040516104dc919061284a565b60405180910390f35b3480156104f157600080fd5b5061050c60048036038101906105079190612005565b61140c565b6040516105199190612880565b60405180910390f35b34801561052e57600080fd5b50610549600480360381019061054491906128db565b6114ba565b604051610556919061292a565b60405180910390f35b34801561056b57600080fd5b5061058660048036038101906105819190612005565b6114ce565b6040516105939190612662565b60405180910390f35b3480156105a857600080fd5b506105c360048036038101906105be919061267d565b6114f2565b005b6105cd611578565b60005b60048054905081101561068e5781600482815481106105f2576105f1612945565b5b906000526020600020015403610681576004600160048054905061061691906129a3565b8154811061062757610626612945565b5b90600052602060002001546004828154811061064657610645612945565b5b90600052602060002001819055506004805480610666576106656129d7565b5b6001900381819060005260206000200160009055905561068e565b80806001019150506105d0565b50600560009054906101000a900473ffffffffffffffffffffffffffffffffffffffff1673ffffffffffffffffffffffffffffffffffffffff166342842e0e3033846040518463ffffffff1660e01b81526004016106ee93929190612a06565b600060405180830381600087803b15801561070857600080fd5b505af115801561071c573d6000803e3d6000fd5b505050507fb5c62009782d1ff6b07a6b18b8c952d3d01989cdb848a3e35ac78cbc1f0703048160405161074f9190612662565b60405180910390a150565b606060008383905003610799576040517fde24d3fa00000000000000000000000000000000000000000000000000000000815260040160405180910390fd5b60006107b560006001868690506107b091906129a3565b6114ba565b905083838267ffffffffffffffff168181106107d4576107d3612945565b5b90506020028101906107e69190612a4c565b8080601f016020809104026020016040519081016040528093929190818152602001838380828437600081840152601f19601f8201169050808301925050505050505091505092915050565b600063150b7a0260e01b9050949350505050565b61084e611578565b600f828290501115610895576040517f08c379a000000000000000000000000000000000000000000000000000000000815260040161088c90612b21565b60405180910390fd5b60005b8282905081101561099c57600560009054906101000a900473ffffffffffffffffffffffffffffffffffffffff1673ffffffffffffffffffffffffffffffffffffffff166342842e0e33308686868181106108f6576108f5612945565b5b905060200201356040518463ffffffff1660e01b815260040161091b93929190612a06565b600060405180830381600087803b15801561093557600080fd5b505af1158015610949573d6000803e3d6000fd5b50505050600483838381811061096257610961612945565b5b9050602002013590806001815401808255809150506001900390600052602060002001600090919091909150558080600101915050610898565b507f68d01a5373ed00b4c20dd90c21307bf1e95b75f03afc0392f5f1fb11619975b682826040516109ce929190612bab565b60405180910390a15050565b6109e2611578565b600047905060008111610a2a576040517f08c379a0000000000000000000000000000000000000000000000000000000008152600401610a2190612c1b565b60405180910390fd5b60003373ffffffffffffffffffffffffffffffffffffffff1682604051610a5090612c6c565b60006040518083038185875af1925050503d8060008114610a8d576040519150601f19603f3d011682016040523d82523d6000602084013e610a92565b606091505b5050905080610ad6576040517f08c379a0000000000000000000000000000000000000000000000000000000008152600401610acd90612ccd565b60405180910390fd5b5050565b60078181548110610aea57600080fd5b90600052602060002090600402016000915090508060000154908060010160009054906101000a900473ffffffffffffffffffffffffffffffffffffffff16908060020154908060030154905084565b610b42611f4f565b60066000838152602001908152602001600020604051806080016040529081600082015481526020016001820160009054906101000a900473ffffffffffffffffffffffffffffffffffffffff1673ffffffffffffffffffffffffffffffffffffffff1673ffffffffffffffffffffffffffffffffffffffff168152602001600282015481526020016003820154815250509050919050565b60606004805480602002602001604051908101604052809291908181526020018280548015610c2957602002820191906000526020600020905b815481526020019060010190808311610c15575b5050505050905090565b670de0b6b3a764000081565b6000670de0b6b3a76400003414610c8b576040517f08c379a0000000000000000000000000000000000000000000000000000000008152600401610c8290612d39565b60405180910390fd5b600060048054905011610cd3576040517f08c379a0000000000000000000000000000000000000000000000000000000008152600401610cca90612da5565b60405180910390fd5b6000610cf160006001600480549050610cec91906129a3565b6114ba565b9050600060048267ffffffffffffffff1681548110610d1357610d12612945565b5b9060005260206000200154905060046001600480549050610d3491906129a3565b81548110610d4557610d44612945565b5b906000526020600020015460048367ffffffffffffffff1681548110610d6e57610d6d612945565b5b90600052602060002001819055506004805480610d8e57610d8d6129d7565b5b60019003818190600052602060002001600090559055600560009054906101000a900473ffffffffffffffffffffffffffffffffffffffff1673ffffffffffffffffffffffffffffffffffffffff166342842e0e3033846040518463ffffffff1660e01b8152600401610e0393929190612a06565b600060405180830381600087803b158015610e1d57600080fd5b505af1158015610e31573d6000803e3d6000fd5b505050506000604051806080016040528060035481526020013373ffffffffffffffffffffffffffffffffffffffff168152602001838152602001428152509050806006600060035481526020019081526020016000206000820151816000015560208201518160010160006101000a81548173ffffffffffffffffffffffffffffffffffffffff021916908373ffffffffffffffffffffffffffffffffffffffff160217905550604082015181600201556060820151816003015590505060078190806001815401808255809150506001900390600052602060002090600402016000909190919091506000820151816000015560208201518160010160006101000a81548173ffffffffffffffffffffffffffffffffffffffff021916908373ffffffffffffffffffffffffffffffffffffffff160217905550604082015181600201556060820151816003015550503373ffffffffffffffffffffffffffffffffffffffff166003547f4da13121a2cfda173c852a7c5d53f66d528ee4f141991110b324a4f8adf2888984604051610fcc9190612662565b60405180910390a360036000815480929190610fe790612dc5565b919050555081935050505090565b60606000805b60078054905081101561109c578373ffffffffffffffffffffffffffffffffffffffff166007828154811061103357611032612945565b5b906000526020600020906004020160010160009054906101000a900473ffffffffffffffffffffffffffffffffffffffff1673ffffffffffffffffffffffffffffffffffffffff160361108f57818061108b90612dc5565b9250505b8080600101915050610ffb565b5060008167ffffffffffffffff8111156110b9576110b86121f9565b5b6040519080825280602002602001820160405280156110f257816020015b6110df611f4f565b8152602001906001900390816110d75790505b5090506000805b600780549050811015611259578573ffffffffffffffffffffffffffffffffffffffff166007828154811061113157611130612945565b5b906000526020600020906004020160010160009054906101000a900473ffffffffffffffffffffffffffffffffffffffff1673ffffffffffffffffffffffffffffffffffffffff160361124c576007818154811061119257611191612945565b5b9060005260206000209060040201604051806080016040529081600082015481526020016001820160009054906101000a900473ffffffffffffffffffffffffffffffffffffffff1673ffffffffffffffffffffffffffffffffffffffff1673ffffffffffffffffffffffffffffffffffffffff1681526020016002820154815260200160038201548152505083838151811061123257611231612945565b5b6020026020010181905250818061124890612dc5565b9250505b80806001019150506110f9565b50819350505050919050565b600047905090565b611275611578565b61127f60006115ff565b565b60066020528060005260406000206000915090508060000154908060010160009054906101000a900473ffffffffffffffffffffffffffffffffffffffff16908060020154908060030154905084565b60035481565b6000600260009054906101000a900473ffffffffffffffffffffffffffffffffffffffff16905090565b6000600480549050905090565b600f81565b60606007805480602002602001604051908101604052809291908181526020016000905b828210156113dd5783829060005260206000209060040201604051806080016040529081600082015481526020016001820160009054906101000a900473ffffffffffffffffffffffffffffffffffffffff1673ffffffffffffffffffffffffffffffffffffffff1673ffffffffffffffffffffffffffffffffffffffff1681526020016002820154815260200160038201548152505081526020019060010190611337565b50505050905090565b600560009054906101000a900473ffffffffffffffffffffffffffffffffffffffff1681565b60008060018361141c91906129a3565b905060008054905081106114345760009150506114b5565b600080828154811061144957611448612945565b5b9060005260206000209060030201905060006114636116c5565b90508160020160009054906101000a900460ff161580156114af57508067ffffffffffffffff168260000160009054906101000a900467ffffffffffffffff1667ffffffffffffffff16105b93505050505b919050565b60006114c68383611820565b905092915050565b600481815481106114de57600080fd5b906000526020600020016000915090505481565b6114fa611578565b600073ffffffffffffffffffffffffffffffffffffffff168173ffffffffffffffffffffffffffffffffffffffff160361156c5760006040517f1e4fbdf700000000000000000000000000000000000000000000000000000000815260040161156391906127d0565b60405180910390fd5b611575816115ff565b50565b6115806118a3565b73ffffffffffffffffffffffffffffffffffffffff1661159e6112d7565b73ffffffffffffffffffffffffffffffffffffffff16146115fd576115c16118a3565b6040517f118cdaa70000000000000000000000000000000000000000000000000000000081526004016115f491906127d0565b60405180910390fd5b565b6000600260009054906101000a900473ffffffffffffffffffffffffffffffffffffffff16905081600260006101000a81548173ffffffffffffffffffffffffffffffffffffffff021916908373ffffffffffffffffffffffffffffffffffffffff1602179055508173ffffffffffffffffffffffffffffffffffffffff168173ffffffffffffffffffffffffffffffffffffffff167f8be0079c531659141344cd1fd0a4f28419497f9722a3daafe3b4186f6b6457e060405160405180910390a35050565b60008060006801000000000000000173ffffffffffffffffffffffffffffffffffffffff166040516024016040516020818303038152906040527f53e87d66000000000000000000000000000000000000000000000000000000007bffffffffffffffffffffffffffffffffffffffffffffffffffffffff19166020820180517bffffffffffffffffffffffffffffffffffffffffffffffffffffffff838183161783525050505060405161177a9190612e49565b600060405180830381855afa9150503d80600081146117b5576040519150601f19603f3d011682016040523d82523d6000602084013e6117ba565b606091505b5091509150816117ff576040517f08c379a00000000000000000000000000000000000000000000000000000000081526004016117f690612ef8565b60405180910390fd5b6000818060200190518101906118159190612f2d565b905080935050505090565b60008061182b6118ab565b60405160200161183b9190612f7b565b604051602081830303815290604052905060004360405160200161185f9190612f7b565b6040516020818303038152906040529050611878611f8d565b61188d8383836119179092919063ffffffff16565b611898818787611a30565b935050505092915050565b600033905090565b6000806118b6611b6f565b67ffffffffffffffff16905060406118cc611b6f565b67ffffffffffffffff16901b8117905060806118e6611b6f565b67ffffffffffffffff16901b8117905060c0611900611b6f565b67ffffffffffffffff16901b811790508091505090565b60108251101561195c576040517f08c379a00000000000000000000000000000000000000000000000000000000081526004016119539061302e565b60405180910390fd5b6000828260405160200161197192919061304e565b60405160208183030381529060405290506000818051906020012090506119b8816040516020016119a2919061309d565b6040516020818303038152906040526000611cca565b856000019067ffffffffffffffff16908167ffffffffffffffff1681525050611a01816040516020016119eb919061309d565b6040516020818303038152906040526008611cca565b856020019067ffffffffffffffff16908167ffffffffffffffff1681525050611a2985611d82565b5050505050565b60008267ffffffffffffffff168267ffffffffffffffff1611611a88576040517f08c379a0000000000000000000000000000000000000000000000000000000008152600401611a7f90613104565b60405180910390fd5b60008383611a969190613124565b90506000611aa382611df1565b9050600060018267ffffffffffffffff166001901b611ac291906129a3565b9050600082610100611ad4919061318f565b67ffffffffffffffff1690506000806000611aee8b611e39565b90505b600115611b535784811691508667ffffffffffffffff168267ffffffffffffffff161115611b53578567ffffffffffffffff1681901c90508280611b3490612dc5565b935050838303611b4e57611b478b611e39565b9050600092505b611af1565b818a611b5f91906131c0565b9750505050505050509392505050565b60008060006801000000000000000173ffffffffffffffffffffffffffffffffffffffff166040516024016040516020818303038152906040527f705fab20000000000000000000000000000000000000000000000000000000007bffffffffffffffffffffffffffffffffffffffffffffffffffffffff19166020820180517bffffffffffffffffffffffffffffffffffffffffffffffffffffffff8381831617835250505050604051611c249190612e49565b600060405180830381855afa9150503d8060008114611c5f576040519150601f19603f3d011682016040523d82523d6000602084013e611c64565b606091505b509150915081611ca9576040517f08c379a0000000000000000000000000000000000000000000000000000000008152600401611ca090613294565b60405180910390fd5b600081806020019051810190611cbf9190612f2d565b905080935050505090565b6000600882611cd991906132b4565b83511015611d1c576040517f08c379a0000000000000000000000000000000000000000000000000000000008152600401611d1390613334565b60405180910390fd5b6000805b6008811015611d7757848185611d3691906132b4565b81518110611d4757611d46612945565b5b602001015160f81c60f81b60f81c60ff1660088367ffffffffffffffff16901b1791508080600101915050611d20565b508091505092915050565b6000816000015167ffffffffffffffff16141580611daf57506000816020015167ffffffffffffffff1614155b611dee576040517f08c379a0000000000000000000000000000000000000000000000000000000008152600401611de5906133c6565b60405180910390fd5b50565b600080600090505b60008367ffffffffffffffff161115611e305760018367ffffffffffffffff16901c92508080611e28906133e6565b915050611df9565b80915050919050565b600080611e4583611eab565b67ffffffffffffffff1690506040611e5c84611eab565b67ffffffffffffffff16901b811790506080611e7784611eab565b67ffffffffffffffff16901b8117905060c0611e9284611eab565b67ffffffffffffffff16901b8117905080915050919050565b6000611eb682611d82565b60008260000151905060008360200151905080846000019067ffffffffffffffff16908167ffffffffffffffff168152505060178267ffffffffffffffff16901b8218915060118267ffffffffffffffff16901c82189150601a8167ffffffffffffffff16901c81188218915081846020019067ffffffffffffffff16908167ffffffffffffffff168152505080820192505050919050565b604051806080016040528060008152602001600073ffffffffffffffffffffffffffffffffffffffff16815260200160008152602001600081525090565b6040518060400160405280600067ffffffffffffffff168152602001600067ffffffffffffffff1681525090565b6000604051905090565b600080fd5b600080fd5b6000819050919050565b611fe281611fcf565b8114611fed57600080fd5b50565b600081359050611fff81611fd9565b92915050565b60006020828403121561201b5761201a611fc5565b5b600061202984828501611ff0565b91505092915050565b600080fd5b600080fd5b600080fd5b60008083601f84011261205757612056612032565b5b8235905067ffffffffffffffff81111561207457612073612037565b5b6020830191508360208202830111156120905761208f61203c565b5b9250929050565b600080602083850312156120ae576120ad611fc5565b5b600083013567ffffffffffffffff8111156120cc576120cb611fca565b5b6120d885828601612041565b92509250509250929050565b600081519050919050565b600082825260208201905092915050565b60005b8381101561211e578082015181840152602081019050612103565b60008484015250505050565b6000601f19601f8301169050919050565b6000612146826120e4565b61215081856120ef565b9350612160818560208601612100565b6121698161212a565b840191505092915050565b6000602082019050818103600083015261218e818461213b565b905092915050565b600073ffffffffffffffffffffffffffffffffffffffff82169050919050565b60006121c182612196565b9050919050565b6121d1816121b6565b81146121dc57600080fd5b50565b6000813590506121ee816121c8565b92915050565b600080fd5b7f4e487b7100000000000000000000000000000000000000000000000000000000600052604160045260246000fd5b6122318261212a565b810181811067ffffffffffffffff821117156122505761224f6121f9565b5b80604052505050565b6000612263611fbb565b905061226f8282612228565b919050565b600067ffffffffffffffff82111561228f5761228e6121f9565b5b6122988261212a565b9050602081019050919050565b82818337600083830152505050565b60006122c76122c284612274565b612259565b9050828152602081018484840111156122e3576122e26121f4565b5b6122ee8482856122a5565b509392505050565b600082601f83011261230b5761230a612032565b5b813561231b8482602086016122b4565b91505092915050565b6000806000806080858703121561233e5761233d611fc5565b5b600061234c878288016121df565b945050602061235d878288016121df565b935050604061236e87828801611ff0565b925050606085013567ffffffffffffffff81111561238f5761238e611fca565b5b61239b878288016122f6565b91505092959194509250565b60007fffffffff0000000000000000000000000000000000000000000000000000000082169050919050565b6123dc816123a7565b82525050565b60006020820190506123f760008301846123d3565b92915050565b60008083601f84011261241357612412612032565b5b8235905067ffffffffffffffff8111156124305761242f612037565b5b60208301915083602082028301111561244c5761244b61203c565b5b9250929050565b6000806020838503121561246a57612469611fc5565b5b600083013567ffffffffffffffff81111561248857612487611fca565b5b612494858286016123fd565b92509250509250929050565b6124a981611fcf565b82525050565b6124b8816121b6565b82525050565b60006080820190506124d360008301876124a0565b6124e060208301866124af565b6124ed60408301856124a0565b6124fa60608301846124a0565b95945050505050565b61250c81611fcf565b82525050565b61251b816121b6565b82525050565b6080820160008201516125376000850182612503565b50602082015161254a6020850182612512565b50604082015161255d6040850182612503565b5060608201516125706060850182612503565b50505050565b600060808201905061258b6000830184612521565b92915050565b600081519050919050565b600082825260208201905092915050565b6000819050602082019050919050565b60006125c98383612503565b60208301905092915050565b6000602082019050919050565b60006125ed82612591565b6125f7818561259c565b9350612602836125ad565b8060005b8381101561263357815161261a88826125bd565b9750612625836125d5565b925050600181019050612606565b5085935050505092915050565b6000602082019050818103600083015261265a81846125e2565b905092915050565b600060208201905061267760008301846124a0565b92915050565b60006020828403121561269357612692611fc5565b5b60006126a1848285016121df565b91505092915050565b600081519050919050565b600082825260208201905092915050565b6000819050602082019050919050565b6080820160008201516126ec6000850182612503565b5060208201516126ff6020850182612512565b5060408201516127126040850182612503565b5060608201516127256060850182612503565b50505050565b600061273783836126d6565b60808301905092915050565b6000602082019050919050565b600061275b826126aa565b61276581856126b5565b9350612770836126c6565b8060005b838110156127a1578151612788888261272b565b975061279383612743565b925050600181019050612774565b5085935050505092915050565b600060208201905081810360008301526127c88184612750565b905092915050565b60006020820190506127e560008301846124af565b92915050565b6000819050919050565b600061281061280b61280684612196565b6127eb565b612196565b9050919050565b6000612822826127f5565b9050919050565b600061283482612817565b9050919050565b61284481612829565b82525050565b600060208201905061285f600083018461283b565b92915050565b60008115159050919050565b61287a81612865565b82525050565b60006020820190506128956000830184612871565b92915050565b600067ffffffffffffffff82169050919050565b6128b88161289b565b81146128c357600080fd5b50565b6000813590506128d5816128af565b92915050565b600080604083850312156128f2576128f1611fc5565b5b6000612900858286016128c6565b9250506020612911858286016128c6565b9150509250929050565b6129248161289b565b82525050565b600060208201905061293f600083018461291b565b92915050565b7f4e487b7100000000000000000000000000000000000000000000000000000000600052603260045260246000fd5b7f4e487b7100000000000000000000000000000000000000000000000000000000600052601160045260246000fd5b60006129ae82611fcf565b91506129b983611fcf565b92508282039050818111156129d1576129d0612974565b5b92915050565b7f4e487b7100000000000000000000000000000000000000000000000000000000600052603160045260246000fd5b6000606082019050612a1b60008301866124af565b612a2860208301856124af565b612a3560408301846124a0565b949350505050565b600080fd5b600080fd5b600080fd5b60008083356001602003843603038112612a6957612a68612a3d565b5b80840192508235915067ffffffffffffffff821115612a8b57612a8a612a42565b5b602083019250600182023603831315612aa757612aa6612a47565b5b509250929050565b7f43616e6e6f7420616464206d6f7265207468616e203135204e4654732061742060008201527f6f6e636500000000000000000000000000000000000000000000000000000000602082015250565b6000612b0b6024836120ef565b9150612b1682612aaf565b604082019050919050565b60006020820190508181036000830152612b3a81612afe565b9050919050565b600080fd5b82818337505050565b6000612b5b838561259c565b93507f07ffffffffffffffffffffffffffffffffffffffffffffffffffffffffffffff831115612b8e57612b8d612b41565b5b602083029250612b9f838584612b46565b82840190509392505050565b60006020820190508181036000830152612bc6818486612b4f565b90509392505050565b7f4e6f2066756e647320746f207769746864726177000000000000000000000000600082015250565b6000612c056014836120ef565b9150612c1082612bcf565b602082019050919050565b60006020820190508181036000830152612c3481612bf8565b9050919050565b600081905092915050565b50565b6000612c56600083612c3b565b9150612c6182612c46565b600082019050919050565b6000612c7782612c49565b9150819050919050565b7f4661696c656420746f2073656e6420464c4f5700000000000000000000000000600082015250565b6000612cb76013836120ef565b9150612cc282612c81565b602082019050919050565b60006020820190508181036000830152612ce681612caa565b9050919050565b7f4d7573742073656e642065786163746c79203120464c4f570000000000000000600082015250565b6000612d236018836120ef565b9150612d2e82612ced565b602082019050919050565b60006020820190508181036000830152612d5281612d16565b9050919050565b7f4e6f204e46547320617661696c61626c6520696e207061636b00000000000000600082015250565b6000612d8f6019836120ef565b9150612d9a82612d59565b602082019050919050565b60006020820190508181036000830152612dbe81612d82565b9050919050565b6000612dd082611fcf565b91507fffffffffffffffffffffffffffffffffffffffffffffffffffffffffffffffff8203612e0257612e01612974565b5b600182019050919050565b600081519050919050565b6000612e2382612e0d565b612e2d8185612c3b565b9350612e3d818560208601612100565b80840191505092915050565b6000612e558284612e18565b915081905092915050565b7f556e7375636365737366756c2063616c6c20746f20436164656e63652041726360008201527f68207072652d636f6d70696c65207768656e206665746368696e6720466c6f7760208201527f20626c6f636b2068656967687400000000000000000000000000000000000000604082015250565b6000612ee2604d836120ef565b9150612eed82612e60565b606082019050919050565b60006020820190508181036000830152612f1181612ed5565b9050919050565b600081519050612f27816128af565b92915050565b600060208284031215612f4357612f42611fc5565b5b6000612f5184828501612f18565b91505092915050565b6000819050919050565b612f75612f7082611fcf565b612f5a565b82525050565b6000612f878284612f64565b60208201915081905092915050565b7f4174206c65617374203136206279746573206f6620656e74726f70792073686f60008201527f756c642062652075736564207768656e20696e697469616c697a696e6720746860208201527f6520505247000000000000000000000000000000000000000000000000000000604082015250565b60006130186045836120ef565b915061302382612f96565b606082019050919050565b600060208201905081810360008301526130478161300b565b9050919050565b600061305a8285612e18565b91506130668284612e18565b91508190509392505050565b6000819050919050565b6000819050919050565b61309761309282613072565b61307c565b82525050565b60006130a98284613086565b60208201915081905092915050565b7f4d6178206d7573742062652067726561746572207468616e206d696e00000000600082015250565b60006130ee601c836120ef565b91506130f9826130b8565b602082019050919050565b6000602082019050818103600083015261311d816130e1565b9050919050565b600061312f8261289b565b915061313a8361289b565b9250828203905067ffffffffffffffff81111561315a57613159612974565b5b92915050565b7f4e487b7100000000000000000000000000000000000000000000000000000000600052601260045260246000fd5b600061319a8261289b565b91506131a58361289b565b9250826131b5576131b4613160565b5b828204905092915050565b60006131cb8261289b565b91506131d68361289b565b9250828201905067ffffffffffffffff8111156131f6576131f5612974565b5b92915050565b7f556e7375636365737366756c2063616c6c20746f20436164656e63652041726360008201527f68207072652d636f6d70696c65207768656e206665746368696e67207265766560208201527f727469626c652072616e646f6d206e756d626572000000000000000000000000604082015250565b600061327e6054836120ef565b9150613289826131fc565b606082019050919050565b600060208201905081810360008301526132ad81613271565b9050919050565b60006132bf82611fcf565b91506132ca83611fcf565b92508282019050808211156132e2576132e1612974565b5b92915050565b7f496e76616c69642062797465206c656e67746800000000000000000000000000600082015250565b600061331e6013836120ef565b9150613329826132e8565b602082019050919050565b6000602082019050818103600083015261334d81613311565b9050919050565b7f50524720696e697469616c2073746174652069732030202d206d75737420626560008201527f20696e697469616c697a6564206173206e6f6e2d7a65726f0000000000000000602082015250565b60006133b06038836120ef565b91506133bb82613354565b604082019050919050565b600060208201905081810360008301526133df816133a3565b9050919050565b60006133f18261289b565b915067ffffffffffffffff820361340b5761340a612974565b5b60018201905091905056fea26469706673582212204662c77e4dcd82424f7b69b359ddf04025da90cd857a5707412ba60507efda9b64736f6c634300081c0033","opcodes":"PUSH1 0x80 PUSH1 0x40 MSTORE CALLVALUE DUP1 ISZERO PUSH2 0x10 JUMPI PUSH1 0x0 DUP1 REVERT JUMPDEST POP CALLER PUSH1 0x0 PUSH20 0xFFFFFFFFFFFFFFFFFFFFFFFFFFFFFFFFFFFFFFFF AND DUP2 PUSH20 0xFFFFFFFFFFFFFFFFFFFFFFFFFFFFFFFFFFFFFFFF AND SUB PUSH2 0x84 JUMPI PUSH1 0x0 PUSH1 0x40 MLOAD PUSH32 0x1E4FBDF700000000000000000000000000000000000000000000000000000000 DUP2 MSTORE PUSH1 0x4 ADD PUSH2 0x7B SWAP2 SWAP1 PUSH2 0x1FD JUMP JUMPDEST PUSH1 0x40 MLOAD DUP1 SWAP2 SUB SWAP1 REVERT JUMPDEST PUSH2 0x93 DUP2 PUSH2 0xF6 PUSH1 0x20 SHL PUSH1 0x20 SHR JUMP JUMPDEST POP PUSH20 0x84C6A2E6765E88427C41BB38C82A78B570E24709 PUSH1 0x5 PUSH1 0x0 PUSH2 0x100 EXP DUP2 SLOAD DUP2 PUSH20 0xFFFFFFFFFFFFFFFFFFFFFFFFFFFFFFFFFFFFFFFF MUL NOT AND SWAP1 DUP4 PUSH20 0xFFFFFFFFFFFFFFFFFFFFFFFFFFFFFFFFFFFFFFFF AND MUL OR SWAP1 SSTORE POP PUSH1 0x1 PUSH1 0x3 DUP2 SWAP1 SSTORE POP PUSH2 0x218 JUMP JUMPDEST PUSH1 0x0 PUSH1 0x2 PUSH1 0x0 SWAP1 SLOAD SWAP1 PUSH2 0x100 EXP SWAP1 DIV PUSH20 0xFFFFFFFFFFFFFFFFFFFFFFFFFFFFFFFFFFFFFFFF AND SWAP1 POP DUP2 PUSH1 0x2 PUSH1 0x0 PUSH2 0x100 EXP DUP2 SLOAD DUP2 PUSH20 0xFFFFFFFFFFFFFFFFFFFFFFFFFFFFFFFFFFFFFFFF MUL NOT AND SWAP1 DUP4 PUSH20 0xFFFFFFFFFFFFFFFFFFFFFFFFFFFFFFFFFFFFFFFF AND MUL OR SWAP1 SSTORE POP DUP2 PUSH20 0xFFFFFFFFFFFFFFFFFFFFFFFFFFFFFFFFFFFFFFFF AND DUP2 PUSH20 0xFFFFFFFFFFFFFFFFFFFFFFFFFFFFFFFFFFFFFFFF AND PUSH32 0x8BE0079C531659141344CD1FD0A4F28419497F9722A3DAAFE3B4186F6B6457E0 PUSH1 0x40 MLOAD PUSH1 0x40 MLOAD DUP1 SWAP2 SUB SWAP1 LOG3 POP POP JUMP JUMPDEST PUSH1 0x0 PUSH20 0xFFFFFFFFFFFFFFFFFFFFFFFFFFFFFFFFFFFFFFFF DUP3 AND SWAP1 POP SWAP2 SWAP1 POP JUMP JUMPDEST PUSH1 0x0 PUSH2 0x1E7 DUP3 PUSH2 0x1BC JUMP JUMPDEST SWAP1 POP SWAP2 SWAP1 POP JUMP JUMPDEST PUSH2 0x1F7 DUP2 PUSH2 0x1DC JUMP JUMPDEST DUP3 MSTORE POP POP JUMP JUMPDEST PUSH1 0x0 PUSH1 0x20 DUP3 ADD SWAP1 POP PUSH2 0x212 PUSH1 0x0 DUP4 ADD DUP5 PUSH2 0x1EE JUMP JUMPDEST SWAP3 SWAP2 POP POP JUMP JUMPDEST PUSH2 0x344C DUP1 PUSH2 0x227 PUSH1 0x0 CODECOPY PUSH1 0x0 RETURN INVALID PUSH1 0x80 PUSH1 0x40 MSTORE PUSH1 0x4 CALLDATASIZE LT PUSH2 0x14B JUMPI PUSH1 0x0 CALLDATALOAD PUSH1 0xE0 SHR DUP1 PUSH4 0x715018A6 GT PUSH2 0xB6 JUMPI DUP1 PUSH4 0xC461FCC7 GT PUSH2 0x6F JUMPI DUP1 PUSH4 0xC461FCC7 EQ PUSH2 0x48F JUMPI DUP1 PUSH4 0xD56D229D EQ PUSH2 0x4BA JUMPI DUP1 PUSH4 0xD59FD63C EQ PUSH2 0x4E5 JUMPI DUP1 PUSH4 0xDF5A9FA8 EQ PUSH2 0x522 JUMPI DUP1 PUSH4 0xE9B2E0D7 EQ PUSH2 0x55F JUMPI DUP1 PUSH4 0xF2FDE38B EQ PUSH2 0x59C JUMPI PUSH2 0x14B JUMP JUMPDEST DUP1 PUSH4 0x715018A6 EQ PUSH2 0x38C JUMPI DUP1 PUSH4 0x71B70C19 EQ PUSH2 0x3A3 JUMPI DUP1 PUSH4 0x8A19C8BC EQ PUSH2 0x3E3 JUMPI DUP1 PUSH4 0x8DA5CB5B EQ PUSH2 0x40E JUMPI DUP1 PUSH4 0xAD8BB0A1 EQ PUSH2 0x439 JUMPI DUP1 PUSH4 0xBBB2340D EQ PUSH2 0x464 JUMPI PUSH2 0x14B JUMP JUMPDEST DUP1 PUSH4 0x2DAB28C0 GT PUSH2 0x108 JUMPI DUP1 PUSH4 0x2DAB28C0 EQ PUSH2 0x273 JUMPI DUP1 PUSH4 0x32702C95 EQ PUSH2 0x2B0 JUMPI DUP1 PUSH4 0x3BD042C3 EQ PUSH2 0x2DB JUMPI DUP1 PUSH4 0x3C4EA385 EQ PUSH2 0x306 JUMPI DUP1 PUSH4 0x698854CD EQ PUSH2 0x324 JUMPI DUP1 PUSH4 0x6F9FB98A EQ PUSH2 0x361 JUMPI PUSH2 0x14B JUMP JUMPDEST DUP1 PUSH4 0x23245D7 EQ PUSH2 0x150 JUMPI DUP1 PUSH4 0x12FC2249 EQ PUSH2 0x179 JUMPI DUP1 PUSH4 0x150B7A02 EQ PUSH2 0x1B6 JUMPI DUP1 PUSH4 0x1A4F0E57 EQ PUSH2 0x1F3 JUMPI DUP1 PUSH4 0x24600FC3 EQ PUSH2 0x21C JUMPI DUP1 PUSH4 0x26997D8A EQ PUSH2 0x233 JUMPI JUMPDEST PUSH1 0x0 DUP1 REVERT JUMPDEST CALLVALUE DUP1 ISZERO PUSH2 0x15C JUMPI PUSH1 0x0 DUP1 REVERT JUMPDEST POP PUSH2 0x177 PUSH1 0x4 DUP1 CALLDATASIZE SUB DUP2 ADD SWAP1 PUSH2 0x172 SWAP2 SWAP1 PUSH2 0x2005 JUMP JUMPDEST PUSH2 0x5C5 JUMP JUMPDEST STOP JUMPDEST CALLVALUE DUP1 ISZERO PUSH2 0x185 JUMPI PUSH1 0x0 DUP1 REVERT JUMPDEST POP PUSH2 0x1A0 PUSH1 0x4 DUP1 CALLDATASIZE SUB DUP2 ADD SWAP1 PUSH2 0x19B SWAP2 SWAP1 PUSH2 0x2097 JUMP JUMPDEST PUSH2 0x75A JUMP JUMPDEST PUSH1 0x40 MLOAD PUSH2 0x1AD SWAP2 SWAP1 PUSH2 0x2174 JUMP JUMPDEST PUSH1 0x40 MLOAD DUP1 SWAP2 SUB SWAP1 RETURN JUMPDEST CALLVALUE DUP1 ISZERO PUSH2 0x1C2 JUMPI PUSH1 0x0 DUP1 REVERT JUMPDEST POP PUSH2 0x1DD PUSH1 0x4 DUP1 CALLDATASIZE SUB DUP2 ADD SWAP1 PUSH2 0x1D8 SWAP2 SWAP1 PUSH2 0x2324 JUMP JUMPDEST PUSH2 0x832 JUMP JUMPDEST PUSH1 0x40 MLOAD PUSH2 0x1EA SWAP2 SWAP1 PUSH2 0x23E2 JUMP JUMPDEST PUSH1 0x40 MLOAD DUP1 SWAP2 SUB SWAP1 RETURN JUMPDEST CALLVALUE DUP1 ISZERO PUSH2 0x1FF JUMPI PUSH1 0x0 DUP1 REVERT JUMPDEST POP PUSH2 0x21A PUSH1 0x4 DUP1 CALLDATASIZE SUB DUP2 ADD SWAP1 PUSH2 0x215 SWAP2 SWAP1 PUSH2 0x2453 JUMP JUMPDEST PUSH2 0x846 JUMP JUMPDEST STOP JUMPDEST CALLVALUE DUP1 ISZERO PUSH2 0x228 JUMPI PUSH1 0x0 DUP1 REVERT JUMPDEST POP PUSH2 0x231 PUSH2 0x9DA JUMP JUMPDEST STOP JUMPDEST CALLVALUE DUP1 ISZERO PUSH2 0x23F JUMPI PUSH1 0x0 DUP1 REVERT JUMPDEST POP PUSH2 0x25A PUSH1 0x4 DUP1 CALLDATASIZE SUB DUP2 ADD SWAP1 PUSH2 0x255 SWAP2 SWAP1 PUSH2 0x2005 JUMP JUMPDEST PUSH2 0xADA JUMP JUMPDEST PUSH1 0x40 MLOAD PUSH2 0x26A SWAP5 SWAP4 SWAP3 SWAP2 SWAP1 PUSH2 0x24BE JUMP JUMPDEST PUSH1 0x40 MLOAD DUP1 SWAP2 SUB SWAP1 RETURN JUMPDEST CALLVALUE DUP1 ISZERO PUSH2 0x27F JUMPI PUSH1 0x0 DUP1 REVERT JUMPDEST POP PUSH2 0x29A PUSH1 0x4 DUP1 CALLDATASIZE SUB DUP2 ADD SWAP1 PUSH2 0x295 SWAP2 SWAP1 PUSH2 0x2005 JUMP JUMPDEST PUSH2 0xB3A JUMP JUMPDEST PUSH1 0x40 MLOAD PUSH2 0x2A7 SWAP2 SWAP1 PUSH2 0x2576 JUMP JUMPDEST PUSH1 0x40 MLOAD DUP1 SWAP2 SUB SWAP1 RETURN JUMPDEST CALLVALUE DUP1 ISZERO PUSH2 0x2BC JUMPI PUSH1 0x0 DUP1 REVERT JUMPDEST POP PUSH2 0x2C5 PUSH2 0xBDB JUMP JUMPDEST PUSH1 0x40 MLOAD PUSH2 0x2D2 SWAP2 SWAP1 PUSH2 0x2640 JUMP JUMPDEST PUSH1 0x40 MLOAD DUP1 SWAP2 SUB SWAP1 RETURN JUMPDEST CALLVALUE DUP1 ISZERO PUSH2 0x2E7 JUMPI PUSH1 0x0 DUP1 REVERT JUMPDEST POP PUSH2 0x2F0 PUSH2 0xC33 JUMP JUMPDEST PUSH1 0x40 MLOAD PUSH2 0x2FD SWAP2 SWAP1 PUSH2 0x2662 JUMP JUMPDEST PUSH1 0x40 MLOAD DUP1 SWAP2 SUB SWAP1 RETURN JUMPDEST PUSH2 0x30E PUSH2 0xC3F JUMP JUMPDEST PUSH1 0x40 MLOAD PUSH2 0x31B SWAP2 SWAP1 PUSH2 0x2662 JUMP JUMPDEST PUSH1 0x40 MLOAD DUP1 SWAP2 SUB SWAP1 RETURN JUMPDEST CALLVALUE DUP1 ISZERO PUSH2 0x330 JUMPI PUSH1 0x0 DUP1 REVERT JUMPDEST POP PUSH2 0x34B PUSH1 0x4 DUP1 CALLDATASIZE SUB DUP2 ADD SWAP1 PUSH2 0x346 SWAP2 SWAP1 PUSH2 0x267D JUMP JUMPDEST PUSH2 0xFF5 JUMP JUMPDEST PUSH1 0x40 MLOAD PUSH2 0x358 SWAP2 SWAP1 PUSH2 0x27AE JUMP JUMPDEST PUSH1 0x40 MLOAD DUP1 SWAP2 SUB SWAP1 RETURN JUMPDEST CALLVALUE DUP1 ISZERO PUSH2 0x36D JUMPI PUSH1 0x0 DUP1 REVERT JUMPDEST POP PUSH2 0x376 PUSH2 0x1265 JUMP JUMPDEST PUSH1 0x40 MLOAD PUSH2 0x383 SWAP2 SWAP1 PUSH2 0x2662 JUMP JUMPDEST PUSH1 0x40 MLOAD DUP1 SWAP2 SUB SWAP1 RETURN JUMPDEST CALLVALUE DUP1 ISZERO PUSH2 0x398 JUMPI PUSH1 0x0 DUP1 REVERT JUMPDEST POP PUSH2 0x3A1 PUSH2 0x126D JUMP JUMPDEST STOP JUMPDEST CALLVALUE DUP1 ISZERO PUSH2 0x3AF JUMPI PUSH1 0x0 DUP1 REVERT JUMPDEST POP PUSH2 0x3CA PUSH1 0x4 DUP1 CALLDATASIZE SUB DUP2 ADD SWAP1 PUSH2 0x3C5 SWAP2 SWAP1 PUSH2 0x2005 JUMP JUMPDEST PUSH2 0x1281 JUMP JUMPDEST PUSH1 0x40 MLOAD PUSH2 0x3DA SWAP5 SWAP4 SWAP3 SWAP2 SWAP1 PUSH2 0x24BE JUMP JUMPDEST PUSH1 0x40 MLOAD DUP1 SWAP2 SUB SWAP1 RETURN JUMPDEST CALLVALUE DUP1 ISZERO PUSH2 0x3EF JUMPI PUSH1 0x0 DUP1 REVERT JUMPDEST POP PUSH2 0x3F8 PUSH2 0x12D1 JUMP JUMPDEST PUSH1 0x40 MLOAD PUSH2 0x405 SWAP2 SWAP1 PUSH2 0x2662 JUMP JUMPDEST PUSH1 0x40 MLOAD DUP1 SWAP2 SUB SWAP1 RETURN JUMPDEST CALLVALUE DUP1 ISZERO PUSH2 0x41A JUMPI PUSH1 0x0 DUP1 REVERT JUMPDEST POP PUSH2 0x423 PUSH2 0x12D7 JUMP JUMPDEST PUSH1 0x40 MLOAD PUSH2 0x430 SWAP2 SWAP1 PUSH2 0x27D0 JUMP JUMPDEST PUSH1 0x40 MLOAD DUP1 SWAP2 SUB SWAP1 RETURN JUMPDEST CALLVALUE DUP1 ISZERO PUSH2 0x445 JUMPI PUSH1 0x0 DUP1 REVERT JUMPDEST POP PUSH2 0x44E PUSH2 0x1301 JUMP JUMPDEST PUSH1 0x40 MLOAD PUSH2 0x45B SWAP2 SWAP1 PUSH2 0x2662 JUMP JUMPDEST PUSH1 0x40 MLOAD DUP1 SWAP2 SUB SWAP1 RETURN JUMPDEST CALLVALUE DUP1 ISZERO PUSH2 0x470 JUMPI PUSH1 0x0 DUP1 REVERT JUMPDEST POP PUSH2 0x479 PUSH2 0x130E JUMP JUMPDEST PUSH1 0x40 MLOAD PUSH2 0x486 SWAP2 SWAP1 PUSH2 0x2662 JUMP JUMPDEST PUSH1 0x40 MLOAD DUP1 SWAP2 SUB SWAP1 RETURN JUMPDEST CALLVALUE DUP1 ISZERO PUSH2 0x49B JUMPI PUSH1 0x0 DUP1 REVERT JUMPDEST POP PUSH2 0x4A4 PUSH2 0x1313 JUMP JUMPDEST PUSH1 0x40 MLOAD PUSH2 0x4B1 SWAP2 SWAP1 PUSH2 0x27AE JUMP JUMPDEST PUSH1 0x40 MLOAD DUP1 SWAP2 SUB SWAP1 RETURN JUMPDEST CALLVALUE DUP1 ISZERO PUSH2 0x4C6 JUMPI PUSH1 0x0 DUP1 REVERT JUMPDEST POP PUSH2 0x4CF PUSH2 0x13E6 JUMP JUMPDEST PUSH1 0x40 MLOAD PUSH2 0x4DC SWAP2 SWAP1 PUSH2 0x284A JUMP JUMPDEST PUSH1 0x40 MLOAD DUP1 SWAP2 SUB SWAP1 RETURN JUMPDEST CALLVALUE DUP1 ISZERO PUSH2 0x4F1 JUMPI PUSH1 0x0 DUP1 REVERT JUMPDEST POP PUSH2 0x50C PUSH1 0x4 DUP1 CALLDATASIZE SUB DUP2 ADD SWAP1 PUSH2 0x507 SWAP2 SWAP1 PUSH2 0x2005 JUMP JUMPDEST PUSH2 0x140C JUMP JUMPDEST PUSH1 0x40 MLOAD PUSH2 0x519 SWAP2 SWAP1 PUSH2 0x2880 JUMP JUMPDEST PUSH1 0x40 MLOAD DUP1 SWAP2 SUB SWAP1 RETURN JUMPDEST CALLVALUE DUP1 ISZERO PUSH2 0x52E JUMPI PUSH1 0x0 DUP1 REVERT JUMPDEST POP PUSH2 0x549 PUSH1 0x4 DUP1 CALLDATASIZE SUB DUP2 ADD SWAP1 PUSH2 0x544 SWAP2 SWAP1 PUSH2 0x28DB JUMP JUMPDEST PUSH2 0x14BA JUMP JUMPDEST PUSH1 0x40 MLOAD PUSH2 0x556 SWAP2 SWAP1 PUSH2 0x292A JUMP JUMPDEST PUSH1 0x40 MLOAD DUP1 SWAP2 SUB SWAP1 RETURN JUMPDEST CALLVALUE DUP1 ISZERO PUSH2 0x56B JUMPI PUSH1 0x0 DUP1 REVERT JUMPDEST POP PUSH2 0x586 PUSH1 0x4 DUP1 CALLDATASIZE SUB DUP2 ADD SWAP1 PUSH2 0x581 SWAP2 SWAP1 PUSH2 0x2005 JUMP JUMPDEST PUSH2 0x14CE JUMP JUMPDEST PUSH1 0x40 MLOAD PUSH2 0x593 SWAP2 SWAP1 PUSH2 0x2662 JUMP JUMPDEST PUSH1 0x40 MLOAD DUP1 SWAP2 SUB SWAP1 RETURN JUMPDEST CALLVALUE DUP1 ISZERO PUSH2 0x5A8 JUMPI PUSH1 0x0 DUP1 REVERT JUMPDEST POP PUSH2 0x5C3 PUSH1 0x4 DUP1 CALLDATASIZE SUB DUP2 ADD SWAP1 PUSH2 0x5BE SWAP2 SWAP1 PUSH2 0x267D JUMP JUMPDEST PUSH2 0x14F2 JUMP JUMPDEST STOP JUMPDEST PUSH2 0x5CD PUSH2 0x1578 JUMP JUMPDEST PUSH1 0x0 JUMPDEST PUSH1 0x4 DUP1 SLOAD SWAP1 POP DUP2 LT ISZERO PUSH2 0x68E JUMPI DUP2 PUSH1 0x4 DUP3 DUP2 SLOAD DUP2 LT PUSH2 0x5F2 JUMPI PUSH2 0x5F1 PUSH2 0x2945 JUMP JUMPDEST JUMPDEST SWAP1 PUSH1 0x0 MSTORE PUSH1 0x20 PUSH1 0x0 KECCAK256 ADD SLOAD SUB PUSH2 0x681 JUMPI PUSH1 0x4 PUSH1 0x1 PUSH1 0x4 DUP1 SLOAD SWAP1 POP PUSH2 0x616 SWAP2 SWAP1 PUSH2 0x29A3 JUMP JUMPDEST DUP2 SLOAD DUP2 LT PUSH2 0x627 JUMPI PUSH2 0x626 PUSH2 0x2945 JUMP JUMPDEST JUMPDEST SWAP1 PUSH1 0x0 MSTORE PUSH1 0x20 PUSH1 0x0 KECCAK256 ADD SLOAD PUSH1 0x4 DUP3 DUP2 SLOAD DUP2 LT PUSH2 0x646 JUMPI PUSH2 0x645 PUSH2 0x2945 JUMP JUMPDEST JUMPDEST SWAP1 PUSH1 0x0 MSTORE PUSH1 0x20 PUSH1 0x0 KECCAK256 ADD DUP2 SWAP1 SSTORE POP PUSH1 0x4 DUP1 SLOAD DUP1 PUSH2 0x666 JUMPI PUSH2 0x665 PUSH2 0x29D7 JUMP JUMPDEST JUMPDEST PUSH1 0x1 SWAP1 SUB DUP2 DUP2 SWAP1 PUSH1 0x0 MSTORE PUSH1 0x20 PUSH1 0x0 KECCAK256 ADD PUSH1 0x0 SWAP1 SSTORE SWAP1 SSTORE PUSH2 0x68E JUMP JUMPDEST DUP1 DUP1 PUSH1 0x1 ADD SWAP2 POP POP PUSH2 0x5D0 JUMP JUMPDEST POP PUSH1 0x5 PUSH1 0x0 SWAP1 SLOAD SWAP1 PUSH2 0x100 EXP SWAP1 DIV PUSH20 0xFFFFFFFFFFFFFFFFFFFFFFFFFFFFFFFFFFFFFFFF AND PUSH20 0xFFFFFFFFFFFFFFFFFFFFFFFFFFFFFFFFFFFFFFFF AND PUSH4 0x42842E0E ADDRESS CALLER DUP5 PUSH1 0x40 MLOAD DUP5 PUSH4 0xFFFFFFFF AND PUSH1 0xE0 SHL DUP2 MSTORE PUSH1 0x4 ADD PUSH2 0x6EE SWAP4 SWAP3 SWAP2 SWAP1 PUSH2 0x2A06 JUMP JUMPDEST PUSH1 0x0 PUSH1 0x40 MLOAD DUP1 DUP4 SUB DUP2 PUSH1 0x0 DUP8 DUP1 EXTCODESIZE ISZERO DUP1 ISZERO PUSH2 0x708 JUMPI PUSH1 0x0 DUP1 REVERT JUMPDEST POP GAS CALL ISZERO DUP1 ISZERO PUSH2 0x71C JUMPI RETURNDATASIZE PUSH1 0x0 DUP1 RETURNDATACOPY RETURNDATASIZE PUSH1 0x0 REVERT JUMPDEST POP POP POP POP PUSH32 0xB5C62009782D1FF6B07A6B18B8C952D3D01989CDB848A3E35AC78CBC1F070304 DUP2 PUSH1 0x40 MLOAD PUSH2 0x74F SWAP2 SWAP1 PUSH2 0x2662 JUMP JUMPDEST PUSH1 0x40 MLOAD DUP1 SWAP2 SUB SWAP1 LOG1 POP JUMP JUMPDEST PUSH1 0x60 PUSH1 0x0 DUP4 DUP4 SWAP1 POP SUB PUSH2 0x799 JUMPI PUSH1 0x40 MLOAD PUSH32 0xDE24D3FA00000000000000000000000000000000000000000000000000000000 DUP2 MSTORE PUSH1 0x4 ADD PUSH1 0x40 MLOAD DUP1 SWAP2 SUB SWAP1 REVERT JUMPDEST PUSH1 0x0 PUSH2 0x7B5 PUSH1 0x0 PUSH1 0x1 DUP7 DUP7 SWAP1 POP PUSH2 0x7B0 SWAP2 SWAP1 PUSH2 0x29A3 JUMP JUMPDEST PUSH2 0x14BA JUMP JUMPDEST SWAP1 POP DUP4 DUP4 DUP3 PUSH8 0xFFFFFFFFFFFFFFFF AND DUP2 DUP2 LT PUSH2 0x7D4 JUMPI PUSH2 0x7D3 PUSH2 0x2945 JUMP JUMPDEST JUMPDEST SWAP1 POP PUSH1 0x20 MUL DUP2 ADD SWAP1 PUSH2 0x7E6 SWAP2 SWAP1 PUSH2 0x2A4C JUMP JUMPDEST DUP1 DUP1 PUSH1 0x1F ADD PUSH1 0x20 DUP1 SWAP2 DIV MUL PUSH1 0x20 ADD PUSH1 0x40 MLOAD SWAP1 DUP2 ADD PUSH1 0x40 MSTORE DUP1 SWAP4 SWAP3 SWAP2 SWAP1 DUP2 DUP2 MSTORE PUSH1 0x20 ADD DUP4 DUP4 DUP1 DUP3 DUP5 CALLDATACOPY PUSH1 0x0 DUP2 DUP5 ADD MSTORE PUSH1 0x1F NOT PUSH1 0x1F DUP3 ADD AND SWAP1 POP DUP1 DUP4 ADD SWAP3 POP POP POP POP POP POP POP SWAP2 POP POP SWAP3 SWAP2 POP POP JUMP JUMPDEST PUSH1 0x0 PUSH4 0x150B7A02 PUSH1 0xE0 SHL SWAP1 POP SWAP5 SWAP4 POP POP POP POP JUMP JUMPDEST PUSH2 0x84E PUSH2 0x1578 JUMP JUMPDEST PUSH1 0xF DUP3 DUP3 SWAP1 POP GT ISZERO PUSH2 0x895 JUMPI PUSH1 0x40 MLOAD PUSH32 0x8C379A000000000000000000000000000000000000000000000000000000000 DUP2 MSTORE PUSH1 0x4 ADD PUSH2 0x88C SWAP1 PUSH2 0x2B21 JUMP JUMPDEST PUSH1 0x40 MLOAD DUP1 SWAP2 SUB SWAP1 REVERT JUMPDEST PUSH1 0x0 JUMPDEST DUP3 DUP3 SWAP1 POP DUP2 LT ISZERO PUSH2 0x99C JUMPI PUSH1 0x5 PUSH1 0x0 SWAP1 SLOAD SWAP1 PUSH2 0x100 EXP SWAP1 DIV PUSH20 0xFFFFFFFFFFFFFFFFFFFFFFFFFFFFFFFFFFFFFFFF AND PUSH20 0xFFFFFFFFFFFFFFFFFFFFFFFFFFFFFFFFFFFFFFFF AND PUSH4 0x42842E0E CALLER ADDRESS DUP7 DUP7 DUP7 DUP2 DUP2 LT PUSH2 0x8F6 JUMPI PUSH2 0x8F5 PUSH2 0x2945 JUMP JUMPDEST JUMPDEST SWAP1 POP PUSH1 0x20 MUL ADD CALLDATALOAD PUSH1 0x40 MLOAD DUP5 PUSH4 0xFFFFFFFF AND PUSH1 0xE0 SHL DUP2 MSTORE PUSH1 0x4 ADD PUSH2 0x91B SWAP4 SWAP3 SWAP2 SWAP1 PUSH2 0x2A06 JUMP JUMPDEST PUSH1 0x0 PUSH1 0x40 MLOAD DUP1 DUP4 SUB DUP2 PUSH1 0x0 DUP8 DUP1 EXTCODESIZE ISZERO DUP1 ISZERO PUSH2 0x935 JUMPI PUSH1 0x0 DUP1 REVERT JUMPDEST POP GAS CALL ISZERO DUP1 ISZERO PUSH2 0x949 JUMPI RETURNDATASIZE PUSH1 0x0 DUP1 RETURNDATACOPY RETURNDATASIZE PUSH1 0x0 REVERT JUMPDEST POP POP POP POP PUSH1 0x4 DUP4 DUP4 DUP4 DUP2 DUP2 LT PUSH2 0x962 JUMPI PUSH2 0x961 PUSH2 0x2945 JUMP JUMPDEST JUMPDEST SWAP1 POP PUSH1 0x20 MUL ADD CALLDATALOAD SWAP1 DUP1 PUSH1 0x1 DUP2 SLOAD ADD DUP1 DUP3 SSTORE DUP1 SWAP2 POP POP PUSH1 0x1 SWAP1 SUB SWAP1 PUSH1 0x0 MSTORE PUSH1 0x20 PUSH1 0x0 KECCAK256 ADD PUSH1 0x0 SWAP1 SWAP2 SWAP1 SWAP2 SWAP1 SWAP2 POP SSTORE DUP1 DUP1 PUSH1 0x1 ADD SWAP2 POP POP PUSH2 0x898 JUMP JUMPDEST POP PUSH32 0x68D01A5373ED00B4C20DD90C21307BF1E95B75F03AFC0392F5F1FB11619975B6 DUP3 DUP3 PUSH1 0x40 MLOAD PUSH2 0x9CE SWAP3 SWAP2 SWAP1 PUSH2 0x2BAB JUMP JUMPDEST PUSH1 0x40 MLOAD DUP1 SWAP2 SUB SWAP1 LOG1 POP POP JUMP JUMPDEST PUSH2 0x9E2 PUSH2 0x1578 JUMP JUMPDEST PUSH1 0x0 SELFBALANCE SWAP1 POP PUSH1 0x0 DUP2 GT PUSH2 0xA2A JUMPI PUSH1 0x40 MLOAD PUSH32 0x8C379A000000000000000000000000000000000000000000000000000000000 DUP2 MSTORE PUSH1 0x4 ADD PUSH2 0xA21 SWAP1 PUSH2 0x2C1B JUMP JUMPDEST PUSH1 0x40 MLOAD DUP1 SWAP2 SUB SWAP1 REVERT JUMPDEST PUSH1 0x0 CALLER PUSH20 0xFFFFFFFFFFFFFFFFFFFFFFFFFFFFFFFFFFFFFFFF AND DUP3 PUSH1 0x40 MLOAD PUSH2 0xA50 SWAP1 PUSH2 0x2C6C JUMP JUMPDEST PUSH1 0x0 PUSH1 0x40 MLOAD DUP1 DUP4 SUB DUP2 DUP6 DUP8 GAS CALL SWAP3 POP POP POP RETURNDATASIZE DUP1 PUSH1 0x0 DUP2 EQ PUSH2 0xA8D JUMPI PUSH1 0x40 MLOAD SWAP2 POP PUSH1 0x1F NOT PUSH1 0x3F RETURNDATASIZE ADD AND DUP3 ADD PUSH1 0x40 MSTORE RETURNDATASIZE DUP3 MSTORE RETURNDATASIZE PUSH1 0x0 PUSH1 0x20 DUP5 ADD RETURNDATACOPY PUSH2 0xA92 JUMP JUMPDEST PUSH1 0x60 SWAP2 POP JUMPDEST POP POP SWAP1 POP DUP1 PUSH2 0xAD6 JUMPI PUSH1 0x40 MLOAD PUSH32 0x8C379A000000000000000000000000000000000000000000000000000000000 DUP2 MSTORE PUSH1 0x4 ADD PUSH2 0xACD SWAP1 PUSH2 0x2CCD JUMP JUMPDEST PUSH1 0x40 MLOAD DUP1 SWAP2 SUB SWAP1 REVERT JUMPDEST POP POP JUMP JUMPDEST PUSH1 0x7 DUP2 DUP2 SLOAD DUP2 LT PUSH2 0xAEA JUMPI PUSH1 0x0 DUP1 REVERT JUMPDEST SWAP1 PUSH1 0x0 MSTORE PUSH1 0x20 PUSH1 0x0 KECCAK256 SWAP1 PUSH1 0x4 MUL ADD PUSH1 0x0 SWAP2 POP SWAP1 POP DUP1 PUSH1 0x0 ADD SLOAD SWAP1 DUP1 PUSH1 0x1 ADD PUSH1 0x0 SWAP1 SLOAD SWAP1 PUSH2 0x100 EXP SWAP1 DIV PUSH20 0xFFFFFFFFFFFFFFFFFFFFFFFFFFFFFFFFFFFFFFFF AND SWAP1 DUP1 PUSH1 0x2 ADD SLOAD SWAP1 DUP1 PUSH1 0x3 ADD SLOAD SWAP1 POP DUP5 JUMP JUMPDEST PUSH2 0xB42 PUSH2 0x1F4F JUMP JUMPDEST PUSH1 0x6 PUSH1 0x0 DUP4 DUP2 MSTORE PUSH1 0x20 ADD SWAP1 DUP2 MSTORE PUSH1 0x20 ADD PUSH1 0x0 KECCAK256 PUSH1 0x40 MLOAD DUP1 PUSH1 0x80 ADD PUSH1 0x40 MSTORE SWAP1 DUP2 PUSH1 0x0 DUP3 ADD SLOAD DUP2 MSTORE PUSH1 0x20 ADD PUSH1 0x1 DUP3 ADD PUSH1 0x0 SWAP1 SLOAD SWAP1 PUSH2 0x100 EXP SWAP1 DIV PUSH20 0xFFFFFFFFFFFFFFFFFFFFFFFFFFFFFFFFFFFFFFFF AND PUSH20 0xFFFFFFFFFFFFFFFFFFFFFFFFFFFFFFFFFFFFFFFF AND PUSH20 0xFFFFFFFFFFFFFFFFFFFFFFFFFFFFFFFFFFFFFFFF AND DUP2 MSTORE PUSH1 0x20 ADD PUSH1 0x2 DUP3 ADD SLOAD DUP2 MSTORE PUSH1 0x20 ADD PUSH1 0x3 DUP3 ADD SLOAD DUP2 MSTORE POP POP SWAP1 POP SWAP2 SWAP1 POP JUMP JUMPDEST PUSH1 0x60 PUSH1 0x4 DUP1 SLOAD DUP1 PUSH1 0x20 MUL PUSH1 0x20 ADD PUSH1 0x40 MLOAD SWAP1 DUP2 ADD PUSH1 0x40 MSTORE DUP1 SWAP3 SWAP2 SWAP1 DUP2 DUP2 MSTORE PUSH1 0x20 ADD DUP3 DUP1 SLOAD DUP1 ISZERO PUSH2 0xC29 JUMPI PUSH1 0x20 MUL DUP3 ADD SWAP2 SWAP1 PUSH1 0x0 MSTORE PUSH1 0x20 PUSH1 0x0 KECCAK256 SWAP1 JUMPDEST DUP2 SLOAD DUP2 MSTORE PUSH1 0x20 ADD SWAP1 PUSH1 0x1 ADD SWAP1 DUP1 DUP4 GT PUSH2 0xC15 JUMPI JUMPDEST POP POP POP POP POP SWAP1 POP SWAP1 JUMP JUMPDEST PUSH8 0xDE0B6B3A7640000 DUP2 JUMP JUMPDEST PUSH1 0x0 PUSH8 0xDE0B6B3A7640000 CALLVALUE EQ PUSH2 0xC8B JUMPI PUSH1 0x40 MLOAD PUSH32 0x8C379A000000000000000000000000000000000000000000000000000000000 DUP2 MSTORE PUSH1 0x4 ADD PUSH2 0xC82 SWAP1 PUSH2 0x2D39 JUMP JUMPDEST PUSH1 0x40 MLOAD DUP1 SWAP2 SUB SWAP1 REVERT JUMPDEST PUSH1 0x0 PUSH1 0x4 DUP1 SLOAD SWAP1 POP GT PUSH2 0xCD3 JUMPI PUSH1 0x40 MLOAD PUSH32 0x8C379A000000000000000000000000000000000000000000000000000000000 DUP2 MSTORE PUSH1 0x4 ADD PUSH2 0xCCA SWAP1 PUSH2 0x2DA5 JUMP JUMPDEST PUSH1 0x40 MLOAD DUP1 SWAP2 SUB SWAP1 REVERT JUMPDEST PUSH1 0x0 PUSH2 0xCF1 PUSH1 0x0 PUSH1 0x1 PUSH1 0x4 DUP1 SLOAD SWAP1 POP PUSH2 0xCEC SWAP2 SWAP1 PUSH2 0x29A3 JUMP JUMPDEST PUSH2 0x14BA JUMP JUMPDEST SWAP1 POP PUSH1 0x0 PUSH1 0x4 DUP3 PUSH8 0xFFFFFFFFFFFFFFFF AND DUP2 SLOAD DUP2 LT PUSH2 0xD13 JUMPI PUSH2 0xD12 PUSH2 0x2945 JUMP JUMPDEST JUMPDEST SWAP1 PUSH1 0x0 MSTORE PUSH1 0x20 PUSH1 0x0 KECCAK256 ADD SLOAD SWAP1 POP PUSH1 0x4 PUSH1 0x1 PUSH1 0x4 DUP1 SLOAD SWAP1 POP PUSH2 0xD34 SWAP2 SWAP1 PUSH2 0x29A3 JUMP JUMPDEST DUP2 SLOAD DUP2 LT PUSH2 0xD45 JUMPI PUSH2 0xD44 PUSH2 0x2945 JUMP JUMPDEST JUMPDEST SWAP1 PUSH1 0x0 MSTORE PUSH1 0x20 PUSH1 0x0 KECCAK256 ADD SLOAD PUSH1 0x4 DUP4 PUSH8 0xFFFFFFFFFFFFFFFF AND DUP2 SLOAD DUP2 LT PUSH2 0xD6E JUMPI PUSH2 0xD6D PUSH2 0x2945 JUMP JUMPDEST JUMPDEST SWAP1 PUSH1 0x0 MSTORE PUSH1 0x20 PUSH1 0x0 KECCAK256 ADD DUP2 SWAP1 SSTORE POP PUSH1 0x4 DUP1 SLOAD DUP1 PUSH2 0xD8E JUMPI PUSH2 0xD8D PUSH2 0x29D7 JUMP JUMPDEST JUMPDEST PUSH1 0x1 SWAP1 SUB DUP2 DUP2 SWAP1 PUSH1 0x0 MSTORE PUSH1 0x20 PUSH1 0x0 KECCAK256 ADD PUSH1 0x0 SWAP1 SSTORE SWAP1 SSTORE PUSH1 0x5 PUSH1 0x0 SWAP1 SLOAD SWAP1 PUSH2 0x100 EXP SWAP1 DIV PUSH20 0xFFFFFFFFFFFFFFFFFFFFFFFFFFFFFFFFFFFFFFFF AND PUSH20 0xFFFFFFFFFFFFFFFFFFFFFFFFFFFFFFFFFFFFFFFF AND PUSH4 0x42842E0E ADDRESS CALLER DUP5 PUSH1 0x40 MLOAD DUP5 PUSH4 0xFFFFFFFF AND PUSH1 0xE0 SHL DUP2 MSTORE PUSH1 0x4 ADD PUSH2 0xE03 SWAP4 SWAP3 SWAP2 SWAP1 PUSH2 0x2A06 JUMP JUMPDEST PUSH1 0x0 PUSH1 0x40 MLOAD DUP1 DUP4 SUB DUP2 PUSH1 0x0 DUP8 DUP1 EXTCODESIZE ISZERO DUP1 ISZERO PUSH2 0xE1D JUMPI PUSH1 0x0 DUP1 REVERT JUMPDEST POP GAS CALL ISZERO DUP1 ISZERO PUSH2 0xE31 JUMPI RETURNDATASIZE PUSH1 0x0 DUP1 RETURNDATACOPY RETURNDATASIZE PUSH1 0x0 REVERT JUMPDEST POP POP POP POP PUSH1 0x0 PUSH1 0x40 MLOAD DUP1 PUSH1 0x80 ADD PUSH1 0x40 MSTORE DUP1 PUSH1 0x3 SLOAD DUP2 MSTORE PUSH1 0x20 ADD CALLER PUSH20 0xFFFFFFFFFFFFFFFFFFFFFFFFFFFFFFFFFFFFFFFF AND DUP2 MSTORE PUSH1 0x20 ADD DUP4 DUP2 MSTORE PUSH1 0x20 ADD TIMESTAMP DUP2 MSTORE POP SWAP1 POP DUP1 PUSH1 0x6 PUSH1 0x0 PUSH1 0x3 SLOAD DUP2 MSTORE PUSH1 0x20 ADD SWAP1 DUP2 MSTORE PUSH1 0x20 ADD PUSH1 0x0 KECCAK256 PUSH1 0x0 DUP3 ADD MLOAD DUP2 PUSH1 0x0 ADD SSTORE PUSH1 0x20 DUP3 ADD MLOAD DUP2 PUSH1 0x1 ADD PUSH1 0x0 PUSH2 0x100 EXP DUP2 SLOAD DUP2 PUSH20 0xFFFFFFFFFFFFFFFFFFFFFFFFFFFFFFFFFFFFFFFF MUL NOT AND SWAP1 DUP4 PUSH20 0xFFFFFFFFFFFFFFFFFFFFFFFFFFFFFFFFFFFFFFFF AND MUL OR SWAP1 SSTORE POP PUSH1 0x40 DUP3 ADD MLOAD DUP2 PUSH1 0x2 ADD SSTORE PUSH1 0x60 DUP3 ADD MLOAD DUP2 PUSH1 0x3 ADD SSTORE SWAP1 POP POP PUSH1 0x7 DUP2 SWAP1 DUP1 PUSH1 0x1 DUP2 SLOAD ADD DUP1 DUP3 SSTORE DUP1 SWAP2 POP POP PUSH1 0x1 SWAP1 SUB SWAP1 PUSH1 0x0 MSTORE PUSH1 0x20 PUSH1 0x0 KECCAK256 SWAP1 PUSH1 0x4 MUL ADD PUSH1 0x0 SWAP1 SWAP2 SWAP1 SWAP2 SWAP1 SWAP2 POP PUSH1 0x0 DUP3 ADD MLOAD DUP2 PUSH1 0x0 ADD SSTORE PUSH1 0x20 DUP3 ADD MLOAD DUP2 PUSH1 0x1 ADD PUSH1 0x0 PUSH2 0x100 EXP DUP2 SLOAD DUP2 PUSH20 0xFFFFFFFFFFFFFFFFFFFFFFFFFFFFFFFFFFFFFFFF MUL NOT AND SWAP1 DUP4 PUSH20 0xFFFFFFFFFFFFFFFFFFFFFFFFFFFFFFFFFFFFFFFF AND MUL OR SWAP1 SSTORE POP PUSH1 0x40 DUP3 ADD MLOAD DUP2 PUSH1 0x2 ADD SSTORE PUSH1 0x60 DUP3 ADD MLOAD DUP2 PUSH1 0x3 ADD SSTORE POP POP CALLER PUSH20 0xFFFFFFFFFFFFFFFFFFFFFFFFFFFFFFFFFFFFFFFF AND PUSH1 0x3 SLOAD PUSH32 0x4DA13121A2CFDA173C852A7C5D53F66D528EE4F141991110B324A4F8ADF28889 DUP5 PUSH1 0x40 MLOAD PUSH2 0xFCC SWAP2 SWAP1 PUSH2 0x2662 JUMP JUMPDEST PUSH1 0x40 MLOAD DUP1 SWAP2 SUB SWAP1 LOG3 PUSH1 0x3 PUSH1 0x0 DUP2 SLOAD DUP1 SWAP3 SWAP2 SWAP1 PUSH2 0xFE7 SWAP1 PUSH2 0x2DC5 JUMP JUMPDEST SWAP2 SWAP1 POP SSTORE POP DUP2 SWAP4 POP POP POP POP SWAP1 JUMP JUMPDEST PUSH1 0x60 PUSH1 0x0 DUP1 JUMPDEST PUSH1 0x7 DUP1 SLOAD SWAP1 POP DUP2 LT ISZERO PUSH2 0x109C JUMPI DUP4 PUSH20 0xFFFFFFFFFFFFFFFFFFFFFFFFFFFFFFFFFFFFFFFF AND PUSH1 0x7 DUP3 DUP2 SLOAD DUP2 LT PUSH2 0x1033 JUMPI PUSH2 0x1032 PUSH2 0x2945 JUMP JUMPDEST JUMPDEST SWAP1 PUSH1 0x0 MSTORE PUSH1 0x20 PUSH1 0x0 KECCAK256 SWAP1 PUSH1 0x4 MUL ADD PUSH1 0x1 ADD PUSH1 0x0 SWAP1 SLOAD SWAP1 PUSH2 0x100 EXP SWAP1 DIV PUSH20 0xFFFFFFFFFFFFFFFFFFFFFFFFFFFFFFFFFFFFFFFF AND PUSH20 0xFFFFFFFFFFFFFFFFFFFFFFFFFFFFFFFFFFFFFFFF AND SUB PUSH2 0x108F JUMPI DUP2 DUP1 PUSH2 0x108B SWAP1 PUSH2 0x2DC5 JUMP JUMPDEST SWAP3 POP POP JUMPDEST DUP1 DUP1 PUSH1 0x1 ADD SWAP2 POP POP PUSH2 0xFFB JUMP JUMPDEST POP PUSH1 0x0 DUP2 PUSH8 0xFFFFFFFFFFFFFFFF DUP2 GT ISZERO PUSH2 0x10B9 JUMPI PUSH2 0x10B8 PUSH2 0x21F9 JUMP JUMPDEST JUMPDEST PUSH1 0x40 MLOAD SWAP1 DUP1 DUP3 MSTORE DUP1 PUSH1 0x20 MUL PUSH1 0x20 ADD DUP3 ADD PUSH1 0x40 MSTORE DUP1 ISZERO PUSH2 0x10F2 JUMPI DUP2 PUSH1 0x20 ADD JUMPDEST PUSH2 0x10DF PUSH2 0x1F4F JUMP JUMPDEST DUP2 MSTORE PUSH1 0x20 ADD SWAP1 PUSH1 0x1 SWAP1 SUB SWAP1 DUP2 PUSH2 0x10D7 JUMPI SWAP1 POP JUMPDEST POP SWAP1 POP PUSH1 0x0 DUP1 JUMPDEST PUSH1 0x7 DUP1 SLOAD SWAP1 POP DUP2 LT ISZERO PUSH2 0x1259 JUMPI DUP6 PUSH20 0xFFFFFFFFFFFFFFFFFFFFFFFFFFFFFFFFFFFFFFFF AND PUSH1 0x7 DUP3 DUP2 SLOAD DUP2 LT PUSH2 0x1131 JUMPI PUSH2 0x1130 PUSH2 0x2945 JUMP JUMPDEST JUMPDEST SWAP1 PUSH1 0x0 MSTORE PUSH1 0x20 PUSH1 0x0 KECCAK256 SWAP1 PUSH1 0x4 MUL ADD PUSH1 0x1 ADD PUSH1 0x0 SWAP1 SLOAD SWAP1 PUSH2 0x100 EXP SWAP1 DIV PUSH20 0xFFFFFFFFFFFFFFFFFFFFFFFFFFFFFFFFFFFFFFFF AND PUSH20 0xFFFFFFFFFFFFFFFFFFFFFFFFFFFFFFFFFFFFFFFF AND SUB PUSH2 0x124C JUMPI PUSH1 0x7 DUP2 DUP2 SLOAD DUP2 LT PUSH2 0x1192 JUMPI PUSH2 0x1191 PUSH2 0x2945 JUMP JUMPDEST JUMPDEST SWAP1 PUSH1 0x0 MSTORE PUSH1 0x20 PUSH1 0x0 KECCAK256 SWAP1 PUSH1 0x4 MUL ADD PUSH1 0x40 MLOAD DUP1 PUSH1 0x80 ADD PUSH1 0x40 MSTORE SWAP1 DUP2 PUSH1 0x0 DUP3 ADD SLOAD DUP2 MSTORE PUSH1 0x20 ADD PUSH1 0x1 DUP3 ADD PUSH1 0x0 SWAP1 SLOAD SWAP1 PUSH2 0x100 EXP SWAP1 DIV PUSH20 0xFFFFFFFFFFFFFFFFFFFFFFFFFFFFFFFFFFFFFFFF AND PUSH20 0xFFFFFFFFFFFFFFFFFFFFFFFFFFFFFFFFFFFFFFFF AND PUSH20 0xFFFFFFFFFFFFFFFFFFFFFFFFFFFFFFFFFFFFFFFF AND DUP2 MSTORE PUSH1 0x20 ADD PUSH1 0x2 DUP3 ADD SLOAD DUP2 MSTORE PUSH1 0x20 ADD PUSH1 0x3 DUP3 ADD SLOAD DUP2 MSTORE POP POP DUP4 DUP4 DUP2 MLOAD DUP2 LT PUSH2 0x1232 JUMPI PUSH2 0x1231 PUSH2 0x2945 JUMP JUMPDEST JUMPDEST PUSH1 0x20 MUL PUSH1 0x20 ADD ADD DUP2 SWAP1 MSTORE POP DUP2 DUP1 PUSH2 0x1248 SWAP1 PUSH2 0x2DC5 JUMP JUMPDEST SWAP3 POP POP JUMPDEST DUP1 DUP1 PUSH1 0x1 ADD SWAP2 POP POP PUSH2 0x10F9 JUMP JUMPDEST POP DUP2 SWAP4 POP POP POP POP SWAP2 SWAP1 POP JUMP JUMPDEST PUSH1 0x0 SELFBALANCE SWAP1 POP SWAP1 JUMP JUMPDEST PUSH2 0x1275 PUSH2 0x1578 JUMP JUMPDEST PUSH2 0x127F PUSH1 0x0 PUSH2 0x15FF JUMP JUMPDEST JUMP JUMPDEST PUSH1 0x6 PUSH1 0x20 MSTORE DUP1 PUSH1 0x0 MSTORE PUSH1 0x40 PUSH1 0x0 KECCAK256 PUSH1 0x0 SWAP2 POP SWAP1 POP DUP1 PUSH1 0x0 ADD SLOAD SWAP1 DUP1 PUSH1 0x1 ADD PUSH1 0x0 SWAP1 SLOAD SWAP1 PUSH2 0x100 EXP SWAP1 DIV PUSH20 0xFFFFFFFFFFFFFFFFFFFFFFFFFFFFFFFFFFFFFFFF AND SWAP1 DUP1 PUSH1 0x2 ADD SLOAD SWAP1 DUP1 PUSH1 0x3 ADD SLOAD SWAP1 POP DUP5 JUMP JUMPDEST PUSH1 0x3 SLOAD DUP2 JUMP JUMPDEST PUSH1 0x0 PUSH1 0x2 PUSH1 0x0 SWAP1 SLOAD SWAP1 PUSH2 0x100 EXP SWAP1 DIV PUSH20 0xFFFFFFFFFFFFFFFFFFFFFFFFFFFFFFFFFFFFFFFF AND SWAP1 POP SWAP1 JUMP JUMPDEST PUSH1 0x0 PUSH1 0x4 DUP1 SLOAD SWAP1 POP SWAP1 POP SWAP1 JUMP JUMPDEST PUSH1 0xF DUP2 JUMP JUMPDEST PUSH1 0x60 PUSH1 0x7 DUP1 SLOAD DUP1 PUSH1 0x20 MUL PUSH1 0x20 ADD PUSH1 0x40 MLOAD SWAP1 DUP2 ADD PUSH1 0x40 MSTORE DUP1 SWAP3 SWAP2 SWAP1 DUP2 DUP2 MSTORE PUSH1 0x20 ADD PUSH1 0x0 SWAP1 JUMPDEST DUP3 DUP3 LT ISZERO PUSH2 0x13DD JUMPI DUP4 DUP3 SWAP1 PUSH1 0x0 MSTORE PUSH1 0x20 PUSH1 0x0 KECCAK256 SWAP1 PUSH1 0x4 MUL ADD PUSH1 0x40 MLOAD DUP1 PUSH1 0x80 ADD PUSH1 0x40 MSTORE SWAP1 DUP2 PUSH1 0x0 DUP3 ADD SLOAD DUP2 MSTORE PUSH1 0x20 ADD PUSH1 0x1 DUP3 ADD PUSH1 0x0 SWAP1 SLOAD SWAP1 PUSH2 0x100 EXP SWAP1 DIV PUSH20 0xFFFFFFFFFFFFFFFFFFFFFFFFFFFFFFFFFFFFFFFF AND PUSH20 0xFFFFFFFFFFFFFFFFFFFFFFFFFFFFFFFFFFFFFFFF AND PUSH20 0xFFFFFFFFFFFFFFFFFFFFFFFFFFFFFFFFFFFFFFFF AND DUP2 MSTORE PUSH1 0x20 ADD PUSH1 0x2 DUP3 ADD SLOAD DUP2 MSTORE PUSH1 0x20 ADD PUSH1 0x3 DUP3 ADD SLOAD DUP2 MSTORE POP POP DUP2 MSTORE PUSH1 0x20 ADD SWAP1 PUSH1 0x1 ADD SWAP1 PUSH2 0x1337 JUMP JUMPDEST POP POP POP POP SWAP1 POP SWAP1 JUMP JUMPDEST PUSH1 0x5 PUSH1 0x0 SWAP1 SLOAD SWAP1 PUSH2 0x100 EXP SWAP1 DIV PUSH20 0xFFFFFFFFFFFFFFFFFFFFFFFFFFFFFFFFFFFFFFFF AND DUP2 JUMP JUMPDEST PUSH1 0x0 DUP1 PUSH1 0x1 DUP4 PUSH2 0x141C SWAP2 SWAP1 PUSH2 0x29A3 JUMP JUMPDEST SWAP1 POP PUSH1 0x0 DUP1 SLOAD SWAP1 POP DUP2 LT PUSH2 0x1434 JUMPI PUSH1 0x0 SWAP2 POP POP PUSH2 0x14B5 JUMP JUMPDEST PUSH1 0x0 DUP1 DUP3 DUP2 SLOAD DUP2 LT PUSH2 0x1449 JUMPI PUSH2 0x1448 PUSH2 0x2945 JUMP JUMPDEST JUMPDEST SWAP1 PUSH1 0x0 MSTORE PUSH1 0x20 PUSH1 0x0 KECCAK256 SWAP1 PUSH1 0x3 MUL ADD SWAP1 POP PUSH1 0x0 PUSH2 0x1463 PUSH2 0x16C5 JUMP JUMPDEST SWAP1 POP DUP2 PUSH1 0x2 ADD PUSH1 0x0 SWAP1 SLOAD SWAP1 PUSH2 0x100 EXP SWAP1 DIV PUSH1 0xFF AND ISZERO DUP1 ISZERO PUSH2 0x14AF JUMPI POP DUP1 PUSH8 0xFFFFFFFFFFFFFFFF AND DUP3 PUSH1 0x0 ADD PUSH1 0x0 SWAP1 SLOAD SWAP1 PUSH2 0x100 EXP SWAP1 DIV PUSH8 0xFFFFFFFFFFFFFFFF AND PUSH8 0xFFFFFFFFFFFFFFFF AND LT JUMPDEST SWAP4 POP POP POP POP JUMPDEST SWAP2 SWAP1 POP JUMP JUMPDEST PUSH1 0x0 PUSH2 0x14C6 DUP4 DUP4 PUSH2 0x1820 JUMP JUMPDEST SWAP1 POP SWAP3 SWAP2 POP POP JUMP JUMPDEST PUSH1 0x4 DUP2 DUP2 SLOAD DUP2 LT PUSH2 0x14DE JUMPI PUSH1 0x0 DUP1 REVERT JUMPDEST SWAP1 PUSH1 0x0 MSTORE PUSH1 0x20 PUSH1 0x0 KECCAK256 ADD PUSH1 0x0 SWAP2 POP SWAP1 POP SLOAD DUP2 JUMP JUMPDEST PUSH2 0x14FA PUSH2 0x1578 JUMP JUMPDEST PUSH1 0x0 PUSH20 0xFFFFFFFFFFFFFFFFFFFFFFFFFFFFFFFFFFFFFFFF AND DUP2 PUSH20 0xFFFFFFFFFFFFFFFFFFFFFFFFFFFFFFFFFFFFFFFF AND SUB PUSH2 0x156C JUMPI PUSH1 0x0 PUSH1 0x40 MLOAD PUSH32 0x1E4FBDF700000000000000000000000000000000000000000000000000000000 DUP2 MSTORE PUSH1 0x4 ADD PUSH2 0x1563 SWAP2 SWAP1 PUSH2 0x27D0 JUMP JUMPDEST PUSH1 0x40 MLOAD DUP1 SWAP2 SUB SWAP1 REVERT JUMPDEST PUSH2 0x1575 DUP2 PUSH2 0x15FF JUMP JUMPDEST POP JUMP JUMPDEST PUSH2 0x1580 PUSH2 0x18A3 JUMP JUMPDEST PUSH20 0xFFFFFFFFFFFFFFFFFFFFFFFFFFFFFFFFFFFFFFFF AND PUSH2 0x159E PUSH2 0x12D7 JUMP JUMPDEST PUSH20 0xFFFFFFFFFFFFFFFFFFFFFFFFFFFFFFFFFFFFFFFF AND EQ PUSH2 0x15FD JUMPI PUSH2 0x15C1 PUSH2 0x18A3 JUMP JUMPDEST PUSH1 0x40 MLOAD PUSH32 0x118CDAA700000000000000000000000000000000000000000000000000000000 DUP2 MSTORE PUSH1 0x4 ADD PUSH2 0x15F4 SWAP2 SWAP1 PUSH2 0x27D0 JUMP JUMPDEST PUSH1 0x40 MLOAD DUP1 SWAP2 SUB SWAP1 REVERT JUMPDEST JUMP JUMPDEST PUSH1 0x0 PUSH1 0x2 PUSH1 0x0 SWAP1 SLOAD SWAP1 PUSH2 0x100 EXP SWAP1 DIV PUSH20 0xFFFFFFFFFFFFFFFFFFFFFFFFFFFFFFFFFFFFFFFF AND SWAP1 POP DUP2 PUSH1 0x2 PUSH1 0x0 PUSH2 0x100 EXP DUP2 SLOAD DUP2 PUSH20 0xFFFFFFFFFFFFFFFFFFFFFFFFFFFFFFFFFFFFFFFF MUL NOT AND SWAP1 DUP4 PUSH20 0xFFFFFFFFFFFFFFFFFFFFFFFFFFFFFFFFFFFFFFFF AND MUL OR SWAP1 SSTORE POP DUP2 PUSH20 0xFFFFFFFFFFFFFFFFFFFFFFFFFFFFFFFFFFFFFFFF AND DUP2 PUSH20 0xFFFFFFFFFFFFFFFFFFFFFFFFFFFFFFFFFFFFFFFF AND PUSH32 0x8BE0079C531659141344CD1FD0A4F28419497F9722A3DAAFE3B4186F6B6457E0 PUSH1 0x40 MLOAD PUSH1 0x40 MLOAD DUP1 SWAP2 SUB SWAP1 LOG3 POP POP JUMP JUMPDEST PUSH1 0x0 DUP1 PUSH1 0x0 PUSH9 0x10000000000000001 PUSH20 0xFFFFFFFFFFFFFFFFFFFFFFFFFFFFFFFFFFFFFFFF AND PUSH1 0x40 MLOAD PUSH1 0x24 ADD PUSH1 0x40 MLOAD PUSH1 0x20 DUP2 DUP4 SUB SUB DUP2 MSTORE SWAP1 PUSH1 0x40 MSTORE PUSH32 0x53E87D6600000000000000000000000000000000000000000000000000000000 PUSH28 0xFFFFFFFFFFFFFFFFFFFFFFFFFFFFFFFFFFFFFFFFFFFFFFFFFFFFFFFF NOT AND PUSH1 0x20 DUP3 ADD DUP1 MLOAD PUSH28 0xFFFFFFFFFFFFFFFFFFFFFFFFFFFFFFFFFFFFFFFFFFFFFFFFFFFFFFFF DUP4 DUP2 DUP4 AND OR DUP4 MSTORE POP POP POP POP PUSH1 0x40 MLOAD PUSH2 0x177A SWAP2 SWAP1 PUSH2 0x2E49 JUMP JUMPDEST PUSH1 0x0 PUSH1 0x40 MLOAD DUP1 DUP4 SUB DUP2 DUP6 GAS STATICCALL SWAP2 POP POP RETURNDATASIZE DUP1 PUSH1 0x0 DUP2 EQ PUSH2 0x17B5 JUMPI PUSH1 0x40 MLOAD SWAP2 POP PUSH1 0x1F NOT PUSH1 0x3F RETURNDATASIZE ADD AND DUP3 ADD PUSH1 0x40 MSTORE RETURNDATASIZE DUP3 MSTORE RETURNDATASIZE PUSH1 0x0 PUSH1 0x20 DUP5 ADD RETURNDATACOPY PUSH2 0x17BA JUMP JUMPDEST PUSH1 0x60 SWAP2 POP JUMPDEST POP SWAP2 POP SWAP2 POP DUP2 PUSH2 0x17FF JUMPI PUSH1 0x40 MLOAD PUSH32 0x8C379A000000000000000000000000000000000000000000000000000000000 DUP2 MSTORE PUSH1 0x4 ADD PUSH2 0x17F6 SWAP1 PUSH2 0x2EF8 JUMP JUMPDEST PUSH1 0x40 MLOAD DUP1 SWAP2 SUB SWAP1 REVERT JUMPDEST PUSH1 0x0 DUP2 DUP1 PUSH1 0x20 ADD SWAP1 MLOAD DUP2 ADD SWAP1 PUSH2 0x1815 SWAP2 SWAP1 PUSH2 0x2F2D JUMP JUMPDEST SWAP1 POP DUP1 SWAP4 POP POP POP POP SWAP1 JUMP JUMPDEST PUSH1 0x0 DUP1 PUSH2 0x182B PUSH2 0x18AB JUMP JUMPDEST PUSH1 0x40 MLOAD PUSH1 0x20 ADD PUSH2 0x183B SWAP2 SWAP1 PUSH2 0x2F7B JUMP JUMPDEST PUSH1 0x40 MLOAD PUSH1 0x20 DUP2 DUP4 SUB SUB DUP2 MSTORE SWAP1 PUSH1 0x40 MSTORE SWAP1 POP PUSH1 0x0 NUMBER PUSH1 0x40 MLOAD PUSH1 0x20 ADD PUSH2 0x185F SWAP2 SWAP1 PUSH2 0x2F7B JUMP JUMPDEST PUSH1 0x40 MLOAD PUSH1 0x20 DUP2 DUP4 SUB SUB DUP2 MSTORE SWAP1 PUSH1 0x40 MSTORE SWAP1 POP PUSH2 0x1878 PUSH2 0x1F8D JUMP JUMPDEST PUSH2 0x188D DUP4 DUP4 DUP4 PUSH2 0x1917 SWAP1 SWAP3 SWAP2 SWAP1 PUSH4 0xFFFFFFFF AND JUMP JUMPDEST PUSH2 0x1898 DUP2 DUP8 DUP8 PUSH2 0x1A30 JUMP JUMPDEST SWAP4 POP POP POP POP SWAP3 SWAP2 POP POP JUMP JUMPDEST PUSH1 0x0 CALLER SWAP1 POP SWAP1 JUMP JUMPDEST PUSH1 0x0 DUP1 PUSH2 0x18B6 PUSH2 0x1B6F JUMP JUMPDEST PUSH8 0xFFFFFFFFFFFFFFFF AND SWAP1 POP PUSH1 0x40 PUSH2 0x18CC PUSH2 0x1B6F JUMP JUMPDEST PUSH8 0xFFFFFFFFFFFFFFFF AND SWAP1 SHL DUP2 OR SWAP1 POP PUSH1 0x80 PUSH2 0x18E6 PUSH2 0x1B6F JUMP JUMPDEST PUSH8 0xFFFFFFFFFFFFFFFF AND SWAP1 SHL DUP2 OR SWAP1 POP PUSH1 0xC0 PUSH2 0x1900 PUSH2 0x1B6F JUMP JUMPDEST PUSH8 0xFFFFFFFFFFFFFFFF AND SWAP1 SHL DUP2 OR SWAP1 POP DUP1 SWAP2 POP POP SWAP1 JUMP JUMPDEST PUSH1 0x10 DUP3 MLOAD LT ISZERO PUSH2 0x195C JUMPI PUSH1 0x40 MLOAD PUSH32 0x8C379A000000000000000000000000000000000000000000000000000000000 DUP2 MSTORE PUSH1 0x4 ADD PUSH2 0x1953 SWAP1 PUSH2 0x302E JUMP JUMPDEST PUSH1 0x40 MLOAD DUP1 SWAP2 SUB SWAP1 REVERT JUMPDEST PUSH1 0x0 DUP3 DUP3 PUSH1 0x40 MLOAD PUSH1 0x20 ADD PUSH2 0x1971 SWAP3 SWAP2 SWAP1 PUSH2 0x304E JUMP JUMPDEST PUSH1 0x40 MLOAD PUSH1 0x20 DUP2 DUP4 SUB SUB DUP2 MSTORE SWAP1 PUSH1 0x40 MSTORE SWAP1 POP PUSH1 0x0 DUP2 DUP1 MLOAD SWAP1 PUSH1 0x20 ADD KECCAK256 SWAP1 POP PUSH2 0x19B8 DUP2 PUSH1 0x40 MLOAD PUSH1 0x20 ADD PUSH2 0x19A2 SWAP2 SWAP1 PUSH2 0x309D JUMP JUMPDEST PUSH1 0x40 MLOAD PUSH1 0x20 DUP2 DUP4 SUB SUB DUP2 MSTORE SWAP1 PUSH1 0x40 MSTORE PUSH1 0x0 PUSH2 0x1CCA JUMP JUMPDEST DUP6 PUSH1 0x0 ADD SWAP1 PUSH8 0xFFFFFFFFFFFFFFFF AND SWAP1 DUP2 PUSH8 0xFFFFFFFFFFFFFFFF AND DUP2 MSTORE POP POP PUSH2 0x1A01 DUP2 PUSH1 0x40 MLOAD PUSH1 0x20 ADD PUSH2 0x19EB SWAP2 SWAP1 PUSH2 0x309D JUMP JUMPDEST PUSH1 0x40 MLOAD PUSH1 0x20 DUP2 DUP4 SUB SUB DUP2 MSTORE SWAP1 PUSH1 0x40 MSTORE PUSH1 0x8 PUSH2 0x1CCA JUMP JUMPDEST DUP6 PUSH1 0x20 ADD SWAP1 PUSH8 0xFFFFFFFFFFFFFFFF AND SWAP1 DUP2 PUSH8 0xFFFFFFFFFFFFFFFF AND DUP2 MSTORE POP POP PUSH2 0x1A29 DUP6 PUSH2 0x1D82 JUMP JUMPDEST POP POP POP POP POP JUMP JUMPDEST PUSH1 0x0 DUP3 PUSH8 0xFFFFFFFFFFFFFFFF AND DUP3 PUSH8 0xFFFFFFFFFFFFFFFF AND GT PUSH2 0x1A88 JUMPI PUSH1 0x40 MLOAD PUSH32 0x8C379A000000000000000000000000000000000000000000000000000000000 DUP2 MSTORE PUSH1 0x4 ADD PUSH2 0x1A7F SWAP1 PUSH2 0x3104 JUMP JUMPDEST PUSH1 0x40 MLOAD DUP1 SWAP2 SUB SWAP1 REVERT JUMPDEST PUSH1 0x0 DUP4 DUP4 PUSH2 0x1A96 SWAP2 SWAP1 PUSH2 0x3124 JUMP JUMPDEST SWAP1 POP PUSH1 0x0 PUSH2 0x1AA3 DUP3 PUSH2 0x1DF1 JUMP JUMPDEST SWAP1 POP PUSH1 0x0 PUSH1 0x1 DUP3 PUSH8 0xFFFFFFFFFFFFFFFF AND PUSH1 0x1 SWAP1 SHL PUSH2 0x1AC2 SWAP2 SWAP1 PUSH2 0x29A3 JUMP JUMPDEST SWAP1 POP PUSH1 0x0 DUP3 PUSH2 0x100 PUSH2 0x1AD4 SWAP2 SWAP1 PUSH2 0x318F JUMP JUMPDEST PUSH8 0xFFFFFFFFFFFFFFFF AND SWAP1 POP PUSH1 0x0 DUP1 PUSH1 0x0 PUSH2 0x1AEE DUP12 PUSH2 0x1E39 JUMP JUMPDEST SWAP1 POP JUMPDEST PUSH1 0x1 ISZERO PUSH2 0x1B53 JUMPI DUP5 DUP2 AND SWAP2 POP DUP7 PUSH8 0xFFFFFFFFFFFFFFFF AND DUP3 PUSH8 0xFFFFFFFFFFFFFFFF AND GT ISZERO PUSH2 0x1B53 JUMPI DUP6 PUSH8 0xFFFFFFFFFFFFFFFF AND DUP2 SWAP1 SHR SWAP1 POP DUP3 DUP1 PUSH2 0x1B34 SWAP1 PUSH2 0x2DC5 JUMP JUMPDEST SWAP4 POP POP DUP4 DUP4 SUB PUSH2 0x1B4E JUMPI PUSH2 0x1B47 DUP12 PUSH2 0x1E39 JUMP JUMPDEST SWAP1 POP PUSH1 0x0 SWAP3 POP JUMPDEST PUSH2 0x1AF1 JUMP JUMPDEST DUP2 DUP11 PUSH2 0x1B5F SWAP2 SWAP1 PUSH2 0x31C0 JUMP JUMPDEST SWAP8 POP POP POP POP POP POP POP POP SWAP4 SWAP3 POP POP POP JUMP JUMPDEST PUSH1 0x0 DUP1 PUSH1 0x0 PUSH9 0x10000000000000001 PUSH20 0xFFFFFFFFFFFFFFFFFFFFFFFFFFFFFFFFFFFFFFFF AND PUSH1 0x40 MLOAD PUSH1 0x24 ADD PUSH1 0x40 MLOAD PUSH1 0x20 DUP2 DUP4 SUB SUB DUP2 MSTORE SWAP1 PUSH1 0x40 MSTORE PUSH32 0x705FAB2000000000000000000000000000000000000000000000000000000000 PUSH28 0xFFFFFFFFFFFFFFFFFFFFFFFFFFFFFFFFFFFFFFFFFFFFFFFFFFFFFFFF NOT AND PUSH1 0x20 DUP3 ADD DUP1 MLOAD PUSH28 0xFFFFFFFFFFFFFFFFFFFFFFFFFFFFFFFFFFFFFFFFFFFFFFFFFFFFFFFF DUP4 DUP2 DUP4 AND OR DUP4 MSTORE POP POP POP POP PUSH1 0x40 MLOAD PUSH2 0x1C24 SWAP2 SWAP1 PUSH2 0x2E49 JUMP JUMPDEST PUSH1 0x0 PUSH1 0x40 MLOAD DUP1 DUP4 SUB DUP2 DUP6 GAS STATICCALL SWAP2 POP POP RETURNDATASIZE DUP1 PUSH1 0x0 DUP2 EQ PUSH2 0x1C5F JUMPI PUSH1 0x40 MLOAD SWAP2 POP PUSH1 0x1F NOT PUSH1 0x3F RETURNDATASIZE ADD AND DUP3 ADD PUSH1 0x40 MSTORE RETURNDATASIZE DUP3 MSTORE RETURNDATASIZE PUSH1 0x0 PUSH1 0x20 DUP5 ADD RETURNDATACOPY PUSH2 0x1C64 JUMP JUMPDEST PUSH1 0x60 SWAP2 POP JUMPDEST POP SWAP2 POP SWAP2 POP DUP2 PUSH2 0x1CA9 JUMPI PUSH1 0x40 MLOAD PUSH32 0x8C379A000000000000000000000000000000000000000000000000000000000 DUP2 MSTORE PUSH1 0x4 ADD PUSH2 0x1CA0 SWAP1 PUSH2 0x3294 JUMP JUMPDEST PUSH1 0x40 MLOAD DUP1 SWAP2 SUB SWAP1 REVERT JUMPDEST PUSH1 0x0 DUP2 DUP1 PUSH1 0x20 ADD SWAP1 MLOAD DUP2 ADD SWAP1 PUSH2 0x1CBF SWAP2 SWAP1 PUSH2 0x2F2D JUMP JUMPDEST SWAP1 POP DUP1 SWAP4 POP POP POP POP SWAP1 JUMP JUMPDEST PUSH1 0x0 PUSH1 0x8 DUP3 PUSH2 0x1CD9 SWAP2 SWAP1 PUSH2 0x32B4 JUMP JUMPDEST DUP4 MLOAD LT ISZERO PUSH2 0x1D1C JUMPI PUSH1 0x40 MLOAD PUSH32 0x8C379A000000000000000000000000000000000000000000000000000000000 DUP2 MSTORE PUSH1 0x4 ADD PUSH2 0x1D13 SWAP1 PUSH2 0x3334 JUMP JUMPDEST PUSH1 0x40 MLOAD DUP1 SWAP2 SUB SWAP1 REVERT JUMPDEST PUSH1 0x0 DUP1 JUMPDEST PUSH1 0x8 DUP2 LT ISZERO PUSH2 0x1D77 JUMPI DUP5 DUP2 DUP6 PUSH2 0x1D36 SWAP2 SWAP1 PUSH2 0x32B4 JUMP JUMPDEST DUP2 MLOAD DUP2 LT PUSH2 0x1D47 JUMPI PUSH2 0x1D46 PUSH2 0x2945 JUMP JUMPDEST JUMPDEST PUSH1 0x20 ADD ADD MLOAD PUSH1 0xF8 SHR PUSH1 0xF8 SHL PUSH1 0xF8 SHR PUSH1 0xFF AND PUSH1 0x8 DUP4 PUSH8 0xFFFFFFFFFFFFFFFF AND SWAP1 SHL OR SWAP2 POP DUP1 DUP1 PUSH1 0x1 ADD SWAP2 POP POP PUSH2 0x1D20 JUMP JUMPDEST POP DUP1 SWAP2 POP POP SWAP3 SWAP2 POP POP JUMP JUMPDEST PUSH1 0x0 DUP2 PUSH1 0x0 ADD MLOAD PUSH8 0xFFFFFFFFFFFFFFFF AND EQ ISZERO DUP1 PUSH2 0x1DAF JUMPI POP PUSH1 0x0 DUP2 PUSH1 0x20 ADD MLOAD PUSH8 0xFFFFFFFFFFFFFFFF AND EQ ISZERO JUMPDEST PUSH2 0x1DEE JUMPI PUSH1 0x40 MLOAD PUSH32 0x8C379A000000000000000000000000000000000000000000000000000000000 DUP2 MSTORE PUSH1 0x4 ADD PUSH2 0x1DE5 SWAP1 PUSH2 0x33C6 JUMP JUMPDEST PUSH1 0x40 MLOAD DUP1 SWAP2 SUB SWAP1 REVERT JUMPDEST POP JUMP JUMPDEST PUSH1 0x0 DUP1 PUSH1 0x0 SWAP1 POP JUMPDEST PUSH1 0x0 DUP4 PUSH8 0xFFFFFFFFFFFFFFFF AND GT ISZERO PUSH2 0x1E30 JUMPI PUSH1 0x1 DUP4 PUSH8 0xFFFFFFFFFFFFFFFF AND SWAP1 SHR SWAP3 POP DUP1 DUP1 PUSH2 0x1E28 SWAP1 PUSH2 0x33E6 JUMP JUMPDEST SWAP2 POP POP PUSH2 0x1DF9 JUMP JUMPDEST DUP1 SWAP2 POP POP SWAP2 SWAP1 POP JUMP JUMPDEST PUSH1 0x0 DUP1 PUSH2 0x1E45 DUP4 PUSH2 0x1EAB JUMP JUMPDEST PUSH8 0xFFFFFFFFFFFFFFFF AND SWAP1 POP PUSH1 0x40 PUSH2 0x1E5C DUP5 PUSH2 0x1EAB JUMP JUMPDEST PUSH8 0xFFFFFFFFFFFFFFFF AND SWAP1 SHL DUP2 OR SWAP1 POP PUSH1 0x80 PUSH2 0x1E77 DUP5 PUSH2 0x1EAB JUMP JUMPDEST PUSH8 0xFFFFFFFFFFFFFFFF AND SWAP1 SHL DUP2 OR SWAP1 POP PUSH1 0xC0 PUSH2 0x1E92 DUP5 PUSH2 0x1EAB JUMP JUMPDEST PUSH8 0xFFFFFFFFFFFFFFFF AND SWAP1 SHL DUP2 OR SWAP1 POP DUP1 SWAP2 POP POP SWAP2 SWAP1 POP JUMP JUMPDEST PUSH1 0x0 PUSH2 0x1EB6 DUP3 PUSH2 0x1D82 JUMP JUMPDEST PUSH1 0x0 DUP3 PUSH1 0x0 ADD MLOAD SWAP1 POP PUSH1 0x0 DUP4 PUSH1 0x20 ADD MLOAD SWAP1 POP DUP1 DUP5 PUSH1 0x0 ADD SWAP1 PUSH8 0xFFFFFFFFFFFFFFFF AND SWAP1 DUP2 PUSH8 0xFFFFFFFFFFFFFFFF AND DUP2 MSTORE POP POP PUSH1 0x17 DUP3 PUSH8 0xFFFFFFFFFFFFFFFF AND SWAP1 SHL DUP3 XOR SWAP2 POP PUSH1 0x11 DUP3 PUSH8 0xFFFFFFFFFFFFFFFF AND SWAP1 SHR DUP3 XOR SWAP2 POP PUSH1 0x1A DUP2 PUSH8 0xFFFFFFFFFFFFFFFF AND SWAP1 SHR DUP2 XOR DUP3 XOR SWAP2 POP DUP2 DUP5 PUSH1 0x20 ADD SWAP1 PUSH8 0xFFFFFFFFFFFFFFFF AND SWAP1 DUP2 PUSH8 0xFFFFFFFFFFFFFFFF AND DUP2 MSTORE POP POP DUP1 DUP3 ADD SWAP3 POP POP POP SWAP2 SWAP1 POP JUMP JUMPDEST PUSH1 0x40 MLOAD DUP1 PUSH1 0x80 ADD PUSH1 0x40 MSTORE DUP1 PUSH1 0x0 DUP2 MSTORE PUSH1 0x20 ADD PUSH1 0x0 PUSH20 0xFFFFFFFFFFFFFFFFFFFFFFFFFFFFFFFFFFFFFFFF AND DUP2 MSTORE PUSH1 0x20 ADD PUSH1 0x0 DUP2 MSTORE PUSH1 0x20 ADD PUSH1 0x0 DUP2 MSTORE POP SWAP1 JUMP JUMPDEST PUSH1 0x40 MLOAD DUP1 PUSH1 0x40 ADD PUSH1 0x40 MSTORE DUP1 PUSH1 0x0 PUSH8 0xFFFFFFFFFFFFFFFF AND DUP2 MSTORE PUSH1 0x20 ADD PUSH1 0x0 PUSH8 0xFFFFFFFFFFFFFFFF AND DUP2 MSTORE POP SWAP1 JUMP JUMPDEST PUSH1 0x0 PUSH1 0x40 MLOAD SWAP1 POP SWAP1 JUMP JUMPDEST PUSH1 0x0 DUP1 REVERT JUMPDEST PUSH1 0x0 DUP1 REVERT JUMPDEST PUSH1 0x0 DUP2 SWAP1 POP SWAP2 SWAP1 POP JUMP JUMPDEST PUSH2 0x1FE2 DUP2 PUSH2 0x1FCF JUMP JUMPDEST DUP2 EQ PUSH2 0x1FED JUMPI PUSH1 0x0 DUP1 REVERT JUMPDEST POP JUMP JUMPDEST PUSH1 0x0 DUP2 CALLDATALOAD SWAP1 POP PUSH2 0x1FFF DUP2 PUSH2 0x1FD9 JUMP JUMPDEST SWAP3 SWAP2 POP POP JUMP JUMPDEST PUSH1 0x0 PUSH1 0x20 DUP3 DUP5 SUB SLT ISZERO PUSH2 0x201B JUMPI PUSH2 0x201A PUSH2 0x1FC5 JUMP JUMPDEST JUMPDEST PUSH1 0x0 PUSH2 0x2029 DUP5 DUP3 DUP6 ADD PUSH2 0x1FF0 JUMP JUMPDEST SWAP2 POP POP SWAP3 SWAP2 POP POP JUMP JUMPDEST PUSH1 0x0 DUP1 REVERT JUMPDEST PUSH1 0x0 DUP1 REVERT JUMPDEST PUSH1 0x0 DUP1 REVERT JUMPDEST PUSH1 0x0 DUP1 DUP4 PUSH1 0x1F DUP5 ADD SLT PUSH2 0x2057 JUMPI PUSH2 0x2056 PUSH2 0x2032 JUMP JUMPDEST JUMPDEST DUP3 CALLDATALOAD SWAP1 POP PUSH8 0xFFFFFFFFFFFFFFFF DUP2 GT ISZERO PUSH2 0x2074 JUMPI PUSH2 0x2073 PUSH2 0x2037 JUMP JUMPDEST JUMPDEST PUSH1 0x20 DUP4 ADD SWAP2 POP DUP4 PUSH1 0x20 DUP3 MUL DUP4 ADD GT ISZERO PUSH2 0x2090 JUMPI PUSH2 0x208F PUSH2 0x203C JUMP JUMPDEST JUMPDEST SWAP3 POP SWAP3 SWAP1 POP JUMP JUMPDEST PUSH1 0x0 DUP1 PUSH1 0x20 DUP4 DUP6 SUB SLT ISZERO PUSH2 0x20AE JUMPI PUSH2 0x20AD PUSH2 0x1FC5 JUMP JUMPDEST JUMPDEST PUSH1 0x0 DUP4 ADD CALLDATALOAD PUSH8 0xFFFFFFFFFFFFFFFF DUP2 GT ISZERO PUSH2 0x20CC JUMPI PUSH2 0x20CB PUSH2 0x1FCA JUMP JUMPDEST JUMPDEST PUSH2 0x20D8 DUP6 DUP3 DUP7 ADD PUSH2 0x2041 JUMP JUMPDEST SWAP3 POP SWAP3 POP POP SWAP3 POP SWAP3 SWAP1 POP JUMP JUMPDEST PUSH1 0x0 DUP2 MLOAD SWAP1 POP SWAP2 SWAP1 POP JUMP JUMPDEST PUSH1 0x0 DUP3 DUP3 MSTORE PUSH1 0x20 DUP3 ADD SWAP1 POP SWAP3 SWAP2 POP POP JUMP JUMPDEST PUSH1 0x0 JUMPDEST DUP4 DUP2 LT ISZERO PUSH2 0x211E JUMPI DUP1 DUP3 ADD MLOAD DUP2 DUP5 ADD MSTORE PUSH1 0x20 DUP2 ADD SWAP1 POP PUSH2 0x2103 JUMP JUMPDEST PUSH1 0x0 DUP5 DUP5 ADD MSTORE POP POP POP POP JUMP JUMPDEST PUSH1 0x0 PUSH1 0x1F NOT PUSH1 0x1F DUP4 ADD AND SWAP1 POP SWAP2 SWAP1 POP JUMP JUMPDEST PUSH1 0x0 PUSH2 0x2146 DUP3 PUSH2 0x20E4 JUMP JUMPDEST PUSH2 0x2150 DUP2 DUP6 PUSH2 0x20EF JUMP JUMPDEST SWAP4 POP PUSH2 0x2160 DUP2 DUP6 PUSH1 0x20 DUP7 ADD PUSH2 0x2100 JUMP JUMPDEST PUSH2 0x2169 DUP2 PUSH2 0x212A JUMP JUMPDEST DUP5 ADD SWAP2 POP POP SWAP3 SWAP2 POP POP JUMP JUMPDEST PUSH1 0x0 PUSH1 0x20 DUP3 ADD SWAP1 POP DUP2 DUP2 SUB PUSH1 0x0 DUP4 ADD MSTORE PUSH2 0x218E DUP2 DUP5 PUSH2 0x213B JUMP JUMPDEST SWAP1 POP SWAP3 SWAP2 POP POP JUMP JUMPDEST PUSH1 0x0 PUSH20 0xFFFFFFFFFFFFFFFFFFFFFFFFFFFFFFFFFFFFFFFF DUP3 AND SWAP1 POP SWAP2 SWAP1 POP JUMP JUMPDEST PUSH1 0x0 PUSH2 0x21C1 DUP3 PUSH2 0x2196 JUMP JUMPDEST SWAP1 POP SWAP2 SWAP1 POP JUMP JUMPDEST PUSH2 0x21D1 DUP2 PUSH2 0x21B6 JUMP JUMPDEST DUP2 EQ PUSH2 0x21DC JUMPI PUSH1 0x0 DUP1 REVERT JUMPDEST POP JUMP JUMPDEST PUSH1 0x0 DUP2 CALLDATALOAD SWAP1 POP PUSH2 0x21EE DUP2 PUSH2 0x21C8 JUMP JUMPDEST SWAP3 SWAP2 POP POP JUMP JUMPDEST PUSH1 0x0 DUP1 REVERT JUMPDEST PUSH32 0x4E487B7100000000000000000000000000000000000000000000000000000000 PUSH1 0x0 MSTORE PUSH1 0x41 PUSH1 0x4 MSTORE PUSH1 0x24 PUSH1 0x0 REVERT JUMPDEST PUSH2 0x2231 DUP3 PUSH2 0x212A JUMP JUMPDEST DUP2 ADD DUP2 DUP2 LT PUSH8 0xFFFFFFFFFFFFFFFF DUP3 GT OR ISZERO PUSH2 0x2250 JUMPI PUSH2 0x224F PUSH2 0x21F9 JUMP JUMPDEST JUMPDEST DUP1 PUSH1 0x40 MSTORE POP POP POP JUMP JUMPDEST PUSH1 0x0 PUSH2 0x2263 PUSH2 0x1FBB JUMP JUMPDEST SWAP1 POP PUSH2 0x226F DUP3 DUP3 PUSH2 0x2228 JUMP JUMPDEST SWAP2 SWAP1 POP JUMP JUMPDEST PUSH1 0x0 PUSH8 0xFFFFFFFFFFFFFFFF DUP3 GT ISZERO PUSH2 0x228F JUMPI PUSH2 0x228E PUSH2 0x21F9 JUMP JUMPDEST JUMPDEST PUSH2 0x2298 DUP3 PUSH2 0x212A JUMP JUMPDEST SWAP1 POP PUSH1 0x20 DUP2 ADD SWAP1 POP SWAP2 SWAP1 POP JUMP JUMPDEST DUP3 DUP2 DUP4 CALLDATACOPY PUSH1 0x0 DUP4 DUP4 ADD MSTORE POP POP POP JUMP JUMPDEST PUSH1 0x0 PUSH2 0x22C7 PUSH2 0x22C2 DUP5 PUSH2 0x2274 JUMP JUMPDEST PUSH2 0x2259 JUMP JUMPDEST SWAP1 POP DUP3 DUP2 MSTORE PUSH1 0x20 DUP2 ADD DUP5 DUP5 DUP5 ADD GT ISZERO PUSH2 0x22E3 JUMPI PUSH2 0x22E2 PUSH2 0x21F4 JUMP JUMPDEST JUMPDEST PUSH2 0x22EE DUP5 DUP3 DUP6 PUSH2 0x22A5 JUMP JUMPDEST POP SWAP4 SWAP3 POP POP POP JUMP JUMPDEST PUSH1 0x0 DUP3 PUSH1 0x1F DUP4 ADD SLT PUSH2 0x230B JUMPI PUSH2 0x230A PUSH2 0x2032 JUMP JUMPDEST JUMPDEST DUP2 CALLDATALOAD PUSH2 0x231B DUP5 DUP3 PUSH1 0x20 DUP7 ADD PUSH2 0x22B4 JUMP JUMPDEST SWAP2 POP POP SWAP3 SWAP2 POP POP JUMP JUMPDEST PUSH1 0x0 DUP1 PUSH1 0x0 DUP1 PUSH1 0x80 DUP6 DUP8 SUB SLT ISZERO PUSH2 0x233E JUMPI PUSH2 0x233D PUSH2 0x1FC5 JUMP JUMPDEST JUMPDEST PUSH1 0x0 PUSH2 0x234C DUP8 DUP3 DUP9 ADD PUSH2 0x21DF JUMP JUMPDEST SWAP5 POP POP PUSH1 0x20 PUSH2 0x235D DUP8 DUP3 DUP9 ADD PUSH2 0x21DF JUMP JUMPDEST SWAP4 POP POP PUSH1 0x40 PUSH2 0x236E DUP8 DUP3 DUP9 ADD PUSH2 0x1FF0 JUMP JUMPDEST SWAP3 POP POP PUSH1 0x60 DUP6 ADD CALLDATALOAD PUSH8 0xFFFFFFFFFFFFFFFF DUP2 GT ISZERO PUSH2 0x238F JUMPI PUSH2 0x238E PUSH2 0x1FCA JUMP JUMPDEST JUMPDEST PUSH2 0x239B DUP8 DUP3 DUP9 ADD PUSH2 0x22F6 JUMP JUMPDEST SWAP2 POP POP SWAP3 SWAP6 SWAP2 SWAP5 POP SWAP3 POP JUMP JUMPDEST PUSH1 0x0 PUSH32 0xFFFFFFFF00000000000000000000000000000000000000000000000000000000 DUP3 AND SWAP1 POP SWAP2 SWAP1 POP JUMP JUMPDEST PUSH2 0x23DC DUP2 PUSH2 0x23A7 JUMP JUMPDEST DUP3 MSTORE POP POP JUMP JUMPDEST PUSH1 0x0 PUSH1 0x20 DUP3 ADD SWAP1 POP PUSH2 0x23F7 PUSH1 0x0 DUP4 ADD DUP5 PUSH2 0x23D3 JUMP JUMPDEST SWAP3 SWAP2 POP POP JUMP JUMPDEST PUSH1 0x0 DUP1 DUP4 PUSH1 0x1F DUP5 ADD SLT PUSH2 0x2413 JUMPI PUSH2 0x2412 PUSH2 0x2032 JUMP JUMPDEST JUMPDEST DUP3 CALLDATALOAD SWAP1 POP PUSH8 0xFFFFFFFFFFFFFFFF DUP2 GT ISZERO PUSH2 0x2430 JUMPI PUSH2 0x242F PUSH2 0x2037 JUMP JUMPDEST JUMPDEST PUSH1 0x20 DUP4 ADD SWAP2 POP DUP4 PUSH1 0x20 DUP3 MUL DUP4 ADD GT ISZERO PUSH2 0x244C JUMPI PUSH2 0x244B PUSH2 0x203C JUMP JUMPDEST JUMPDEST SWAP3 POP SWAP3 SWAP1 POP JUMP JUMPDEST PUSH1 0x0 DUP1 PUSH1 0x20 DUP4 DUP6 SUB SLT ISZERO PUSH2 0x246A JUMPI PUSH2 0x2469 PUSH2 0x1FC5 JUMP JUMPDEST JUMPDEST PUSH1 0x0 DUP4 ADD CALLDATALOAD PUSH8 0xFFFFFFFFFFFFFFFF DUP2 GT ISZERO PUSH2 0x2488 JUMPI PUSH2 0x2487 PUSH2 0x1FCA JUMP JUMPDEST JUMPDEST PUSH2 0x2494 DUP6 DUP3 DUP7 ADD PUSH2 0x23FD JUMP JUMPDEST SWAP3 POP SWAP3 POP POP SWAP3 POP SWAP3 SWAP1 POP JUMP JUMPDEST PUSH2 0x24A9 DUP2 PUSH2 0x1FCF JUMP JUMPDEST DUP3 MSTORE POP POP JUMP JUMPDEST PUSH2 0x24B8 DUP2 PUSH2 0x21B6 JUMP JUMPDEST DUP3 MSTORE POP POP JUMP JUMPDEST PUSH1 0x0 PUSH1 0x80 DUP3 ADD SWAP1 POP PUSH2 0x24D3 PUSH1 0x0 DUP4 ADD DUP8 PUSH2 0x24A0 JUMP JUMPDEST PUSH2 0x24E0 PUSH1 0x20 DUP4 ADD DUP7 PUSH2 0x24AF JUMP JUMPDEST PUSH2 0x24ED PUSH1 0x40 DUP4 ADD DUP6 PUSH2 0x24A0 JUMP JUMPDEST PUSH2 0x24FA PUSH1 0x60 DUP4 ADD DUP5 PUSH2 0x24A0 JUMP JUMPDEST SWAP6 SWAP5 POP POP POP POP POP JUMP JUMPDEST PUSH2 0x250C DUP2 PUSH2 0x1FCF JUMP JUMPDEST DUP3 MSTORE POP POP JUMP JUMPDEST PUSH2 0x251B DUP2 PUSH2 0x21B6 JUMP JUMPDEST DUP3 MSTORE POP POP JUMP JUMPDEST PUSH1 0x80 DUP3 ADD PUSH1 0x0 DUP3 ADD MLOAD PUSH2 0x2537 PUSH1 0x0 DUP6 ADD DUP3 PUSH2 0x2503 JUMP JUMPDEST POP PUSH1 0x20 DUP3 ADD MLOAD PUSH2 0x254A PUSH1 0x20 DUP6 ADD DUP3 PUSH2 0x2512 JUMP JUMPDEST POP PUSH1 0x40 DUP3 ADD MLOAD PUSH2 0x255D PUSH1 0x40 DUP6 ADD DUP3 PUSH2 0x2503 JUMP JUMPDEST POP PUSH1 0x60 DUP3 ADD MLOAD PUSH2 0x2570 PUSH1 0x60 DUP6 ADD DUP3 PUSH2 0x2503 JUMP JUMPDEST POP POP POP POP JUMP JUMPDEST PUSH1 0x0 PUSH1 0x80 DUP3 ADD SWAP1 POP PUSH2 0x258B PUSH1 0x0 DUP4 ADD DUP5 PUSH2 0x2521 JUMP JUMPDEST SWAP3 SWAP2 POP POP JUMP JUMPDEST PUSH1 0x0 DUP2 MLOAD SWAP1 POP SWAP2 SWAP1 POP JUMP JUMPDEST PUSH1 0x0 DUP3 DUP3 MSTORE PUSH1 0x20 DUP3 ADD SWAP1 POP SWAP3 SWAP2 POP POP JUMP JUMPDEST PUSH1 0x0 DUP2 SWAP1 POP PUSH1 0x20 DUP3 ADD SWAP1 POP SWAP2 SWAP1 POP JUMP JUMPDEST PUSH1 0x0 PUSH2 0x25C9 DUP4 DUP4 PUSH2 0x2503 JUMP JUMPDEST PUSH1 0x20 DUP4 ADD SWAP1 POP SWAP3 SWAP2 POP POP JUMP JUMPDEST PUSH1 0x0 PUSH1 0x20 DUP3 ADD SWAP1 POP SWAP2 SWAP1 POP JUMP JUMPDEST PUSH1 0x0 PUSH2 0x25ED DUP3 PUSH2 0x2591 JUMP JUMPDEST PUSH2 0x25F7 DUP2 DUP6 PUSH2 0x259C JUMP JUMPDEST SWAP4 POP PUSH2 0x2602 DUP4 PUSH2 0x25AD JUMP JUMPDEST DUP1 PUSH1 0x0 JUMPDEST DUP4 DUP2 LT ISZERO PUSH2 0x2633 JUMPI DUP2 MLOAD PUSH2 0x261A DUP9 DUP3 PUSH2 0x25BD JUMP JUMPDEST SWAP8 POP PUSH2 0x2625 DUP4 PUSH2 0x25D5 JUMP JUMPDEST SWAP3 POP POP PUSH1 0x1 DUP2 ADD SWAP1 POP PUSH2 0x2606 JUMP JUMPDEST POP DUP6 SWAP4 POP POP POP POP SWAP3 SWAP2 POP POP JUMP JUMPDEST PUSH1 0x0 PUSH1 0x20 DUP3 ADD SWAP1 POP DUP2 DUP2 SUB PUSH1 0x0 DUP4 ADD MSTORE PUSH2 0x265A DUP2 DUP5 PUSH2 0x25E2 JUMP JUMPDEST SWAP1 POP SWAP3 SWAP2 POP POP JUMP JUMPDEST PUSH1 0x0 PUSH1 0x20 DUP3 ADD SWAP1 POP PUSH2 0x2677 PUSH1 0x0 DUP4 ADD DUP5 PUSH2 0x24A0 JUMP JUMPDEST SWAP3 SWAP2 POP POP JUMP JUMPDEST PUSH1 0x0 PUSH1 0x20 DUP3 DUP5 SUB SLT ISZERO PUSH2 0x2693 JUMPI PUSH2 0x2692 PUSH2 0x1FC5 JUMP JUMPDEST JUMPDEST PUSH1 0x0 PUSH2 0x26A1 DUP5 DUP3 DUP6 ADD PUSH2 0x21DF JUMP JUMPDEST SWAP2 POP POP SWAP3 SWAP2 POP POP JUMP JUMPDEST PUSH1 0x0 DUP2 MLOAD SWAP1 POP SWAP2 SWAP1 POP JUMP JUMPDEST PUSH1 0x0 DUP3 DUP3 MSTORE PUSH1 0x20 DUP3 ADD SWAP1 POP SWAP3 SWAP2 POP POP JUMP JUMPDEST PUSH1 0x0 DUP2 SWAP1 POP PUSH1 0x20 DUP3 ADD SWAP1 POP SWAP2 SWAP1 POP JUMP JUMPDEST PUSH1 0x80 DUP3 ADD PUSH1 0x0 DUP3 ADD MLOAD PUSH2 0x26EC PUSH1 0x0 DUP6 ADD DUP3 PUSH2 0x2503 JUMP JUMPDEST POP PUSH1 0x20 DUP3 ADD MLOAD PUSH2 0x26FF PUSH1 0x20 DUP6 ADD DUP3 PUSH2 0x2512 JUMP JUMPDEST POP PUSH1 0x40 DUP3 ADD MLOAD PUSH2 0x2712 PUSH1 0x40 DUP6 ADD DUP3 PUSH2 0x2503 JUMP JUMPDEST POP PUSH1 0x60 DUP3 ADD MLOAD PUSH2 0x2725 PUSH1 0x60 DUP6 ADD DUP3 PUSH2 0x2503 JUMP JUMPDEST POP POP POP POP JUMP JUMPDEST PUSH1 0x0 PUSH2 0x2737 DUP4 DUP4 PUSH2 0x26D6 JUMP JUMPDEST PUSH1 0x80 DUP4 ADD SWAP1 POP SWAP3 SWAP2 POP POP JUMP JUMPDEST PUSH1 0x0 PUSH1 0x20 DUP3 ADD SWAP1 POP SWAP2 SWAP1 POP JUMP JUMPDEST PUSH1 0x0 PUSH2 0x275B DUP3 PUSH2 0x26AA JUMP JUMPDEST PUSH2 0x2765 DUP2 DUP6 PUSH2 0x26B5 JUMP JUMPDEST SWAP4 POP PUSH2 0x2770 DUP4 PUSH2 0x26C6 JUMP JUMPDEST DUP1 PUSH1 0x0 JUMPDEST DUP4 DUP2 LT ISZERO PUSH2 0x27A1 JUMPI DUP2 MLOAD PUSH2 0x2788 DUP9 DUP3 PUSH2 0x272B JUMP JUMPDEST SWAP8 POP PUSH2 0x2793 DUP4 PUSH2 0x2743 JUMP JUMPDEST SWAP3 POP POP PUSH1 0x1 DUP2 ADD SWAP1 POP PUSH2 0x2774 JUMP JUMPDEST POP DUP6 SWAP4 POP POP POP POP SWAP3 SWAP2 POP POP JUMP JUMPDEST PUSH1 0x0 PUSH1 0x20 DUP3 ADD SWAP1 POP DUP2 DUP2 SUB PUSH1 0x0 DUP4 ADD MSTORE PUSH2 0x27C8 DUP2 DUP5 PUSH2 0x2750 JUMP JUMPDEST SWAP1 POP SWAP3 SWAP2 POP POP JUMP JUMPDEST PUSH1 0x0 PUSH1 0x20 DUP3 ADD SWAP1 POP PUSH2 0x27E5 PUSH1 0x0 DUP4 ADD DUP5 PUSH2 0x24AF JUMP JUMPDEST SWAP3 SWAP2 POP POP JUMP JUMPDEST PUSH1 0x0 DUP2 SWAP1 POP SWAP2 SWAP1 POP JUMP JUMPDEST PUSH1 0x0 PUSH2 0x2810 PUSH2 0x280B PUSH2 0x2806 DUP5 PUSH2 0x2196 JUMP JUMPDEST PUSH2 0x27EB JUMP JUMPDEST PUSH2 0x2196 JUMP JUMPDEST SWAP1 POP SWAP2 SWAP1 POP JUMP JUMPDEST PUSH1 0x0 PUSH2 0x2822 DUP3 PUSH2 0x27F5 JUMP JUMPDEST SWAP1 POP SWAP2 SWAP1 POP JUMP JUMPDEST PUSH1 0x0 PUSH2 0x2834 DUP3 PUSH2 0x2817 JUMP JUMPDEST SWAP1 POP SWAP2 SWAP1 POP JUMP JUMPDEST PUSH2 0x2844 DUP2 PUSH2 0x2829 JUMP JUMPDEST DUP3 MSTORE POP POP JUMP JUMPDEST PUSH1 0x0 PUSH1 0x20 DUP3 ADD SWAP1 POP PUSH2 0x285F PUSH1 0x0 DUP4 ADD DUP5 PUSH2 0x283B JUMP JUMPDEST SWAP3 SWAP2 POP POP JUMP JUMPDEST PUSH1 0x0 DUP2 ISZERO ISZERO SWAP1 POP SWAP2 SWAP1 POP JUMP JUMPDEST PUSH2 0x287A DUP2 PUSH2 0x2865 JUMP JUMPDEST DUP3 MSTORE POP POP JUMP JUMPDEST PUSH1 0x0 PUSH1 0x20 DUP3 ADD SWAP1 POP PUSH2 0x2895 PUSH1 0x0 DUP4 ADD DUP5 PUSH2 0x2871 JUMP JUMPDEST SWAP3 SWAP2 POP POP JUMP JUMPDEST PUSH1 0x0 PUSH8 0xFFFFFFFFFFFFFFFF DUP3 AND SWAP1 POP SWAP2 SWAP1 POP JUMP JUMPDEST PUSH2 0x28B8 DUP2 PUSH2 0x289B JUMP JUMPDEST DUP2 EQ PUSH2 0x28C3 JUMPI PUSH1 0x0 DUP1 REVERT JUMPDEST POP JUMP JUMPDEST PUSH1 0x0 DUP2 CALLDATALOAD SWAP1 POP PUSH2 0x28D5 DUP2 PUSH2 0x28AF JUMP JUMPDEST SWAP3 SWAP2 POP POP JUMP JUMPDEST PUSH1 0x0 DUP1 PUSH1 0x40 DUP4 DUP6 SUB SLT ISZERO PUSH2 0x28F2 JUMPI PUSH2 0x28F1 PUSH2 0x1FC5 JUMP JUMPDEST JUMPDEST PUSH1 0x0 PUSH2 0x2900 DUP6 DUP3 DUP7 ADD PUSH2 0x28C6 JUMP JUMPDEST SWAP3 POP POP PUSH1 0x20 PUSH2 0x2911 DUP6 DUP3 DUP7 ADD PUSH2 0x28C6 JUMP JUMPDEST SWAP2 POP POP SWAP3 POP SWAP3 SWAP1 POP JUMP JUMPDEST PUSH2 0x2924 DUP2 PUSH2 0x289B JUMP JUMPDEST DUP3 MSTORE POP POP JUMP JUMPDEST PUSH1 0x0 PUSH1 0x20 DUP3 ADD SWAP1 POP PUSH2 0x293F PUSH1 0x0 DUP4 ADD DUP5 PUSH2 0x291B JUMP JUMPDEST SWAP3 SWAP2 POP POP JUMP JUMPDEST PUSH32 0x4E487B7100000000000000000000000000000000000000000000000000000000 PUSH1 0x0 MSTORE PUSH1 0x32 PUSH1 0x4 MSTORE PUSH1 0x24 PUSH1 0x0 REVERT JUMPDEST PUSH32 0x4E487B7100000000000000000000000000000000000000000000000000000000 PUSH1 0x0 MSTORE PUSH1 0x11 PUSH1 0x4 MSTORE PUSH1 0x24 PUSH1 0x0 REVERT JUMPDEST PUSH1 0x0 PUSH2 0x29AE DUP3 PUSH2 0x1FCF JUMP JUMPDEST SWAP2 POP PUSH2 0x29B9 DUP4 PUSH2 0x1FCF JUMP JUMPDEST SWAP3 POP DUP3 DUP3 SUB SWAP1 POP DUP2 DUP2 GT ISZERO PUSH2 0x29D1 JUMPI PUSH2 0x29D0 PUSH2 0x2974 JUMP JUMPDEST JUMPDEST SWAP3 SWAP2 POP POP JUMP JUMPDEST PUSH32 0x4E487B7100000000000000000000000000000000000000000000000000000000 PUSH1 0x0 MSTORE PUSH1 0x31 PUSH1 0x4 MSTORE PUSH1 0x24 PUSH1 0x0 REVERT JUMPDEST PUSH1 0x0 PUSH1 0x60 DUP3 ADD SWAP1 POP PUSH2 0x2A1B PUSH1 0x0 DUP4 ADD DUP7 PUSH2 0x24AF JUMP JUMPDEST PUSH2 0x2A28 PUSH1 0x20 DUP4 ADD DUP6 PUSH2 0x24AF JUMP JUMPDEST PUSH2 0x2A35 PUSH1 0x40 DUP4 ADD DUP5 PUSH2 0x24A0 JUMP JUMPDEST SWAP5 SWAP4 POP POP POP POP JUMP JUMPDEST PUSH1 0x0 DUP1 REVERT JUMPDEST PUSH1 0x0 DUP1 REVERT JUMPDEST PUSH1 0x0 DUP1 REVERT JUMPDEST PUSH1 0x0 DUP1 DUP4 CALLDATALOAD PUSH1 0x1 PUSH1 0x20 SUB DUP5 CALLDATASIZE SUB SUB DUP2 SLT PUSH2 0x2A69 JUMPI PUSH2 0x2A68 PUSH2 0x2A3D JUMP JUMPDEST JUMPDEST DUP1 DUP5 ADD SWAP3 POP DUP3 CALLDATALOAD SWAP2 POP PUSH8 0xFFFFFFFFFFFFFFFF DUP3 GT ISZERO PUSH2 0x2A8B JUMPI PUSH2 0x2A8A PUSH2 0x2A42 JUMP JUMPDEST JUMPDEST PUSH1 0x20 DUP4 ADD SWAP3 POP PUSH1 0x1 DUP3 MUL CALLDATASIZE SUB DUP4 SGT ISZERO PUSH2 0x2AA7 JUMPI PUSH2 0x2AA6 PUSH2 0x2A47 JUMP JUMPDEST JUMPDEST POP SWAP3 POP SWAP3 SWAP1 POP JUMP JUMPDEST PUSH32 0x43616E6E6F7420616464206D6F7265207468616E203135204E46547320617420 PUSH1 0x0 DUP3 ADD MSTORE PUSH32 0x6F6E636500000000000000000000000000000000000000000000000000000000 PUSH1 0x20 DUP3 ADD MSTORE POP JUMP JUMPDEST PUSH1 0x0 PUSH2 0x2B0B PUSH1 0x24 DUP4 PUSH2 0x20EF JUMP JUMPDEST SWAP2 POP PUSH2 0x2B16 DUP3 PUSH2 0x2AAF JUMP JUMPDEST PUSH1 0x40 DUP3 ADD SWAP1 POP SWAP2 SWAP1 POP JUMP JUMPDEST PUSH1 0x0 PUSH1 0x20 DUP3 ADD SWAP1 POP DUP2 DUP2 SUB PUSH1 0x0 DUP4 ADD MSTORE PUSH2 0x2B3A DUP2 PUSH2 0x2AFE JUMP JUMPDEST SWAP1 POP SWAP2 SWAP1 POP JUMP JUMPDEST PUSH1 0x0 DUP1 REVERT JUMPDEST DUP3 DUP2 DUP4 CALLDATACOPY POP POP POP JUMP JUMPDEST PUSH1 0x0 PUSH2 0x2B5B DUP4 DUP6 PUSH2 0x259C JUMP JUMPDEST SWAP4 POP PUSH32 0x7FFFFFFFFFFFFFFFFFFFFFFFFFFFFFFFFFFFFFFFFFFFFFFFFFFFFFFFFFFFFFF DUP4 GT ISZERO PUSH2 0x2B8E JUMPI PUSH2 0x2B8D PUSH2 0x2B41 JUMP JUMPDEST JUMPDEST PUSH1 0x20 DUP4 MUL SWAP3 POP PUSH2 0x2B9F DUP4 DUP6 DUP5 PUSH2 0x2B46 JUMP JUMPDEST DUP3 DUP5 ADD SWAP1 POP SWAP4 SWAP3 POP POP POP JUMP JUMPDEST PUSH1 0x0 PUSH1 0x20 DUP3 ADD SWAP1 POP DUP2 DUP2 SUB PUSH1 0x0 DUP4 ADD MSTORE PUSH2 0x2BC6 DUP2 DUP5 DUP7 PUSH2 0x2B4F JUMP JUMPDEST SWAP1 POP SWAP4 SWAP3 POP POP POP JUMP JUMPDEST PUSH32 0x4E6F2066756E647320746F207769746864726177000000000000000000000000 PUSH1 0x0 DUP3 ADD MSTORE POP JUMP JUMPDEST PUSH1 0x0 PUSH2 0x2C05 PUSH1 0x14 DUP4 PUSH2 0x20EF JUMP JUMPDEST SWAP2 POP PUSH2 0x2C10 DUP3 PUSH2 0x2BCF JUMP JUMPDEST PUSH1 0x20 DUP3 ADD SWAP1 POP SWAP2 SWAP1 POP JUMP JUMPDEST PUSH1 0x0 PUSH1 0x20 DUP3 ADD SWAP1 POP DUP2 DUP2 SUB PUSH1 0x0 DUP4 ADD MSTORE PUSH2 0x2C34 DUP2 PUSH2 0x2BF8 JUMP JUMPDEST SWAP1 POP SWAP2 SWAP1 POP JUMP JUMPDEST PUSH1 0x0 DUP2 SWAP1 POP SWAP3 SWAP2 POP POP JUMP JUMPDEST POP JUMP JUMPDEST PUSH1 0x0 PUSH2 0x2C56 PUSH1 0x0 DUP4 PUSH2 0x2C3B JUMP JUMPDEST SWAP2 POP PUSH2 0x2C61 DUP3 PUSH2 0x2C46 JUMP JUMPDEST PUSH1 0x0 DUP3 ADD SWAP1 POP SWAP2 SWAP1 POP JUMP JUMPDEST PUSH1 0x0 PUSH2 0x2C77 DUP3 PUSH2 0x2C49 JUMP JUMPDEST SWAP2 POP DUP2 SWAP1 POP SWAP2 SWAP1 POP JUMP JUMPDEST PUSH32 0x4661696C656420746F2073656E6420464C4F5700000000000000000000000000 PUSH1 0x0 DUP3 ADD MSTORE POP JUMP JUMPDEST PUSH1 0x0 PUSH2 0x2CB7 PUSH1 0x13 DUP4 PUSH2 0x20EF JUMP JUMPDEST SWAP2 POP PUSH2 0x2CC2 DUP3 PUSH2 0x2C81 JUMP JUMPDEST PUSH1 0x20 DUP3 ADD SWAP1 POP SWAP2 SWAP1 POP JUMP JUMPDEST PUSH1 0x0 PUSH1 0x20 DUP3 ADD SWAP1 POP DUP2 DUP2 SUB PUSH1 0x0 DUP4 ADD MSTORE PUSH2 0x2CE6 DUP2 PUSH2 0x2CAA JUMP JUMPDEST SWAP1 POP SWAP2 SWAP1 POP JUMP JUMPDEST PUSH32 0x4D7573742073656E642065786163746C79203120464C4F570000000000000000 PUSH1 0x0 DUP3 ADD MSTORE POP JUMP JUMPDEST PUSH1 0x0 PUSH2 0x2D23 PUSH1 0x18 DUP4 PUSH2 0x20EF JUMP JUMPDEST SWAP2 POP PUSH2 0x2D2E DUP3 PUSH2 0x2CED JUMP JUMPDEST PUSH1 0x20 DUP3 ADD SWAP1 POP SWAP2 SWAP1 POP JUMP JUMPDEST PUSH1 0x0 PUSH1 0x20 DUP3 ADD SWAP1 POP DUP2 DUP2 SUB PUSH1 0x0 DUP4 ADD MSTORE PUSH2 0x2D52 DUP2 PUSH2 0x2D16 JUMP JUMPDEST SWAP1 POP SWAP2 SWAP1 POP JUMP JUMPDEST PUSH32 0x4E6F204E46547320617661696C61626C6520696E207061636B00000000000000 PUSH1 0x0 DUP3 ADD MSTORE POP JUMP JUMPDEST PUSH1 0x0 PUSH2 0x2D8F PUSH1 0x19 DUP4 PUSH2 0x20EF JUMP JUMPDEST SWAP2 POP PUSH2 0x2D9A DUP3 PUSH2 0x2D59 JUMP JUMPDEST PUSH1 0x20 DUP3 ADD SWAP1 POP SWAP2 SWAP1 POP JUMP JUMPDEST PUSH1 0x0 PUSH1 0x20 DUP3 ADD SWAP1 POP DUP2 DUP2 SUB PUSH1 0x0 DUP4 ADD MSTORE PUSH2 0x2DBE DUP2 PUSH2 0x2D82 JUMP JUMPDEST SWAP1 POP SWAP2 SWAP1 POP JUMP JUMPDEST PUSH1 0x0 PUSH2 0x2DD0 DUP3 PUSH2 0x1FCF JUMP JUMPDEST SWAP2 POP PUSH32 0xFFFFFFFFFFFFFFFFFFFFFFFFFFFFFFFFFFFFFFFFFFFFFFFFFFFFFFFFFFFFFFFF DUP3 SUB PUSH2 0x2E02 JUMPI PUSH2 0x2E01 PUSH2 0x2974 JUMP JUMPDEST JUMPDEST PUSH1 0x1 DUP3 ADD SWAP1 POP SWAP2 SWAP1 POP JUMP JUMPDEST PUSH1 0x0 DUP2 MLOAD SWAP1 POP SWAP2 SWAP1 POP JUMP JUMPDEST PUSH1 0x0 PUSH2 0x2E23 DUP3 PUSH2 0x2E0D JUMP JUMPDEST PUSH2 0x2E2D DUP2 DUP6 PUSH2 0x2C3B JUMP JUMPDEST SWAP4 POP PUSH2 0x2E3D DUP2 DUP6 PUSH1 0x20 DUP7 ADD PUSH2 0x2100 JUMP JUMPDEST DUP1 DUP5 ADD SWAP2 POP POP SWAP3 SWAP2 POP POP JUMP JUMPDEST PUSH1 0x0 PUSH2 0x2E55 DUP3 DUP5 PUSH2 0x2E18 JUMP JUMPDEST SWAP2 POP DUP2 SWAP1 POP SWAP3 SWAP2 POP POP JUMP JUMPDEST PUSH32 0x556E7375636365737366756C2063616C6C20746F20436164656E636520417263 PUSH1 0x0 DUP3 ADD MSTORE PUSH32 0x68207072652D636F6D70696C65207768656E206665746368696E6720466C6F77 PUSH1 0x20 DUP3 ADD MSTORE PUSH32 0x20626C6F636B2068656967687400000000000000000000000000000000000000 PUSH1 0x40 DUP3 ADD MSTORE POP JUMP JUMPDEST PUSH1 0x0 PUSH2 0x2EE2 PUSH1 0x4D DUP4 PUSH2 0x20EF JUMP JUMPDEST SWAP2 POP PUSH2 0x2EED DUP3 PUSH2 0x2E60 JUMP JUMPDEST PUSH1 0x60 DUP3 ADD SWAP1 POP SWAP2 SWAP1 POP JUMP JUMPDEST PUSH1 0x0 PUSH1 0x20 DUP3 ADD SWAP1 POP DUP2 DUP2 SUB PUSH1 0x0 DUP4 ADD MSTORE PUSH2 0x2F11 DUP2 PUSH2 0x2ED5 JUMP JUMPDEST SWAP1 POP SWAP2 SWAP1 POP JUMP JUMPDEST PUSH1 0x0 DUP2 MLOAD SWAP1 POP PUSH2 0x2F27 DUP2 PUSH2 0x28AF JUMP JUMPDEST SWAP3 SWAP2 POP POP JUMP JUMPDEST PUSH1 0x0 PUSH1 0x20 DUP3 DUP5 SUB SLT ISZERO PUSH2 0x2F43 JUMPI PUSH2 0x2F42 PUSH2 0x1FC5 JUMP JUMPDEST JUMPDEST PUSH1 0x0 PUSH2 0x2F51 DUP5 DUP3 DUP6 ADD PUSH2 0x2F18 JUMP JUMPDEST SWAP2 POP POP SWAP3 SWAP2 POP POP JUMP JUMPDEST PUSH1 0x0 DUP2 SWAP1 POP SWAP2 SWAP1 POP JUMP JUMPDEST PUSH2 0x2F75 PUSH2 0x2F70 DUP3 PUSH2 0x1FCF JUMP JUMPDEST PUSH2 0x2F5A JUMP JUMPDEST DUP3 MSTORE POP POP JUMP JUMPDEST PUSH1 0x0 PUSH2 0x2F87 DUP3 DUP5 PUSH2 0x2F64 JUMP JUMPDEST PUSH1 0x20 DUP3 ADD SWAP2 POP DUP2 SWAP1 POP SWAP3 SWAP2 POP POP JUMP JUMPDEST PUSH32 0x4174206C65617374203136206279746573206F6620656E74726F70792073686F PUSH1 0x0 DUP3 ADD MSTORE PUSH32 0x756C642062652075736564207768656E20696E697469616C697A696E67207468 PUSH1 0x20 DUP3 ADD MSTORE PUSH32 0x6520505247000000000000000000000000000000000000000000000000000000 PUSH1 0x40 DUP3 ADD MSTORE POP JUMP JUMPDEST PUSH1 0x0 PUSH2 0x3018 PUSH1 0x45 DUP4 PUSH2 0x20EF JUMP JUMPDEST SWAP2 POP PUSH2 0x3023 DUP3 PUSH2 0x2F96 JUMP JUMPDEST PUSH1 0x60 DUP3 ADD SWAP1 POP SWAP2 SWAP1 POP JUMP JUMPDEST PUSH1 0x0 PUSH1 0x20 DUP3 ADD SWAP1 POP DUP2 DUP2 SUB PUSH1 0x0 DUP4 ADD MSTORE PUSH2 0x3047 DUP2 PUSH2 0x300B JUMP JUMPDEST SWAP1 POP SWAP2 SWAP1 POP JUMP JUMPDEST PUSH1 0x0 PUSH2 0x305A DUP3 DUP6 PUSH2 0x2E18 JUMP JUMPDEST SWAP2 POP PUSH2 0x3066 DUP3 DUP5 PUSH2 0x2E18 JUMP JUMPDEST SWAP2 POP DUP2 SWAP1 POP SWAP4 SWAP3 POP POP POP JUMP JUMPDEST PUSH1 0x0 DUP2 SWAP1 POP SWAP2 SWAP1 POP JUMP JUMPDEST PUSH1 0x0 DUP2 SWAP1 POP SWAP2 SWAP1 POP JUMP JUMPDEST PUSH2 0x3097 PUSH2 0x3092 DUP3 PUSH2 0x3072 JUMP JUMPDEST PUSH2 0x307C JUMP JUMPDEST DUP3 MSTORE POP POP JUMP JUMPDEST PUSH1 0x0 PUSH2 0x30A9 DUP3 DUP5 PUSH2 0x3086 JUMP JUMPDEST PUSH1 0x20 DUP3 ADD SWAP2 POP DUP2 SWAP1 POP SWAP3 SWAP2 POP POP JUMP JUMPDEST PUSH32 0x4D6178206D7573742062652067726561746572207468616E206D696E00000000 PUSH1 0x0 DUP3 ADD MSTORE POP JUMP JUMPDEST PUSH1 0x0 PUSH2 0x30EE PUSH1 0x1C DUP4 PUSH2 0x20EF JUMP JUMPDEST SWAP2 POP PUSH2 0x30F9 DUP3 PUSH2 0x30B8 JUMP JUMPDEST PUSH1 0x20 DUP3 ADD SWAP1 POP SWAP2 SWAP1 POP JUMP JUMPDEST PUSH1 0x0 PUSH1 0x20 DUP3 ADD SWAP1 POP DUP2 DUP2 SUB PUSH1 0x0 DUP4 ADD MSTORE PUSH2 0x311D DUP2 PUSH2 0x30E1 JUMP JUMPDEST SWAP1 POP SWAP2 SWAP1 POP JUMP JUMPDEST PUSH1 0x0 PUSH2 0x312F DUP3 PUSH2 0x289B JUMP JUMPDEST SWAP2 POP PUSH2 0x313A DUP4 PUSH2 0x289B JUMP JUMPDEST SWAP3 POP DUP3 DUP3 SUB SWAP1 POP PUSH8 0xFFFFFFFFFFFFFFFF DUP2 GT ISZERO PUSH2 0x315A JUMPI PUSH2 0x3159 PUSH2 0x2974 JUMP JUMPDEST JUMPDEST SWAP3 SWAP2 POP POP JUMP JUMPDEST PUSH32 0x4E487B7100000000000000000000000000000000000000000000000000000000 PUSH1 0x0 MSTORE PUSH1 0x12 PUSH1 0x4 MSTORE PUSH1 0x24 PUSH1 0x0 REVERT JUMPDEST PUSH1 0x0 PUSH2 0x319A DUP3 PUSH2 0x289B JUMP JUMPDEST SWAP2 POP PUSH2 0x31A5 DUP4 PUSH2 0x289B JUMP JUMPDEST SWAP3 POP DUP3 PUSH2 0x31B5 JUMPI PUSH2 0x31B4 PUSH2 0x3160 JUMP JUMPDEST JUMPDEST DUP3 DUP3 DIV SWAP1 POP SWAP3 SWAP2 POP POP JUMP JUMPDEST PUSH1 0x0 PUSH2 0x31CB DUP3 PUSH2 0x289B JUMP JUMPDEST SWAP2 POP PUSH2 0x31D6 DUP4 PUSH2 0x289B JUMP JUMPDEST SWAP3 POP DUP3 DUP3 ADD SWAP1 POP PUSH8 0xFFFFFFFFFFFFFFFF DUP2 GT ISZERO PUSH2 0x31F6 JUMPI PUSH2 0x31F5 PUSH2 0x2974 JUMP JUMPDEST JUMPDEST SWAP3 SWAP2 POP POP JUMP JUMPDEST PUSH32 0x556E7375636365737366756C2063616C6C20746F20436164656E636520417263 PUSH1 0x0 DUP3 ADD MSTORE PUSH32 0x68207072652D636F6D70696C65207768656E206665746368696E672072657665 PUSH1 0x20 DUP3 ADD MSTORE PUSH32 0x727469626C652072616E646F6D206E756D626572000000000000000000000000 PUSH1 0x40 DUP3 ADD MSTORE POP JUMP JUMPDEST PUSH1 0x0 PUSH2 0x327E PUSH1 0x54 DUP4 PUSH2 0x20EF JUMP JUMPDEST SWAP2 POP PUSH2 0x3289 DUP3 PUSH2 0x31FC JUMP JUMPDEST PUSH1 0x60 DUP3 ADD SWAP1 POP SWAP2 SWAP1 POP JUMP JUMPDEST PUSH1 0x0 PUSH1 0x20 DUP3 ADD SWAP1 POP DUP2 DUP2 SUB PUSH1 0x0 DUP4 ADD MSTORE PUSH2 0x32AD DUP2 PUSH2 0x3271 JUMP JUMPDEST SWAP1 POP SWAP2 SWAP1 POP JUMP JUMPDEST PUSH1 0x0 PUSH2 0x32BF DUP3 PUSH2 0x1FCF JUMP JUMPDEST SWAP2 POP PUSH2 0x32CA DUP4 PUSH2 0x1FCF JUMP JUMPDEST SWAP3 POP DUP3 DUP3 ADD SWAP1 POP DUP1 DUP3 GT ISZERO PUSH2 0x32E2 JUMPI PUSH2 0x32E1 PUSH2 0x2974 JUMP JUMPDEST JUMPDEST SWAP3 SWAP2 POP POP JUMP JUMPDEST PUSH32 0x496E76616C69642062797465206C656E67746800000000000000000000000000 PUSH1 0x0 DUP3 ADD MSTORE POP JUMP JUMPDEST PUSH1 0x0 PUSH2 0x331E PUSH1 0x13 DUP4 PUSH2 0x20EF JUMP JUMPDEST SWAP2 POP PUSH2 0x3329 DUP3 PUSH2 0x32E8 JUMP JUMPDEST PUSH1 0x20 DUP3 ADD SWAP1 POP SWAP2 SWAP1 POP JUMP JUMPDEST PUSH1 0x0 PUSH1 0x20 DUP3 ADD SWAP1 POP DUP2 DUP2 SUB PUSH1 0x0 DUP4 ADD MSTORE PUSH2 0x334D DUP2 PUSH2 0x3311 JUMP JUMPDEST SWAP1 POP SWAP2 SWAP1 POP JUMP JUMPDEST PUSH32 0x50524720696E697469616C2073746174652069732030202D206D757374206265 PUSH1 0x0 DUP3 ADD MSTORE PUSH32 0x20696E697469616C697A6564206173206E6F6E2D7A65726F0000000000000000 PUSH1 0x20 DUP3 ADD MSTORE POP JUMP JUMPDEST PUSH1 0x0 PUSH2 0x33B0 PUSH1 0x38 DUP4 PUSH2 0x20EF JUMP JUMPDEST SWAP2 POP PUSH2 0x33BB DUP3 PUSH2 0x3354 JUMP JUMPDEST PUSH1 0x40 DUP3 ADD SWAP1 POP SWAP2 SWAP1 POP JUMP JUMPDEST PUSH1 0x0 PUSH1 0x20 DUP3 ADD SWAP1 POP DUP2 DUP2 SUB PUSH1 0x0 DUP4 ADD MSTORE PUSH2 0x33DF DUP2 PUSH2 0x33A3 JUMP JUMPDEST SWAP1 POP SWAP2 SWAP1 POP JUMP JUMPDEST PUSH1 0x0 PUSH2 0x33F1 DUP3 PUSH2 0x289B JUMP JUMPDEST SWAP2 POP PUSH8 0xFFFFFFFFFFFFFFFF DUP3 SUB PUSH2 0x340B JUMPI PUSH2 0x340A PUSH2 0x2974 JUMP JUMPDEST JUMPDEST PUSH1 0x1 DUP3 ADD SWAP1 POP SWAP2 SWAP1 POP JUMP INVALID LOG2 PUSH5 0x6970667358 0x22 SLT KECCAK256 CHAINID PUSH3 0xC77E4D 0xCD DUP3 TIMESTAMP 0x4F PUSH28 0x69B359DDF04025DA90CD857A5707412BA60507EFDA9B64736F6C6343 STOP ADDMOD SHR STOP CALLER "},"methodIdentifiers":{"MAX_PACK_SIZE()":"bbb2340d","PACK_COST()":"3bd042c3","addNFTs(uint256[])":"1a4f0e57","allPackOpenings(uint256)":"26997d8a","availableNFTs(uint256)":"e9b2e0d7","canFulfillRequest(uint256)":"d59fd63c","currentRound()":"8a19c8bc","getAllPackOpenings()":"c461fcc7","getAvailableNFTCount()":"ad8bb0a1","getAvailableNFTs()":"32702c95","getContractBalance()":"6f9fb98a","getPackOpeningRecord(uint256)":"2dab28c0","getPlayerPackOpenings(address)":"698854cd","getRandomNumber(uint64,uint64)":"df5a9fa8","nftContract()":"d56d229d","onERC721Received(address,address,uint256,bytes)":"150b7a02","openPack()":"3c4ea385","owner()":"8da5cb5b","packOpeningRecords(uint256)":"71b70c19","renounceOwnership()":"715018a6","selectRandomItem(string[])":"12fc2249","transferOwnership(address)":"f2fde38b","withdrawFunds()":"24600fc3","withdrawNFT(uint256)":"023245d7"}}}}}