{"contracts/PackOpening.sol":{"PackOpening":{"abi":[{"inputs":[],"name":"EmptyItemArray","type":"error"},{"anonymous":false,"inputs":[{"indexed":false,"internalType":"string","name":"item","type":"string"},{"indexed":false,"internalType":"uint256","name":"index","type":"uint256"}],"name":"RandomItemSelected","type":"event"},{"anonymous":false,"inputs":[{"indexed":false,"internalType":"uint64","name":"randomNumber","type":"uint64"},{"indexed":false,"internalType":"uint64","name":"min","type":"uint64"},{"indexed":false,"internalType":"uint64","name":"max","type":"uint64"}],"name":"RandomNumberGenerated","type":"event"},{"anonymous":false,"inputs":[{"indexed":true,"internalType":"uint256","name":"requestId","type":"uint256"},{"indexed":false,"internalType":"uint64","name":"randomResult","type":"uint64"}],"name":"RandomnessFulfilled","type":"event"},{"anonymous":false,"inputs":[{"indexed":true,"internalType":"uint256","name":"requestId","type":"uint256"},{"indexed":false,"internalType":"uint64","name":"flowHeight","type":"uint64"},{"indexed":false,"internalType":"uint256","name":"evmHeight","type":"uint256"}],"name":"RandomnessRequested","type":"event"},{"anonymous":false,"inputs":[{"indexed":true,"internalType":"uint256","name":"requestId","type":"uint256"},{"indexed":false,"internalType":"uint64","name":"flowHeight","type":"uint64"},{"indexed":false,"internalType":"uint256","name":"evmHeight","type":"uint256"},{"indexed":false,"internalType":"bytes32","name":"randomSource","type":"bytes32"}],"name":"RandomnessSourced","type":"event"},{"inputs":[{"internalType":"uint256","name":"requestId","type":"uint256"}],"name":"canFulfillRequest","outputs":[{"internalType":"bool","name":"","type":"bool"}],"stateMutability":"view","type":"function"},{"inputs":[{"internalType":"uint64","name":"min","type":"uint64"},{"internalType":"uint64","name":"max","type":"uint64"}],"name":"getRandomNumber","outputs":[{"internalType":"uint64","name":"","type":"uint64"}],"stateMutability":"view","type":"function"},{"inputs":[{"internalType":"string[]","name":"items","type":"string[]"}],"name":"selectRandomItem","outputs":[{"internalType":"string","name":"","type":"string"}],"stateMutability":"view","type":"function"}],"evm":{"bytecode":{"linkReferences":{},"object":"6080604052348015600f57600080fd5b506115678061001f6000396000f3fe608060405234801561001057600080fd5b50600436106100415760003560e01c806312fc224914610046578063d59fd63c14610076578063df5a9fa8146100a6575b600080fd5b610060600480360381019061005b9190610b8f565b6100d6565b60405161006d9190610c6c565b60405180910390f35b610090600480360381019061008b9190610cc4565b6101ae565b60405161009d9190610d0c565b60405180910390f35b6100c060048036038101906100bb9190610d67565b61025c565b6040516100cd9190610db6565b60405180910390f35b606060008383905003610115576040517fde24d3fa00000000000000000000000000000000000000000000000000000000815260040160405180910390fd5b6000610131600060018686905061012c9190610e00565b61025c565b905083838267ffffffffffffffff168181106101505761014f610e34565b5b90506020028101906101629190610e72565b8080601f016020809104026020016040519081016040528093929190818152602001838380828437600081840152601f19601f8201169050808301925050505050505091505092915050565b6000806001836101be9190610e00565b905060008054905081106101d6576000915050610257565b60008082815481106101eb576101ea610e34565b5b906000526020600020906003020190506000610205610270565b90508160020160009054906101000a900460ff1615801561025157508067ffffffffffffffff168260000160009054906101000a900467ffffffffffffffff1667ffffffffffffffff16105b93505050505b919050565b600061026883836103cb565b905092915050565b60008060006801000000000000000173ffffffffffffffffffffffffffffffffffffffff166040516024016040516020818303038152906040527f53e87d66000000000000000000000000000000000000000000000000000000007bffffffffffffffffffffffffffffffffffffffffffffffffffffffff19166020820180517bffffffffffffffffffffffffffffffffffffffffffffffffffffffff83818316178352505050506040516103259190610f1c565b600060405180830381855afa9150503d8060008114610360576040519150601f19603f3d011682016040523d82523d6000602084013e610365565b606091505b5091509150816103aa576040517f08c379a00000000000000000000000000000000000000000000000000000000081526004016103a190610fcb565b60405180910390fd5b6000818060200190518101906103c09190611000565b905080935050505090565b6000806103d661044e565b6040516020016103e6919061104e565b604051602081830303815290604052905060004360405160200161040a919061104e565b6040516020818303038152906040529050610423610af2565b6104388383836104ba9092919063ffffffff16565b6104438187876105d3565b935050505092915050565b600080610459610712565b67ffffffffffffffff169050604061046f610712565b67ffffffffffffffff16901b811790506080610489610712565b67ffffffffffffffff16901b8117905060c06104a3610712565b67ffffffffffffffff16901b811790508091505090565b6010825110156104ff576040517f08c379a00000000000000000000000000000000000000000000000000000000081526004016104f690611101565b60405180910390fd5b60008282604051602001610514929190611121565b604051602081830303815290604052905060008180519060200120905061055b816040516020016105459190611170565b604051602081830303815290604052600061086d565b856000019067ffffffffffffffff16908167ffffffffffffffff16815250506105a48160405160200161058e9190611170565b604051602081830303815290604052600861086d565b856020019067ffffffffffffffff16908167ffffffffffffffff16815250506105cc85610925565b5050505050565b60008267ffffffffffffffff168267ffffffffffffffff161161062b576040517f08c379a0000000000000000000000000000000000000000000000000000000008152600401610622906111d7565b60405180910390fd5b6000838361063991906111f7565b9050600061064682610994565b9050600060018267ffffffffffffffff166001901b6106659190610e00565b90506000826101006106779190611262565b67ffffffffffffffff16905060008060006106918b6109dc565b90505b6001156106f65784811691508667ffffffffffffffff168267ffffffffffffffff1611156106f6578567ffffffffffffffff1681901c905082806106d790611293565b9350508383036106f1576106ea8b6109dc565b9050600092505b610694565b818a61070291906112db565b9750505050505050509392505050565b60008060006801000000000000000173ffffffffffffffffffffffffffffffffffffffff166040516024016040516020818303038152906040527f705fab20000000000000000000000000000000000000000000000000000000007bffffffffffffffffffffffffffffffffffffffffffffffffffffffff19166020820180517bffffffffffffffffffffffffffffffffffffffffffffffffffffffff83818316178352505050506040516107c79190610f1c565b600060405180830381855afa9150503d8060008114610802576040519150601f19603f3d011682016040523d82523d6000602084013e610807565b606091505b50915091508161084c576040517f08c379a0000000000000000000000000000000000000000000000000000000008152600401610843906113af565b60405180910390fd5b6000818060200190518101906108629190611000565b905080935050505090565b600060088261087c91906113cf565b835110156108bf576040517f08c379a00000000000000000000000000000000000000000000000000000000081526004016108b69061144f565b60405180910390fd5b6000805b600881101561091a578481856108d991906113cf565b815181106108ea576108e9610e34565b5b602001015160f81c60f81b60f81c60ff1660088367ffffffffffffffff16901b17915080806001019150506108c3565b508091505092915050565b6000816000015167ffffffffffffffff1614158061095257506000816020015167ffffffffffffffff1614155b610991576040517f08c379a0000000000000000000000000000000000000000000000000000000008152600401610988906114e1565b60405180910390fd5b50565b600080600090505b60008367ffffffffffffffff1611156109d35760018367ffffffffffffffff16901c925080806109cb90611501565b91505061099c565b80915050919050565b6000806109e883610a4e565b67ffffffffffffffff16905060406109ff84610a4e565b67ffffffffffffffff16901b811790506080610a1a84610a4e565b67ffffffffffffffff16901b8117905060c0610a3584610a4e565b67ffffffffffffffff16901b8117905080915050919050565b6000610a5982610925565b60008260000151905060008360200151905080846000019067ffffffffffffffff16908167ffffffffffffffff168152505060178267ffffffffffffffff16901b8218915060118267ffffffffffffffff16901c82189150601a8167ffffffffffffffff16901c81188218915081846020019067ffffffffffffffff16908167ffffffffffffffff168152505080820192505050919050565b6040518060400160405280600067ffffffffffffffff168152602001600067ffffffffffffffff1681525090565b600080fd5b600080fd5b600080fd5b600080fd5b600080fd5b60008083601f840112610b4f57610b4e610b2a565b5b8235905067ffffffffffffffff811115610b6c57610b6b610b2f565b5b602083019150836020820283011115610b8857610b87610b34565b5b9250929050565b60008060208385031215610ba657610ba5610b20565b5b600083013567ffffffffffffffff811115610bc457610bc3610b25565b5b610bd085828601610b39565b92509250509250929050565b600081519050919050565b600082825260208201905092915050565b60005b83811015610c16578082015181840152602081019050610bfb565b60008484015250505050565b6000601f19601f8301169050919050565b6000610c3e82610bdc565b610c488185610be7565b9350610c58818560208601610bf8565b610c6181610c22565b840191505092915050565b60006020820190508181036000830152610c868184610c33565b905092915050565b6000819050919050565b610ca181610c8e565b8114610cac57600080fd5b50565b600081359050610cbe81610c98565b92915050565b600060208284031215610cda57610cd9610b20565b5b6000610ce884828501610caf565b91505092915050565b60008115159050919050565b610d0681610cf1565b82525050565b6000602082019050610d216000830184610cfd565b92915050565b600067ffffffffffffffff82169050919050565b610d4481610d27565b8114610d4f57600080fd5b50565b600081359050610d6181610d3b565b92915050565b60008060408385031215610d7e57610d7d610b20565b5b6000610d8c85828601610d52565b9250506020610d9d85828601610d52565b9150509250929050565b610db081610d27565b82525050565b6000602082019050610dcb6000830184610da7565b92915050565b7f4e487b7100000000000000000000000000000000000000000000000000000000600052601160045260246000fd5b6000610e0b82610c8e565b9150610e1683610c8e565b9250828203905081811115610e2e57610e2d610dd1565b5b92915050565b7f4e487b7100000000000000000000000000000000000000000000000000000000600052603260045260246000fd5b600080fd5b600080fd5b600080fd5b60008083356001602003843603038112610e8f57610e8e610e63565b5b80840192508235915067ffffffffffffffff821115610eb157610eb0610e68565b5b602083019250600182023603831315610ecd57610ecc610e6d565b5b509250929050565b600081519050919050565b600081905092915050565b6000610ef682610ed5565b610f008185610ee0565b9350610f10818560208601610bf8565b80840191505092915050565b6000610f288284610eeb565b915081905092915050565b7f556e7375636365737366756c2063616c6c20746f20436164656e63652041726360008201527f68207072652d636f6d70696c65207768656e206665746368696e6720466c6f7760208201527f20626c6f636b2068656967687400000000000000000000000000000000000000604082015250565b6000610fb5604d83610be7565b9150610fc082610f33565b606082019050919050565b60006020820190508181036000830152610fe481610fa8565b9050919050565b600081519050610ffa81610d3b565b92915050565b60006020828403121561101657611015610b20565b5b600061102484828501610feb565b91505092915050565b6000819050919050565b61104861104382610c8e565b61102d565b82525050565b600061105a8284611037565b60208201915081905092915050565b7f4174206c65617374203136206279746573206f6620656e74726f70792073686f60008201527f756c642062652075736564207768656e20696e697469616c697a696e6720746860208201527f6520505247000000000000000000000000000000000000000000000000000000604082015250565b60006110eb604583610be7565b91506110f682611069565b606082019050919050565b6000602082019050818103600083015261111a816110de565b9050919050565b600061112d8285610eeb565b91506111398284610eeb565b91508190509392505050565b6000819050919050565b6000819050919050565b61116a61116582611145565b61114f565b82525050565b600061117c8284611159565b60208201915081905092915050565b7f4d6178206d7573742062652067726561746572207468616e206d696e00000000600082015250565b60006111c1601c83610be7565b91506111cc8261118b565b602082019050919050565b600060208201905081810360008301526111f0816111b4565b9050919050565b600061120282610d27565b915061120d83610d27565b9250828203905067ffffffffffffffff81111561122d5761122c610dd1565b5b92915050565b7f4e487b7100000000000000000000000000000000000000000000000000000000600052601260045260246000fd5b600061126d82610d27565b915061127883610d27565b92508261128857611287611233565b5b828204905092915050565b600061129e82610c8e565b91507fffffffffffffffffffffffffffffffffffffffffffffffffffffffffffffffff82036112d0576112cf610dd1565b5b600182019050919050565b60006112e682610d27565b91506112f183610d27565b9250828201905067ffffffffffffffff81111561131157611310610dd1565b5b92915050565b7f556e7375636365737366756c2063616c6c20746f20436164656e63652041726360008201527f68207072652d636f6d70696c65207768656e206665746368696e67207265766560208201527f727469626c652072616e646f6d206e756d626572000000000000000000000000604082015250565b6000611399605483610be7565b91506113a482611317565b606082019050919050565b600060208201905081810360008301526113c88161138c565b9050919050565b60006113da82610c8e565b91506113e583610c8e565b92508282019050808211156113fd576113fc610dd1565b5b92915050565b7f496e76616c69642062797465206c656e67746800000000000000000000000000600082015250565b6000611439601383610be7565b915061144482611403565b602082019050919050565b600060208201905081810360008301526114688161142c565b9050919050565b7f50524720696e697469616c2073746174652069732030202d206d75737420626560008201527f20696e697469616c697a6564206173206e6f6e2d7a65726f0000000000000000602082015250565b60006114cb603883610be7565b91506114d68261146f565b604082019050919050565b600060208201905081810360008301526114fa816114be565b9050919050565b600061150c82610d27565b915067ffffffffffffffff820361152657611525610dd1565b5b60018201905091905056fea2646970667358221220e0b115d86c85c1802bf5ef66e08a1edd02ffc0c678776c1e8ae1c72c98eebf0564736f6c634300081c0033","opcodes":"PUSH1 0x80 PUSH1 0x40 MSTORE CALLVALUE DUP1 ISZERO PUSH1 0xF JUMPI PUSH1 0x0 DUP1 REVERT JUMPDEST POP PUSH2 0x1567 DUP1 PUSH2 0x1F PUSH1 0x0 CODECOPY PUSH1 0x0 RETURN INVALID PUSH1 0x80 PUSH1 0x40 MSTORE CALLVALUE DUP1 ISZERO PUSH2 0x10 JUMPI PUSH1 0x0 DUP1 REVERT JUMPDEST POP PUSH1 0x4 CALLDATASIZE LT PUSH2 0x41 JUMPI PUSH1 0x0 CALLDATALOAD PUSH1 0xE0 SHR DUP1 PUSH4 0x12FC2249 EQ PUSH2 0x46 JUMPI DUP1 PUSH4 0xD59FD63C EQ PUSH2 0x76 JUMPI DUP1 PUSH4 0xDF5A9FA8 EQ PUSH2 0xA6 JUMPI JUMPDEST PUSH1 0x0 DUP1 REVERT JUMPDEST PUSH2 0x60 PUSH1 0x4 DUP1 CALLDATASIZE SUB DUP2 ADD SWAP1 PUSH2 0x5B SWAP2 SWAP1 PUSH2 0xB8F JUMP JUMPDEST PUSH2 0xD6 JUMP JUMPDEST PUSH1 0x40 MLOAD PUSH2 0x6D SWAP2 SWAP1 PUSH2 0xC6C JUMP JUMPDEST PUSH1 0x40 MLOAD DUP1 SWAP2 SUB SWAP1 RETURN JUMPDEST PUSH2 0x90 PUSH1 0x4 DUP1 CALLDATASIZE SUB DUP2 ADD SWAP1 PUSH2 0x8B SWAP2 SWAP1 PUSH2 0xCC4 JUMP JUMPDEST PUSH2 0x1AE JUMP JUMPDEST PUSH1 0x40 MLOAD PUSH2 0x9D SWAP2 SWAP1 PUSH2 0xD0C JUMP JUMPDEST PUSH1 0x40 MLOAD DUP1 SWAP2 SUB SWAP1 RETURN JUMPDEST PUSH2 0xC0 PUSH1 0x4 DUP1 CALLDATASIZE SUB DUP2 ADD SWAP1 PUSH2 0xBB SWAP2 SWAP1 PUSH2 0xD67 JUMP JUMPDEST PUSH2 0x25C JUMP JUMPDEST PUSH1 0x40 MLOAD PUSH2 0xCD SWAP2 SWAP1 PUSH2 0xDB6 JUMP JUMPDEST PUSH1 0x40 MLOAD DUP1 SWAP2 SUB SWAP1 RETURN JUMPDEST PUSH1 0x60 PUSH1 0x0 DUP4 DUP4 SWAP1 POP SUB PUSH2 0x115 JUMPI PUSH1 0x40 MLOAD PUSH32 0xDE24D3FA00000000000000000000000000000000000000000000000000000000 DUP2 MSTORE PUSH1 0x4 ADD PUSH1 0x40 MLOAD DUP1 SWAP2 SUB SWAP1 REVERT JUMPDEST PUSH1 0x0 PUSH2 0x131 PUSH1 0x0 PUSH1 0x1 DUP7 DUP7 SWAP1 POP PUSH2 0x12C SWAP2 SWAP1 PUSH2 0xE00 JUMP JUMPDEST PUSH2 0x25C JUMP JUMPDEST SWAP1 POP DUP4 DUP4 DUP3 PUSH8 0xFFFFFFFFFFFFFFFF AND DUP2 DUP2 LT PUSH2 0x150 JUMPI PUSH2 0x14F PUSH2 0xE34 JUMP JUMPDEST JUMPDEST SWAP1 POP PUSH1 0x20 MUL DUP2 ADD SWAP1 PUSH2 0x162 SWAP2 SWAP1 PUSH2 0xE72 JUMP JUMPDEST DUP1 DUP1 PUSH1 0x1F ADD PUSH1 0x20 DUP1 SWAP2 DIV MUL PUSH1 0x20 ADD PUSH1 0x40 MLOAD SWAP1 DUP2 ADD PUSH1 0x40 MSTORE DUP1 SWAP4 SWAP3 SWAP2 SWAP1 DUP2 DUP2 MSTORE PUSH1 0x20 ADD DUP4 DUP4 DUP1 DUP3 DUP5 CALLDATACOPY PUSH1 0x0 DUP2 DUP5 ADD MSTORE PUSH1 0x1F NOT PUSH1 0x1F DUP3 ADD AND SWAP1 POP DUP1 DUP4 ADD SWAP3 POP POP POP POP POP POP POP SWAP2 POP POP SWAP3 SWAP2 POP POP JUMP JUMPDEST PUSH1 0x0 DUP1 PUSH1 0x1 DUP4 PUSH2 0x1BE SWAP2 SWAP1 PUSH2 0xE00 JUMP JUMPDEST SWAP1 POP PUSH1 0x0 DUP1 SLOAD SWAP1 POP DUP2 LT PUSH2 0x1D6 JUMPI PUSH1 0x0 SWAP2 POP POP PUSH2 0x257 JUMP JUMPDEST PUSH1 0x0 DUP1 DUP3 DUP2 SLOAD DUP2 LT PUSH2 0x1EB JUMPI PUSH2 0x1EA PUSH2 0xE34 JUMP JUMPDEST JUMPDEST SWAP1 PUSH1 0x0 MSTORE PUSH1 0x20 PUSH1 0x0 KECCAK256 SWAP1 PUSH1 0x3 MUL ADD SWAP1 POP PUSH1 0x0 PUSH2 0x205 PUSH2 0x270 JUMP JUMPDEST SWAP1 POP DUP2 PUSH1 0x2 ADD PUSH1 0x0 SWAP1 SLOAD SWAP1 PUSH2 0x100 EXP SWAP1 DIV PUSH1 0xFF AND ISZERO DUP1 ISZERO PUSH2 0x251 JUMPI POP DUP1 PUSH8 0xFFFFFFFFFFFFFFFF AND DUP3 PUSH1 0x0 ADD PUSH1 0x0 SWAP1 SLOAD SWAP1 PUSH2 0x100 EXP SWAP1 DIV PUSH8 0xFFFFFFFFFFFFFFFF AND PUSH8 0xFFFFFFFFFFFFFFFF AND LT JUMPDEST SWAP4 POP POP POP POP JUMPDEST SWAP2 SWAP1 POP JUMP JUMPDEST PUSH1 0x0 PUSH2 0x268 DUP4 DUP4 PUSH2 0x3CB JUMP JUMPDEST SWAP1 POP SWAP3 SWAP2 POP POP JUMP JUMPDEST PUSH1 0x0 DUP1 PUSH1 0x0 PUSH9 0x10000000000000001 PUSH20 0xFFFFFFFFFFFFFFFFFFFFFFFFFFFFFFFFFFFFFFFF AND PUSH1 0x40 MLOAD PUSH1 0x24 ADD PUSH1 0x40 MLOAD PUSH1 0x20 DUP2 DUP4 SUB SUB DUP2 MSTORE SWAP1 PUSH1 0x40 MSTORE PUSH32 0x53E87D6600000000000000000000000000000000000000000000000000000000 PUSH28 0xFFFFFFFFFFFFFFFFFFFFFFFFFFFFFFFFFFFFFFFFFFFFFFFFFFFFFFFF NOT AND PUSH1 0x20 DUP3 ADD DUP1 MLOAD PUSH28 0xFFFFFFFFFFFFFFFFFFFFFFFFFFFFFFFFFFFFFFFFFFFFFFFFFFFFFFFF DUP4 DUP2 DUP4 AND OR DUP4 MSTORE POP POP POP POP PUSH1 0x40 MLOAD PUSH2 0x325 SWAP2 SWAP1 PUSH2 0xF1C JUMP JUMPDEST PUSH1 0x0 PUSH1 0x40 MLOAD DUP1 DUP4 SUB DUP2 DUP6 GAS STATICCALL SWAP2 POP POP RETURNDATASIZE DUP1 PUSH1 0x0 DUP2 EQ PUSH2 0x360 JUMPI PUSH1 0x40 MLOAD SWAP2 POP PUSH1 0x1F NOT PUSH1 0x3F RETURNDATASIZE ADD AND DUP3 ADD PUSH1 0x40 MSTORE RETURNDATASIZE DUP3 MSTORE RETURNDATASIZE PUSH1 0x0 PUSH1 0x20 DUP5 ADD RETURNDATACOPY PUSH2 0x365 JUMP JUMPDEST PUSH1 0x60 SWAP2 POP JUMPDEST POP SWAP2 POP SWAP2 POP DUP2 PUSH2 0x3AA JUMPI PUSH1 0x40 MLOAD PUSH32 0x8C379A000000000000000000000000000000000000000000000000000000000 DUP2 MSTORE PUSH1 0x4 ADD PUSH2 0x3A1 SWAP1 PUSH2 0xFCB JUMP JUMPDEST PUSH1 0x40 MLOAD DUP1 SWAP2 SUB SWAP1 REVERT JUMPDEST PUSH1 0x0 DUP2 DUP1 PUSH1 0x20 ADD SWAP1 MLOAD DUP2 ADD SWAP1 PUSH2 0x3C0 SWAP2 SWAP1 PUSH2 0x1000 JUMP JUMPDEST SWAP1 POP DUP1 SWAP4 POP POP POP POP SWAP1 JUMP JUMPDEST PUSH1 0x0 DUP1 PUSH2 0x3D6 PUSH2 0x44E JUMP JUMPDEST PUSH1 0x40 MLOAD PUSH1 0x20 ADD PUSH2 0x3E6 SWAP2 SWAP1 PUSH2 0x104E JUMP JUMPDEST PUSH1 0x40 MLOAD PUSH1 0x20 DUP2 DUP4 SUB SUB DUP2 MSTORE SWAP1 PUSH1 0x40 MSTORE SWAP1 POP PUSH1 0x0 NUMBER PUSH1 0x40 MLOAD PUSH1 0x20 ADD PUSH2 0x40A SWAP2 SWAP1 PUSH2 0x104E JUMP JUMPDEST PUSH1 0x40 MLOAD PUSH1 0x20 DUP2 DUP4 SUB SUB DUP2 MSTORE SWAP1 PUSH1 0x40 MSTORE SWAP1 POP PUSH2 0x423 PUSH2 0xAF2 JUMP JUMPDEST PUSH2 0x438 DUP4 DUP4 DUP4 PUSH2 0x4BA SWAP1 SWAP3 SWAP2 SWAP1 PUSH4 0xFFFFFFFF AND JUMP JUMPDEST PUSH2 0x443 DUP2 DUP8 DUP8 PUSH2 0x5D3 JUMP JUMPDEST SWAP4 POP POP POP POP SWAP3 SWAP2 POP POP JUMP JUMPDEST PUSH1 0x0 DUP1 PUSH2 0x459 PUSH2 0x712 JUMP JUMPDEST PUSH8 0xFFFFFFFFFFFFFFFF AND SWAP1 POP PUSH1 0x40 PUSH2 0x46F PUSH2 0x712 JUMP JUMPDEST PUSH8 0xFFFFFFFFFFFFFFFF AND SWAP1 SHL DUP2 OR SWAP1 POP PUSH1 0x80 PUSH2 0x489 PUSH2 0x712 JUMP JUMPDEST PUSH8 0xFFFFFFFFFFFFFFFF AND SWAP1 SHL DUP2 OR SWAP1 POP PUSH1 0xC0 PUSH2 0x4A3 PUSH2 0x712 JUMP JUMPDEST PUSH8 0xFFFFFFFFFFFFFFFF AND SWAP1 SHL DUP2 OR SWAP1 POP DUP1 SWAP2 POP POP SWAP1 JUMP JUMPDEST PUSH1 0x10 DUP3 MLOAD LT ISZERO PUSH2 0x4FF JUMPI PUSH1 0x40 MLOAD PUSH32 0x8C379A000000000000000000000000000000000000000000000000000000000 DUP2 MSTORE PUSH1 0x4 ADD PUSH2 0x4F6 SWAP1 PUSH2 0x1101 JUMP JUMPDEST PUSH1 0x40 MLOAD DUP1 SWAP2 SUB SWAP1 REVERT JUMPDEST PUSH1 0x0 DUP3 DUP3 PUSH1 0x40 MLOAD PUSH1 0x20 ADD PUSH2 0x514 SWAP3 SWAP2 SWAP1 PUSH2 0x1121 JUMP JUMPDEST PUSH1 0x40 MLOAD PUSH1 0x20 DUP2 DUP4 SUB SUB DUP2 MSTORE SWAP1 PUSH1 0x40 MSTORE SWAP1 POP PUSH1 0x0 DUP2 DUP1 MLOAD SWAP1 PUSH1 0x20 ADD KECCAK256 SWAP1 POP PUSH2 0x55B DUP2 PUSH1 0x40 MLOAD PUSH1 0x20 ADD PUSH2 0x545 SWAP2 SWAP1 PUSH2 0x1170 JUMP JUMPDEST PUSH1 0x40 MLOAD PUSH1 0x20 DUP2 DUP4 SUB SUB DUP2 MSTORE SWAP1 PUSH1 0x40 MSTORE PUSH1 0x0 PUSH2 0x86D JUMP JUMPDEST DUP6 PUSH1 0x0 ADD SWAP1 PUSH8 0xFFFFFFFFFFFFFFFF AND SWAP1 DUP2 PUSH8 0xFFFFFFFFFFFFFFFF AND DUP2 MSTORE POP POP PUSH2 0x5A4 DUP2 PUSH1 0x40 MLOAD PUSH1 0x20 ADD PUSH2 0x58E SWAP2 SWAP1 PUSH2 0x1170 JUMP JUMPDEST PUSH1 0x40 MLOAD PUSH1 0x20 DUP2 DUP4 SUB SUB DUP2 MSTORE SWAP1 PUSH1 0x40 MSTORE PUSH1 0x8 PUSH2 0x86D JUMP JUMPDEST DUP6 PUSH1 0x20 ADD SWAP1 PUSH8 0xFFFFFFFFFFFFFFFF AND SWAP1 DUP2 PUSH8 0xFFFFFFFFFFFFFFFF AND DUP2 MSTORE POP POP PUSH2 0x5CC DUP6 PUSH2 0x925 JUMP JUMPDEST POP POP POP POP POP JUMP JUMPDEST PUSH1 0x0 DUP3 PUSH8 0xFFFFFFFFFFFFFFFF AND DUP3 PUSH8 0xFFFFFFFFFFFFFFFF AND GT PUSH2 0x62B JUMPI PUSH1 0x40 MLOAD PUSH32 0x8C379A000000000000000000000000000000000000000000000000000000000 DUP2 MSTORE PUSH1 0x4 ADD PUSH2 0x622 SWAP1 PUSH2 0x11D7 JUMP JUMPDEST PUSH1 0x40 MLOAD DUP1 SWAP2 SUB SWAP1 REVERT JUMPDEST PUSH1 0x0 DUP4 DUP4 PUSH2 0x639 SWAP2 SWAP1 PUSH2 0x11F7 JUMP JUMPDEST SWAP1 POP PUSH1 0x0 PUSH2 0x646 DUP3 PUSH2 0x994 JUMP JUMPDEST SWAP1 POP PUSH1 0x0 PUSH1 0x1 DUP3 PUSH8 0xFFFFFFFFFFFFFFFF AND PUSH1 0x1 SWAP1 SHL PUSH2 0x665 SWAP2 SWAP1 PUSH2 0xE00 JUMP JUMPDEST SWAP1 POP PUSH1 0x0 DUP3 PUSH2 0x100 PUSH2 0x677 SWAP2 SWAP1 PUSH2 0x1262 JUMP JUMPDEST PUSH8 0xFFFFFFFFFFFFFFFF AND SWAP1 POP PUSH1 0x0 DUP1 PUSH1 0x0 PUSH2 0x691 DUP12 PUSH2 0x9DC JUMP JUMPDEST SWAP1 POP JUMPDEST PUSH1 0x1 ISZERO PUSH2 0x6F6 JUMPI DUP5 DUP2 AND SWAP2 POP DUP7 PUSH8 0xFFFFFFFFFFFFFFFF AND DUP3 PUSH8 0xFFFFFFFFFFFFFFFF AND GT ISZERO PUSH2 0x6F6 JUMPI DUP6 PUSH8 0xFFFFFFFFFFFFFFFF AND DUP2 SWAP1 SHR SWAP1 POP DUP3 DUP1 PUSH2 0x6D7 SWAP1 PUSH2 0x1293 JUMP JUMPDEST SWAP4 POP POP DUP4 DUP4 SUB PUSH2 0x6F1 JUMPI PUSH2 0x6EA DUP12 PUSH2 0x9DC JUMP JUMPDEST SWAP1 POP PUSH1 0x0 SWAP3 POP JUMPDEST PUSH2 0x694 JUMP JUMPDEST DUP2 DUP11 PUSH2 0x702 SWAP2 SWAP1 PUSH2 0x12DB JUMP JUMPDEST SWAP8 POP POP POP POP POP POP POP POP SWAP4 SWAP3 POP POP POP JUMP JUMPDEST PUSH1 0x0 DUP1 PUSH1 0x0 PUSH9 0x10000000000000001 PUSH20 0xFFFFFFFFFFFFFFFFFFFFFFFFFFFFFFFFFFFFFFFF AND PUSH1 0x40 MLOAD PUSH1 0x24 ADD PUSH1 0x40 MLOAD PUSH1 0x20 DUP2 DUP4 SUB SUB DUP2 MSTORE SWAP1 PUSH1 0x40 MSTORE PUSH32 0x705FAB2000000000000000000000000000000000000000000000000000000000 PUSH28 0xFFFFFFFFFFFFFFFFFFFFFFFFFFFFFFFFFFFFFFFFFFFFFFFFFFFFFFFF NOT AND PUSH1 0x20 DUP3 ADD DUP1 MLOAD PUSH28 0xFFFFFFFFFFFFFFFFFFFFFFFFFFFFFFFFFFFFFFFFFFFFFFFFFFFFFFFF DUP4 DUP2 DUP4 AND OR DUP4 MSTORE POP POP POP POP PUSH1 0x40 MLOAD PUSH2 0x7C7 SWAP2 SWAP1 PUSH2 0xF1C JUMP JUMPDEST PUSH1 0x0 PUSH1 0x40 MLOAD DUP1 DUP4 SUB DUP2 DUP6 GAS STATICCALL SWAP2 POP POP RETURNDATASIZE DUP1 PUSH1 0x0 DUP2 EQ PUSH2 0x802 JUMPI PUSH1 0x40 MLOAD SWAP2 POP PUSH1 0x1F NOT PUSH1 0x3F RETURNDATASIZE ADD AND DUP3 ADD PUSH1 0x40 MSTORE RETURNDATASIZE DUP3 MSTORE RETURNDATASIZE PUSH1 0x0 PUSH1 0x20 DUP5 ADD RETURNDATACOPY PUSH2 0x807 JUMP JUMPDEST PUSH1 0x60 SWAP2 POP JUMPDEST POP SWAP2 POP SWAP2 POP DUP2 PUSH2 0x84C JUMPI PUSH1 0x40 MLOAD PUSH32 0x8C379A000000000000000000000000000000000000000000000000000000000 DUP2 MSTORE PUSH1 0x4 ADD PUSH2 0x843 SWAP1 PUSH2 0x13AF JUMP JUMPDEST PUSH1 0x40 MLOAD DUP1 SWAP2 SUB SWAP1 REVERT JUMPDEST PUSH1 0x0 DUP2 DUP1 PUSH1 0x20 ADD SWAP1 MLOAD DUP2 ADD SWAP1 PUSH2 0x862 SWAP2 SWAP1 PUSH2 0x1000 JUMP JUMPDEST SWAP1 POP DUP1 SWAP4 POP POP POP POP SWAP1 JUMP JUMPDEST PUSH1 0x0 PUSH1 0x8 DUP3 PUSH2 0x87C SWAP2 SWAP1 PUSH2 0x13CF JUMP JUMPDEST DUP4 MLOAD LT ISZERO PUSH2 0x8BF JUMPI PUSH1 0x40 MLOAD PUSH32 0x8C379A000000000000000000000000000000000000000000000000000000000 DUP2 MSTORE PUSH1 0x4 ADD PUSH2 0x8B6 SWAP1 PUSH2 0x144F JUMP JUMPDEST PUSH1 0x40 MLOAD DUP1 SWAP2 SUB SWAP1 REVERT JUMPDEST PUSH1 0x0 DUP1 JUMPDEST PUSH1 0x8 DUP2 LT ISZERO PUSH2 0x91A JUMPI DUP5 DUP2 DUP6 PUSH2 0x8D9 SWAP2 SWAP1 PUSH2 0x13CF JUMP JUMPDEST DUP2 MLOAD DUP2 LT PUSH2 0x8EA JUMPI PUSH2 0x8E9 PUSH2 0xE34 JUMP JUMPDEST JUMPDEST PUSH1 0x20 ADD ADD MLOAD PUSH1 0xF8 SHR PUSH1 0xF8 SHL PUSH1 0xF8 SHR PUSH1 0xFF AND PUSH1 0x8 DUP4 PUSH8 0xFFFFFFFFFFFFFFFF AND SWAP1 SHL OR SWAP2 POP DUP1 DUP1 PUSH1 0x1 ADD SWAP2 POP POP PUSH2 0x8C3 JUMP JUMPDEST POP DUP1 SWAP2 POP POP SWAP3 SWAP2 POP POP JUMP JUMPDEST PUSH1 0x0 DUP2 PUSH1 0x0 ADD MLOAD PUSH8 0xFFFFFFFFFFFFFFFF AND EQ ISZERO DUP1 PUSH2 0x952 JUMPI POP PUSH1 0x0 DUP2 PUSH1 0x20 ADD MLOAD PUSH8 0xFFFFFFFFFFFFFFFF AND EQ ISZERO JUMPDEST PUSH2 0x991 JUMPI PUSH1 0x40 MLOAD PUSH32 0x8C379A000000000000000000000000000000000000000000000000000000000 DUP2 MSTORE PUSH1 0x4 ADD PUSH2 0x988 SWAP1 PUSH2 0x14E1 JUMP JUMPDEST PUSH1 0x40 MLOAD DUP1 SWAP2 SUB SWAP1 REVERT JUMPDEST POP JUMP JUMPDEST PUSH1 0x0 DUP1 PUSH1 0x0 SWAP1 POP JUMPDEST PUSH1 0x0 DUP4 PUSH8 0xFFFFFFFFFFFFFFFF AND GT ISZERO PUSH2 0x9D3 JUMPI PUSH1 0x1 DUP4 PUSH8 0xFFFFFFFFFFFFFFFF AND SWAP1 SHR SWAP3 POP DUP1 DUP1 PUSH2 0x9CB SWAP1 PUSH2 0x1501 JUMP JUMPDEST SWAP2 POP POP PUSH2 0x99C JUMP JUMPDEST DUP1 SWAP2 POP POP SWAP2 SWAP1 POP JUMP JUMPDEST PUSH1 0x0 DUP1 PUSH2 0x9E8 DUP4 PUSH2 0xA4E JUMP JUMPDEST PUSH8 0xFFFFFFFFFFFFFFFF AND SWAP1 POP PUSH1 0x40 PUSH2 0x9FF DUP5 PUSH2 0xA4E JUMP JUMPDEST PUSH8 0xFFFFFFFFFFFFFFFF AND SWAP1 SHL DUP2 OR SWAP1 POP PUSH1 0x80 PUSH2 0xA1A DUP5 PUSH2 0xA4E JUMP JUMPDEST PUSH8 0xFFFFFFFFFFFFFFFF AND SWAP1 SHL DUP2 OR SWAP1 POP PUSH1 0xC0 PUSH2 0xA35 DUP5 PUSH2 0xA4E JUMP JUMPDEST PUSH8 0xFFFFFFFFFFFFFFFF AND SWAP1 SHL DUP2 OR SWAP1 POP DUP1 SWAP2 POP POP SWAP2 SWAP1 POP JUMP JUMPDEST PUSH1 0x0 PUSH2 0xA59 DUP3 PUSH2 0x925 JUMP JUMPDEST PUSH1 0x0 DUP3 PUSH1 0x0 ADD MLOAD SWAP1 POP PUSH1 0x0 DUP4 PUSH1 0x20 ADD MLOAD SWAP1 POP DUP1 DUP5 PUSH1 0x0 ADD SWAP1 PUSH8 0xFFFFFFFFFFFFFFFF AND SWAP1 DUP2 PUSH8 0xFFFFFFFFFFFFFFFF AND DUP2 MSTORE POP POP PUSH1 0x17 DUP3 PUSH8 0xFFFFFFFFFFFFFFFF AND SWAP1 SHL DUP3 XOR SWAP2 POP PUSH1 0x11 DUP3 PUSH8 0xFFFFFFFFFFFFFFFF AND SWAP1 SHR DUP3 XOR SWAP2 POP PUSH1 0x1A DUP2 PUSH8 0xFFFFFFFFFFFFFFFF AND SWAP1 SHR DUP2 XOR DUP3 XOR SWAP2 POP DUP2 DUP5 PUSH1 0x20 ADD SWAP1 PUSH8 0xFFFFFFFFFFFFFFFF AND SWAP1 DUP2 PUSH8 0xFFFFFFFFFFFFFFFF AND DUP2 MSTORE POP POP DUP1 DUP3 ADD SWAP3 POP POP POP SWAP2 SWAP1 POP JUMP JUMPDEST PUSH1 0x40 MLOAD DUP1 PUSH1 0x40 ADD PUSH1 0x40 MSTORE DUP1 PUSH1 0x0 PUSH8 0xFFFFFFFFFFFFFFFF AND DUP2 MSTORE PUSH1 0x20 ADD PUSH1 0x0 PUSH8 0xFFFFFFFFFFFFFFFF AND DUP2 MSTORE POP SWAP1 JUMP JUMPDEST PUSH1 0x0 DUP1 REVERT JUMPDEST PUSH1 0x0 DUP1 REVERT JUMPDEST PUSH1 0x0 DUP1 REVERT JUMPDEST PUSH1 0x0 DUP1 REVERT JUMPDEST PUSH1 0x0 DUP1 REVERT JUMPDEST PUSH1 0x0 DUP1 DUP4 PUSH1 0x1F DUP5 ADD SLT PUSH2 0xB4F JUMPI PUSH2 0xB4E PUSH2 0xB2A JUMP JUMPDEST JUMPDEST DUP3 CALLDATALOAD SWAP1 POP PUSH8 0xFFFFFFFFFFFFFFFF DUP2 GT ISZERO PUSH2 0xB6C JUMPI PUSH2 0xB6B PUSH2 0xB2F JUMP JUMPDEST JUMPDEST PUSH1 0x20 DUP4 ADD SWAP2 POP DUP4 PUSH1 0x20 DUP3 MUL DUP4 ADD GT ISZERO PUSH2 0xB88 JUMPI PUSH2 0xB87 PUSH2 0xB34 JUMP JUMPDEST JUMPDEST SWAP3 POP SWAP3 SWAP1 POP JUMP JUMPDEST PUSH1 0x0 DUP1 PUSH1 0x20 DUP4 DUP6 SUB SLT ISZERO PUSH2 0xBA6 JUMPI PUSH2 0xBA5 PUSH2 0xB20 JUMP JUMPDEST JUMPDEST PUSH1 0x0 DUP4 ADD CALLDATALOAD PUSH8 0xFFFFFFFFFFFFFFFF DUP2 GT ISZERO PUSH2 0xBC4 JUMPI PUSH2 0xBC3 PUSH2 0xB25 JUMP JUMPDEST JUMPDEST PUSH2 0xBD0 DUP6 DUP3 DUP7 ADD PUSH2 0xB39 JUMP JUMPDEST SWAP3 POP SWAP3 POP POP SWAP3 POP SWAP3 SWAP1 POP JUMP JUMPDEST PUSH1 0x0 DUP2 MLOAD SWAP1 POP SWAP2 SWAP1 POP JUMP JUMPDEST PUSH1 0x0 DUP3 DUP3 MSTORE PUSH1 0x20 DUP3 ADD SWAP1 POP SWAP3 SWAP2 POP POP JUMP JUMPDEST PUSH1 0x0 JUMPDEST DUP4 DUP2 LT ISZERO PUSH2 0xC16 JUMPI DUP1 DUP3 ADD MLOAD DUP2 DUP5 ADD MSTORE PUSH1 0x20 DUP2 ADD SWAP1 POP PUSH2 0xBFB JUMP JUMPDEST PUSH1 0x0 DUP5 DUP5 ADD MSTORE POP POP POP POP JUMP JUMPDEST PUSH1 0x0 PUSH1 0x1F NOT PUSH1 0x1F DUP4 ADD AND SWAP1 POP SWAP2 SWAP1 POP JUMP JUMPDEST PUSH1 0x0 PUSH2 0xC3E DUP3 PUSH2 0xBDC JUMP JUMPDEST PUSH2 0xC48 DUP2 DUP6 PUSH2 0xBE7 JUMP JUMPDEST SWAP4 POP PUSH2 0xC58 DUP2 DUP6 PUSH1 0x20 DUP7 ADD PUSH2 0xBF8 JUMP JUMPDEST PUSH2 0xC61 DUP2 PUSH2 0xC22 JUMP JUMPDEST DUP5 ADD SWAP2 POP POP SWAP3 SWAP2 POP POP JUMP JUMPDEST PUSH1 0x0 PUSH1 0x20 DUP3 ADD SWAP1 POP DUP2 DUP2 SUB PUSH1 0x0 DUP4 ADD MSTORE PUSH2 0xC86 DUP2 DUP5 PUSH2 0xC33 JUMP JUMPDEST SWAP1 POP SWAP3 SWAP2 POP POP JUMP JUMPDEST PUSH1 0x0 DUP2 SWAP1 POP SWAP2 SWAP1 POP JUMP JUMPDEST PUSH2 0xCA1 DUP2 PUSH2 0xC8E JUMP JUMPDEST DUP2 EQ PUSH2 0xCAC JUMPI PUSH1 0x0 DUP1 REVERT JUMPDEST POP JUMP JUMPDEST PUSH1 0x0 DUP2 CALLDATALOAD SWAP1 POP PUSH2 0xCBE DUP2 PUSH2 0xC98 JUMP JUMPDEST SWAP3 SWAP2 POP POP JUMP JUMPDEST PUSH1 0x0 PUSH1 0x20 DUP3 DUP5 SUB SLT ISZERO PUSH2 0xCDA JUMPI PUSH2 0xCD9 PUSH2 0xB20 JUMP JUMPDEST JUMPDEST PUSH1 0x0 PUSH2 0xCE8 DUP5 DUP3 DUP6 ADD PUSH2 0xCAF JUMP JUMPDEST SWAP2 POP POP SWAP3 SWAP2 POP POP JUMP JUMPDEST PUSH1 0x0 DUP2 ISZERO ISZERO SWAP1 POP SWAP2 SWAP1 POP JUMP JUMPDEST PUSH2 0xD06 DUP2 PUSH2 0xCF1 JUMP JUMPDEST DUP3 MSTORE POP POP JUMP JUMPDEST PUSH1 0x0 PUSH1 0x20 DUP3 ADD SWAP1 POP PUSH2 0xD21 PUSH1 0x0 DUP4 ADD DUP5 PUSH2 0xCFD JUMP JUMPDEST SWAP3 SWAP2 POP POP JUMP JUMPDEST PUSH1 0x0 PUSH8 0xFFFFFFFFFFFFFFFF DUP3 AND SWAP1 POP SWAP2 SWAP1 POP JUMP JUMPDEST PUSH2 0xD44 DUP2 PUSH2 0xD27 JUMP JUMPDEST DUP2 EQ PUSH2 0xD4F JUMPI PUSH1 0x0 DUP1 REVERT JUMPDEST POP JUMP JUMPDEST PUSH1 0x0 DUP2 CALLDATALOAD SWAP1 POP PUSH2 0xD61 DUP2 PUSH2 0xD3B JUMP JUMPDEST SWAP3 SWAP2 POP POP JUMP JUMPDEST PUSH1 0x0 DUP1 PUSH1 0x40 DUP4 DUP6 SUB SLT ISZERO PUSH2 0xD7E JUMPI PUSH2 0xD7D PUSH2 0xB20 JUMP JUMPDEST JUMPDEST PUSH1 0x0 PUSH2 0xD8C DUP6 DUP3 DUP7 ADD PUSH2 0xD52 JUMP JUMPDEST SWAP3 POP POP PUSH1 0x20 PUSH2 0xD9D DUP6 DUP3 DUP7 ADD PUSH2 0xD52 JUMP JUMPDEST SWAP2 POP POP SWAP3 POP SWAP3 SWAP1 POP JUMP JUMPDEST PUSH2 0xDB0 DUP2 PUSH2 0xD27 JUMP JUMPDEST DUP3 MSTORE POP POP JUMP JUMPDEST PUSH1 0x0 PUSH1 0x20 DUP3 ADD SWAP1 POP PUSH2 0xDCB PUSH1 0x0 DUP4 ADD DUP5 PUSH2 0xDA7 JUMP JUMPDEST SWAP3 SWAP2 POP POP JUMP JUMPDEST PUSH32 0x4E487B7100000000000000000000000000000000000000000000000000000000 PUSH1 0x0 MSTORE PUSH1 0x11 PUSH1 0x4 MSTORE PUSH1 0x24 PUSH1 0x0 REVERT JUMPDEST PUSH1 0x0 PUSH2 0xE0B DUP3 PUSH2 0xC8E JUMP JUMPDEST SWAP2 POP PUSH2 0xE16 DUP4 PUSH2 0xC8E JUMP JUMPDEST SWAP3 POP DUP3 DUP3 SUB SWAP1 POP DUP2 DUP2 GT ISZERO PUSH2 0xE2E JUMPI PUSH2 0xE2D PUSH2 0xDD1 JUMP JUMPDEST JUMPDEST SWAP3 SWAP2 POP POP JUMP JUMPDEST PUSH32 0x4E487B7100000000000000000000000000000000000000000000000000000000 PUSH1 0x0 MSTORE PUSH1 0x32 PUSH1 0x4 MSTORE PUSH1 0x24 PUSH1 0x0 REVERT JUMPDEST PUSH1 0x0 DUP1 REVERT JUMPDEST PUSH1 0x0 DUP1 REVERT JUMPDEST PUSH1 0x0 DUP1 REVERT JUMPDEST PUSH1 0x0 DUP1 DUP4 CALLDATALOAD PUSH1 0x1 PUSH1 0x20 SUB DUP5 CALLDATASIZE SUB SUB DUP2 SLT PUSH2 0xE8F JUMPI PUSH2 0xE8E PUSH2 0xE63 JUMP JUMPDEST JUMPDEST DUP1 DUP5 ADD SWAP3 POP DUP3 CALLDATALOAD SWAP2 POP PUSH8 0xFFFFFFFFFFFFFFFF DUP3 GT ISZERO PUSH2 0xEB1 JUMPI PUSH2 0xEB0 PUSH2 0xE68 JUMP JUMPDEST JUMPDEST PUSH1 0x20 DUP4 ADD SWAP3 POP PUSH1 0x1 DUP3 MUL CALLDATASIZE SUB DUP4 SGT ISZERO PUSH2 0xECD JUMPI PUSH2 0xECC PUSH2 0xE6D JUMP JUMPDEST JUMPDEST POP SWAP3 POP SWAP3 SWAP1 POP JUMP JUMPDEST PUSH1 0x0 DUP2 MLOAD SWAP1 POP SWAP2 SWAP1 POP JUMP JUMPDEST PUSH1 0x0 DUP2 SWAP1 POP SWAP3 SWAP2 POP POP JUMP JUMPDEST PUSH1 0x0 PUSH2 0xEF6 DUP3 PUSH2 0xED5 JUMP JUMPDEST PUSH2 0xF00 DUP2 DUP6 PUSH2 0xEE0 JUMP JUMPDEST SWAP4 POP PUSH2 0xF10 DUP2 DUP6 PUSH1 0x20 DUP7 ADD PUSH2 0xBF8 JUMP JUMPDEST DUP1 DUP5 ADD SWAP2 POP POP SWAP3 SWAP2 POP POP JUMP JUMPDEST PUSH1 0x0 PUSH2 0xF28 DUP3 DUP5 PUSH2 0xEEB JUMP JUMPDEST SWAP2 POP DUP2 SWAP1 POP SWAP3 SWAP2 POP POP JUMP JUMPDEST PUSH32 0x556E7375636365737366756C2063616C6C20746F20436164656E636520417263 PUSH1 0x0 DUP3 ADD MSTORE PUSH32 0x68207072652D636F6D70696C65207768656E206665746368696E6720466C6F77 PUSH1 0x20 DUP3 ADD MSTORE PUSH32 0x20626C6F636B2068656967687400000000000000000000000000000000000000 PUSH1 0x40 DUP3 ADD MSTORE POP JUMP JUMPDEST PUSH1 0x0 PUSH2 0xFB5 PUSH1 0x4D DUP4 PUSH2 0xBE7 JUMP JUMPDEST SWAP2 POP PUSH2 0xFC0 DUP3 PUSH2 0xF33 JUMP JUMPDEST PUSH1 0x60 DUP3 ADD SWAP1 POP SWAP2 SWAP1 POP JUMP JUMPDEST PUSH1 0x0 PUSH1 0x20 DUP3 ADD SWAP1 POP DUP2 DUP2 SUB PUSH1 0x0 DUP4 ADD MSTORE PUSH2 0xFE4 DUP2 PUSH2 0xFA8 JUMP JUMPDEST SWAP1 POP SWAP2 SWAP1 POP JUMP JUMPDEST PUSH1 0x0 DUP2 MLOAD SWAP1 POP PUSH2 0xFFA DUP2 PUSH2 0xD3B JUMP JUMPDEST SWAP3 SWAP2 POP POP JUMP JUMPDEST PUSH1 0x0 PUSH1 0x20 DUP3 DUP5 SUB SLT ISZERO PUSH2 0x1016 JUMPI PUSH2 0x1015 PUSH2 0xB20 JUMP JUMPDEST JUMPDEST PUSH1 0x0 PUSH2 0x1024 DUP5 DUP3 DUP6 ADD PUSH2 0xFEB JUMP JUMPDEST SWAP2 POP POP SWAP3 SWAP2 POP POP JUMP JUMPDEST PUSH1 0x0 DUP2 SWAP1 POP SWAP2 SWAP1 POP JUMP JUMPDEST PUSH2 0x1048 PUSH2 0x1043 DUP3 PUSH2 0xC8E JUMP JUMPDEST PUSH2 0x102D JUMP JUMPDEST DUP3 MSTORE POP POP JUMP JUMPDEST PUSH1 0x0 PUSH2 0x105A DUP3 DUP5 PUSH2 0x1037 JUMP JUMPDEST PUSH1 0x20 DUP3 ADD SWAP2 POP DUP2 SWAP1 POP SWAP3 SWAP2 POP POP JUMP JUMPDEST PUSH32 0x4174206C65617374203136206279746573206F6620656E74726F70792073686F PUSH1 0x0 DUP3 ADD MSTORE PUSH32 0x756C642062652075736564207768656E20696E697469616C697A696E67207468 PUSH1 0x20 DUP3 ADD MSTORE PUSH32 0x6520505247000000000000000000000000000000000000000000000000000000 PUSH1 0x40 DUP3 ADD MSTORE POP JUMP JUMPDEST PUSH1 0x0 PUSH2 0x10EB PUSH1 0x45 DUP4 PUSH2 0xBE7 JUMP JUMPDEST SWAP2 POP PUSH2 0x10F6 DUP3 PUSH2 0x1069 JUMP JUMPDEST PUSH1 0x60 DUP3 ADD SWAP1 POP SWAP2 SWAP1 POP JUMP JUMPDEST PUSH1 0x0 PUSH1 0x20 DUP3 ADD SWAP1 POP DUP2 DUP2 SUB PUSH1 0x0 DUP4 ADD MSTORE PUSH2 0x111A DUP2 PUSH2 0x10DE JUMP JUMPDEST SWAP1 POP SWAP2 SWAP1 POP JUMP JUMPDEST PUSH1 0x0 PUSH2 0x112D DUP3 DUP6 PUSH2 0xEEB JUMP JUMPDEST SWAP2 POP PUSH2 0x1139 DUP3 DUP5 PUSH2 0xEEB JUMP JUMPDEST SWAP2 POP DUP2 SWAP1 POP SWAP4 SWAP3 POP POP POP JUMP JUMPDEST PUSH1 0x0 DUP2 SWAP1 POP SWAP2 SWAP1 POP JUMP JUMPDEST PUSH1 0x0 DUP2 SWAP1 POP SWAP2 SWAP1 POP JUMP JUMPDEST PUSH2 0x116A PUSH2 0x1165 DUP3 PUSH2 0x1145 JUMP JUMPDEST PUSH2 0x114F JUMP JUMPDEST DUP3 MSTORE POP POP JUMP JUMPDEST PUSH1 0x0 PUSH2 0x117C DUP3 DUP5 PUSH2 0x1159 JUMP JUMPDEST PUSH1 0x20 DUP3 ADD SWAP2 POP DUP2 SWAP1 POP SWAP3 SWAP2 POP POP JUMP JUMPDEST PUSH32 0x4D6178206D7573742062652067726561746572207468616E206D696E00000000 PUSH1 0x0 DUP3 ADD MSTORE POP JUMP JUMPDEST PUSH1 0x0 PUSH2 0x11C1 PUSH1 0x1C DUP4 PUSH2 0xBE7 JUMP JUMPDEST SWAP2 POP PUSH2 0x11CC DUP3 PUSH2 0x118B JUMP JUMPDEST PUSH1 0x20 DUP3 ADD SWAP1 POP SWAP2 SWAP1 POP JUMP JUMPDEST PUSH1 0x0 PUSH1 0x20 DUP3 ADD SWAP1 POP DUP2 DUP2 SUB PUSH1 0x0 DUP4 ADD MSTORE PUSH2 0x11F0 DUP2 PUSH2 0x11B4 JUMP JUMPDEST SWAP1 POP SWAP2 SWAP1 POP JUMP JUMPDEST PUSH1 0x0 PUSH2 0x1202 DUP3 PUSH2 0xD27 JUMP JUMPDEST SWAP2 POP PUSH2 0x120D DUP4 PUSH2 0xD27 JUMP JUMPDEST SWAP3 POP DUP3 DUP3 SUB SWAP1 POP PUSH8 0xFFFFFFFFFFFFFFFF DUP2 GT ISZERO PUSH2 0x122D JUMPI PUSH2 0x122C PUSH2 0xDD1 JUMP JUMPDEST JUMPDEST SWAP3 SWAP2 POP POP JUMP JUMPDEST PUSH32 0x4E487B7100000000000000000000000000000000000000000000000000000000 PUSH1 0x0 MSTORE PUSH1 0x12 PUSH1 0x4 MSTORE PUSH1 0x24 PUSH1 0x0 REVERT JUMPDEST PUSH1 0x0 PUSH2 0x126D DUP3 PUSH2 0xD27 JUMP JUMPDEST SWAP2 POP PUSH2 0x1278 DUP4 PUSH2 0xD27 JUMP JUMPDEST SWAP3 POP DUP3 PUSH2 0x1288 JUMPI PUSH2 0x1287 PUSH2 0x1233 JUMP JUMPDEST JUMPDEST DUP3 DUP3 DIV SWAP1 POP SWAP3 SWAP2 POP POP JUMP JUMPDEST PUSH1 0x0 PUSH2 0x129E DUP3 PUSH2 0xC8E JUMP JUMPDEST SWAP2 POP PUSH32 0xFFFFFFFFFFFFFFFFFFFFFFFFFFFFFFFFFFFFFFFFFFFFFFFFFFFFFFFFFFFFFFFF DUP3 SUB PUSH2 0x12D0 JUMPI PUSH2 0x12CF PUSH2 0xDD1 JUMP JUMPDEST JUMPDEST PUSH1 0x1 DUP3 ADD SWAP1 POP SWAP2 SWAP1 POP JUMP JUMPDEST PUSH1 0x0 PUSH2 0x12E6 DUP3 PUSH2 0xD27 JUMP JUMPDEST SWAP2 POP PUSH2 0x12F1 DUP4 PUSH2 0xD27 JUMP JUMPDEST SWAP3 POP DUP3 DUP3 ADD SWAP1 POP PUSH8 0xFFFFFFFFFFFFFFFF DUP2 GT ISZERO PUSH2 0x1311 JUMPI PUSH2 0x1310 PUSH2 0xDD1 JUMP JUMPDEST JUMPDEST SWAP3 SWAP2 POP POP JUMP JUMPDEST PUSH32 0x556E7375636365737366756C2063616C6C20746F20436164656E636520417263 PUSH1 0x0 DUP3 ADD MSTORE PUSH32 0x68207072652D636F6D70696C65207768656E206665746368696E672072657665 PUSH1 0x20 DUP3 ADD MSTORE PUSH32 0x727469626C652072616E646F6D206E756D626572000000000000000000000000 PUSH1 0x40 DUP3 ADD MSTORE POP JUMP JUMPDEST PUSH1 0x0 PUSH2 0x1399 PUSH1 0x54 DUP4 PUSH2 0xBE7 JUMP JUMPDEST SWAP2 POP PUSH2 0x13A4 DUP3 PUSH2 0x1317 JUMP JUMPDEST PUSH1 0x60 DUP3 ADD SWAP1 POP SWAP2 SWAP1 POP JUMP JUMPDEST PUSH1 0x0 PUSH1 0x20 DUP3 ADD SWAP1 POP DUP2 DUP2 SUB PUSH1 0x0 DUP4 ADD MSTORE PUSH2 0x13C8 DUP2 PUSH2 0x138C JUMP JUMPDEST SWAP1 POP SWAP2 SWAP1 POP JUMP JUMPDEST PUSH1 0x0 PUSH2 0x13DA DUP3 PUSH2 0xC8E JUMP JUMPDEST SWAP2 POP PUSH2 0x13E5 DUP4 PUSH2 0xC8E JUMP JUMPDEST SWAP3 POP DUP3 DUP3 ADD SWAP1 POP DUP1 DUP3 GT ISZERO PUSH2 0x13FD JUMPI PUSH2 0x13FC PUSH2 0xDD1 JUMP JUMPDEST JUMPDEST SWAP3 SWAP2 POP POP JUMP JUMPDEST PUSH32 0x496E76616C69642062797465206C656E67746800000000000000000000000000 PUSH1 0x0 DUP3 ADD MSTORE POP JUMP JUMPDEST PUSH1 0x0 PUSH2 0x1439 PUSH1 0x13 DUP4 PUSH2 0xBE7 JUMP JUMPDEST SWAP2 POP PUSH2 0x1444 DUP3 PUSH2 0x1403 JUMP JUMPDEST PUSH1 0x20 DUP3 ADD SWAP1 POP SWAP2 SWAP1 POP JUMP JUMPDEST PUSH1 0x0 PUSH1 0x20 DUP3 ADD SWAP1 POP DUP2 DUP2 SUB PUSH1 0x0 DUP4 ADD MSTORE PUSH2 0x1468 DUP2 PUSH2 0x142C JUMP JUMPDEST SWAP1 POP SWAP2 SWAP1 POP JUMP JUMPDEST PUSH32 0x50524720696E697469616C2073746174652069732030202D206D757374206265 PUSH1 0x0 DUP3 ADD MSTORE PUSH32 0x20696E697469616C697A6564206173206E6F6E2D7A65726F0000000000000000 PUSH1 0x20 DUP3 ADD MSTORE POP JUMP JUMPDEST PUSH1 0x0 PUSH2 0x14CB PUSH1 0x38 DUP4 PUSH2 0xBE7 JUMP JUMPDEST SWAP2 POP PUSH2 0x14D6 DUP3 PUSH2 0x146F JUMP JUMPDEST PUSH1 0x40 DUP3 ADD SWAP1 POP SWAP2 SWAP1 POP JUMP JUMPDEST PUSH1 0x0 PUSH1 0x20 DUP3 ADD SWAP1 POP DUP2 DUP2 SUB PUSH1 0x0 DUP4 ADD MSTORE PUSH2 0x14FA DUP2 PUSH2 0x14BE JUMP JUMPDEST SWAP1 POP SWAP2 SWAP1 POP JUMP JUMPDEST PUSH1 0x0 PUSH2 0x150C DUP3 PUSH2 0xD27 JUMP JUMPDEST SWAP2 POP PUSH8 0xFFFFFFFFFFFFFFFF DUP3 SUB PUSH2 0x1526 JUMPI PUSH2 0x1525 PUSH2 0xDD1 JUMP JUMPDEST JUMPDEST PUSH1 0x1 DUP3 ADD SWAP1 POP SWAP2 SWAP1 POP JUMP INVALID LOG2 PUSH5 0x6970667358 0x22 SLT KECCAK256 0xE0 0xB1 ISZERO 0xD8 PUSH13 0x85C1802BF5EF66E08A1EDD02FF 0xC0 0xC6 PUSH25 0x776C1E8AE1C72C98EEBF0564736F6C634300081C0033000000 "},"methodIdentifiers":{"canFulfillRequest(uint256)":"d59fd63c","getRandomNumber(uint64,uint64)":"df5a9fa8","selectRandomItem(string[])":"12fc2249"}}}}}