{
  "_format": "hh-sol-artifact-1",
  "contractName": "MockCadencePrecompile",
  "sourceName": "contracts/test/MockCadencePrecompile.sol",
  "abi": [
    {
      "inputs": [
        {
          "internalType": "uint256",
          "name": "value",
          "type": "uint256"
        }
      ],
      "stateMutability": "nonpayable",
      "type": "constructor"
    },
    {
      "inputs": [],
      "name": "revertibleRandom",
      "outputs": [
        {
          "internalType": "bytes32",
          "name": "",
          "type": "bytes32"
        }
      ],
      "stateMutability": "view",
      "type": "function"
    },
    {
      "inputs": [
        {
          "internalType": "uint256",
          "name": "value",
          "type": "uint256"
        }
      ],
      "name": "setMockRandomValue",
      "outputs": [],
      "stateMutability": "nonpayable",
      "type": "function"
    }
  ],
  "bytecode": "0x6080604052348015600f57600080fd5b506040516102083803806102088339818101604052810190602f91906074565b8060001b60008190555050609c565b600080fd5b6000819050919050565b6054816043565b8114605e57600080fd5b50565b600081519050606e81604d565b92915050565b6000602082840312156087576086603e565b5b60006093848285016061565b91505092915050565b61015d806100ab6000396000f3fe608060405234801561001057600080fd5b50600436106100365760003560e01c8063705fab201461003b578063ae46f48414610059575b600080fd5b610043610075565b60405161005091906100a4565b60405180910390f35b610073600480360381019061006e91906100fa565b61007e565b005b60008054905090565b8060001b60008190555050565b6000819050919050565b61009e8161008b565b82525050565b60006020820190506100b96000830184610095565b92915050565b600080fd5b6000819050919050565b6100d7816100c4565b81146100e257600080fd5b50565b6000813590506100f4816100ce565b92915050565b6000602082840312156101105761010f6100bf565b5b600061011e848285016100e5565b9150509291505056fea2646970667358221220af23dcf97e02f7d251640318346597ee51040ba2de1dec330c16c7e241bc153f64736f6c634300081c0033",
  "linkReferences": {},
  "deployedLinkReferences": {}
}