{
  "_format": "hh-sol-artifact-1",
  "contractName": "PackBattles",
  "sourceName": "contracts/PackBattles.sol",
  "abi": [
    {
      "inputs": [],
      "stateMutability": "nonpayable",
      "type": "constructor"
    },
    {
      "inputs": [],
      "name": "EmptyItemArray",
      "type": "error"
    },
    {
      "inputs": [],
      "name": "GameNotExists",
      "type": "error"
    },
    {
      "inputs": [],
      "name": "InsufficientPayment",
      "type": "error"
    },
    {
      "inputs": [],
      "name": "InvalidGameState",
      "type": "error"
    },
    {
      "inputs": [
        {
          "internalType": "address",
          "name": "owner",
          "type": "address"
        }
      ],
      "name": "OwnableInvalidOwner",
      "type": "error"
    },
    {
      "inputs": [
        {
          "internalType": "address",
          "name": "account",
          "type": "address"
        }
      ],
      "name": "OwnableUnauthorizedAccount",
      "type": "error"
    },
    {
      "inputs": [],
      "name": "TransferFailed",
      "type": "error"
    },
    {
      "anonymous": false,
      "inputs": [
        {
          "indexed": false,
          "internalType": "uint256",
          "name": "gameId",
          "type": "uint256"
        },
        {
          "indexed": false,
          "internalType": "address",
          "name": "winner",
          "type": "address"
        },
        {
          "indexed": false,
          "internalType": "uint256",
          "name": "winningTokenId",
          "type": "uint256"
        }
      ],
      "name": "GameCompleted",
      "type": "event"
    },
    {
      "anonymous": false,
      "inputs": [
        {
          "indexed": false,
          "internalType": "uint256",
          "name": "gameId",
          "type": "uint256"
        },
        {
          "indexed": false,
          "internalType": "address",
          "name": "creator",
          "type": "address"
        }
      ],
      "name": "GameCreated",
      "type": "event"
    },
    {
      "anonymous": false,
      "inputs": [
        {
          "indexed": false,
          "internalType": "uint256",
          "name": "gameId",
          "type": "uint256"
        },
        {
          "indexed": false,
          "internalType": "address",
          "name": "player",
          "type": "address"
        }
      ],
      "name": "GameJoined",
      "type": "event"
    },
    {
      "anonymous": false,
      "inputs": [
        {
          "indexed": true,
          "internalType": "address",
          "name": "previousOwner",
          "type": "address"
        },
        {
          "indexed": true,
          "internalType": "address",
          "name": "newOwner",
          "type": "address"
        }
      ],
      "name": "OwnershipTransferred",
      "type": "event"
    },
    {
      "anonymous": false,
      "inputs": [
        {
          "indexed": false,
          "internalType": "string",
          "name": "item",
          "type": "string"
        },
        {
          "indexed": false,
          "internalType": "uint256",
          "name": "index",
          "type": "uint256"
        }
      ],
      "name": "RandomItemSelected",
      "type": "event"
    },
    {
      "anonymous": false,
      "inputs": [
        {
          "indexed": false,
          "internalType": "uint64",
          "name": "randomNumber",
          "type": "uint64"
        },
        {
          "indexed": false,
          "internalType": "uint64",
          "name": "min",
          "type": "uint64"
        },
        {
          "indexed": false,
          "internalType": "uint64",
          "name": "max",
          "type": "uint64"
        }
      ],
      "name": "RandomNumberGenerated",
      "type": "event"
    },
    {
      "anonymous": false,
      "inputs": [
        {
          "indexed": true,
          "internalType": "uint256",
          "name": "requestId",
          "type": "uint256"
        },
        {
          "indexed": false,
          "internalType": "uint64",
          "name": "randomResult",
          "type": "uint64"
        }
      ],
      "name": "RandomnessFulfilled",
      "type": "event"
    },
    {
      "anonymous": false,
      "inputs": [
        {
          "indexed": true,
          "internalType": "uint256",
          "name": "requestId",
          "type": "uint256"
        },
        {
          "indexed": false,
          "internalType": "uint64",
          "name": "flowHeight",
          "type": "uint64"
        },
        {
          "indexed": false,
          "internalType": "uint256",
          "name": "evmHeight",
          "type": "uint256"
        }
      ],
      "name": "RandomnessRequested",
      "type": "event"
    },
    {
      "anonymous": false,
      "inputs": [
        {
          "indexed": true,
          "internalType": "uint256",
          "name": "requestId",
          "type": "uint256"
        },
        {
          "indexed": false,
          "internalType": "uint64",
          "name": "flowHeight",
          "type": "uint64"
        },
        {
          "indexed": false,
          "internalType": "uint256",
          "name": "evmHeight",
          "type": "uint256"
        },
        {
          "indexed": false,
          "internalType": "bytes32",
          "name": "randomSource",
          "type": "bytes32"
        }
      ],
      "name": "RandomnessSourced",
      "type": "event"
    },
    {
      "inputs": [],
      "name": "GAME_FEE",
      "outputs": [
        {
          "internalType": "uint256",
          "name": "",
          "type": "uint256"
        }
      ],
      "stateMutability": "view",
      "type": "function"
    },
    {
      "inputs": [
        {
          "internalType": "uint256[]",
          "name": "tokenIds",
          "type": "uint256[]"
        }
      ],
      "name": "addNFTs",
      "outputs": [],
      "stateMutability": "nonpayable",
      "type": "function"
    },
    {
      "inputs": [
        {
          "internalType": "uint256",
          "name": "",
          "type": "uint256"
        }
      ],
      "name": "availableNFTs",
      "outputs": [
        {
          "internalType": "uint256",
          "name": "",
          "type": "uint256"
        }
      ],
      "stateMutability": "view",
      "type": "function"
    },
    {
      "inputs": [
        {
          "internalType": "uint256",
          "name": "requestId",
          "type": "uint256"
        }
      ],
      "name": "canFulfillRequest",
      "outputs": [
        {
          "internalType": "bool",
          "name": "",
          "type": "bool"
        }
      ],
      "stateMutability": "view",
      "type": "function"
    },
    {
      "inputs": [],
      "name": "createGame",
      "outputs": [
        {
          "internalType": "uint256",
          "name": "",
          "type": "uint256"
        }
      ],
      "stateMutability": "payable",
      "type": "function"
    },
    {
      "inputs": [],
      "name": "gameCounter",
      "outputs": [
        {
          "internalType": "uint256",
          "name": "",
          "type": "uint256"
        }
      ],
      "stateMutability": "view",
      "type": "function"
    },
    {
      "inputs": [
        {
          "internalType": "uint256",
          "name": "",
          "type": "uint256"
        }
      ],
      "name": "games",
      "outputs": [
        {
          "internalType": "address",
          "name": "creator",
          "type": "address"
        },
        {
          "internalType": "address",
          "name": "player",
          "type": "address"
        },
        {
          "internalType": "bool",
          "name": "isActive",
          "type": "bool"
        },
        {
          "internalType": "bool",
          "name": "isCompleted",
          "type": "bool"
        },
        {
          "internalType": "uint256",
          "name": "creatorNFTIndex",
          "type": "uint256"
        },
        {
          "internalType": "uint256",
          "name": "playerNFTIndex",
          "type": "uint256"
        }
      ],
      "stateMutability": "view",
      "type": "function"
    },
    {
      "inputs": [],
      "name": "getAvailableNFTs",
      "outputs": [
        {
          "internalType": "uint256[]",
          "name": "",
          "type": "uint256[]"
        }
      ],
      "stateMutability": "view",
      "type": "function"
    },
    {
      "inputs": [
        {
          "internalType": "uint256",
          "name": "gameId",
          "type": "uint256"
        }
      ],
      "name": "getGame",
      "outputs": [
        {
          "components": [
            {
              "internalType": "address",
              "name": "creator",
              "type": "address"
            },
            {
              "internalType": "address",
              "name": "player",
              "type": "address"
            },
            {
              "internalType": "bool",
              "name": "isActive",
              "type": "bool"
            },
            {
              "internalType": "bool",
              "name": "isCompleted",
              "type": "bool"
            },
            {
              "internalType": "uint256[]",
              "name": "availableNFTs",
              "type": "uint256[]"
            },
            {
              "internalType": "uint256",
              "name": "creatorNFTIndex",
              "type": "uint256"
            },
            {
              "internalType": "uint256",
              "name": "playerNFTIndex",
              "type": "uint256"
            }
          ],
          "internalType": "struct PackBattles.Game",
          "name": "",
          "type": "tuple"
        }
      ],
      "stateMutability": "view",
      "type": "function"
    },
    {
      "inputs": [
        {
          "internalType": "uint64",
          "name": "min",
          "type": "uint64"
        },
        {
          "internalType": "uint64",
          "name": "max",
          "type": "uint64"
        }
      ],
      "name": "getRandomNumber",
      "outputs": [
        {
          "internalType": "uint64",
          "name": "",
          "type": "uint64"
        }
      ],
      "stateMutability": "view",
      "type": "function"
    },
    {
      "inputs": [],
      "name": "getUnreservedNFTCount",
      "outputs": [
        {
          "internalType": "uint256",
          "name": "",
          "type": "uint256"
        }
      ],
      "stateMutability": "view",
      "type": "function"
    },
    {
      "inputs": [
        {
          "internalType": "uint256",
          "name": "gameId",
          "type": "uint256"
        }
      ],
      "name": "joinGame",
      "outputs": [],
      "stateMutability": "payable",
      "type": "function"
    },
    {
      "inputs": [],
      "name": "nftContract",
      "outputs": [
        {
          "internalType": "contract IERC721",
          "name": "",
          "type": "address"
        }
      ],
      "stateMutability": "view",
      "type": "function"
    },
    {
      "inputs": [
        {
          "internalType": "address",
          "name": "",
          "type": "address"
        },
        {
          "internalType": "address",
          "name": "",
          "type": "address"
        },
        {
          "internalType": "uint256",
          "name": "",
          "type": "uint256"
        },
        {
          "internalType": "bytes",
          "name": "",
          "type": "bytes"
        }
      ],
      "name": "onERC721Received",
      "outputs": [
        {
          "internalType": "bytes4",
          "name": "",
          "type": "bytes4"
        }
      ],
      "stateMutability": "nonpayable",
      "type": "function"
    },
    {
      "inputs": [],
      "name": "owner",
      "outputs": [
        {
          "internalType": "address",
          "name": "",
          "type": "address"
        }
      ],
      "stateMutability": "view",
      "type": "function"
    },
    {
      "inputs": [],
      "name": "renounceOwnership",
      "outputs": [],
      "stateMutability": "nonpayable",
      "type": "function"
    },
    {
      "inputs": [],
      "name": "reservedNFTs",
      "outputs": [
        {
          "internalType": "uint256",
          "name": "",
          "type": "uint256"
        }
      ],
      "stateMutability": "view",
      "type": "function"
    },
    {
      "inputs": [],
      "name": "totalAvailableNFTs",
      "outputs": [
        {
          "internalType": "uint256",
          "name": "",
          "type": "uint256"
        }
      ],
      "stateMutability": "view",
      "type": "function"
    },
    {
      "inputs": [
        {
          "internalType": "address",
          "name": "newOwner",
          "type": "address"
        }
      ],
      "name": "transferOwnership",
      "outputs": [],
      "stateMutability": "nonpayable",
      "type": "function"
    },
    {
      "inputs": [
        {
          "internalType": "uint256",
          "name": "tokenId",
          "type": "uint256"
        }
      ],
      "name": "withdrawNFT",
      "outputs": [],
      "stateMutability": "nonpayable",
      "type": "function"
    }
  ],
  "bytecode": "0x608060405234801561001057600080fd5b5033600073ffffffffffffffffffffffffffffffffffffffff168173ffffffffffffffffffffffffffffffffffffffff16036100845760006040517f1e4fbdf700000000000000000000000000000000000000000000000000000000815260040161007b91906101f5565b60405180910390fd5b610093816100ee60201b60201c565b507384c6a2e6765e88427c41bb38c82a78b570e24709600560006101000a81548173ffffffffffffffffffffffffffffffffffffffff021916908373ffffffffffffffffffffffffffffffffffffffff160217905550610210565b6000600260009054906101000a900473ffffffffffffffffffffffffffffffffffffffff16905081600260006101000a81548173ffffffffffffffffffffffffffffffffffffffff021916908373ffffffffffffffffffffffffffffffffffffffff1602179055508173ffffffffffffffffffffffffffffffffffffffff168173ffffffffffffffffffffffffffffffffffffffff167f8be0079c531659141344cd1fd0a4f28419497f9722a3daafe3b4186f6b6457e060405160405180910390a35050565b600073ffffffffffffffffffffffffffffffffffffffff82169050919050565b60006101df826101b4565b9050919050565b6101ef816101d4565b82525050565b600060208201905061020a60008301846101e6565b92915050565b61346d8061021f6000396000f3fe60806040526004361061011f5760003560e01c8063a2f77bcc116100a0578063df5a9fa811610064578063df5a9fa8146103d1578063e9b2e0d71461040e578063efaa55a01461044b578063f2fde38b14610467578063ff5270a8146104905761011f565b8063a2f77bcc146102d6578063b4c18cd414610313578063b58be5721461033e578063d56d229d14610369578063d59fd63c146103945761011f565b80632e0be39a116100e75780632e0be39a1461022057806332702c951461024b578063715018a6146102765780637255d7291461028d5780638da5cb5b146102ab5761011f565b8063023245d7146101245780631001333a1461014d578063117a5b9014610178578063150b7a02146101ba5780631a4f0e57146101f7575b600080fd5b34801561013057600080fd5b5061014b600480360381019061014691906120a4565b6104bb565b005b34801561015957600080fd5b50610162610683565b60405161016f91906120e0565b60405180910390f35b34801561018457600080fd5b5061019f600480360381019061019a91906120a4565b61068f565b6040516101b196959493929190612157565b60405180910390f35b3480156101c657600080fd5b506101e160048036038101906101dc919061232a565b610725565b6040516101ee91906123e8565b60405180910390f35b34801561020357600080fd5b5061021e60048036038101906102199190612463565b610739565b005b34801561022c57600080fd5b50610235610865565b60405161024291906120e0565b60405180910390f35b34801561025757600080fd5b5061026061086b565b60405161026d919061256e565b60405180910390f35b34801561028257600080fd5b5061028b6108c3565b005b6102956108d7565b6040516102a291906120e0565b60405180910390f35b3480156102b757600080fd5b506102c0610bb8565b6040516102cd9190612590565b60405180910390f35b3480156102e257600080fd5b506102fd60048036038101906102f891906120a4565b610be2565b60405161030a91906126d4565b60405180910390f35b34801561031f57600080fd5b50610328610d5d565b60405161033591906120e0565b60405180910390f35b34801561034a57600080fd5b50610353610d74565b60405161036091906120e0565b60405180910390f35b34801561037557600080fd5b5061037e610d7a565b60405161038b9190612755565b60405180910390f35b3480156103a057600080fd5b506103bb60048036038101906103b691906120a4565b610da0565b6040516103c89190612770565b60405180910390f35b3480156103dd57600080fd5b506103f860048036038101906103f391906127cb565b610e4e565b604051610405919061281a565b60405180910390f35b34801561041a57600080fd5b50610435600480360381019061043091906120a4565b610e62565b60405161044291906120e0565b60405180910390f35b610465600480360381019061046091906120a4565b610e86565b005b34801561047357600080fd5b5061048e60048036038101906104899190612835565b61142d565b005b34801561049c57600080fd5b506104a56114b3565b6040516104b291906120e0565b60405180910390f35b6104c36114b9565b60006008546007546104d59190612891565b11610515576040517f08c379a000000000000000000000000000000000000000000000000000000000815260040161050c90612948565b60405180910390fd5b600560009054906101000a900473ffffffffffffffffffffffffffffffffffffffff1673ffffffffffffffffffffffffffffffffffffffff166342842e0e3033846040518463ffffffff1660e01b815260040161057493929190612968565b600060405180830381600087803b15801561058e57600080fd5b505af11580156105a2573d6000803e3d6000fd5b5050505060005b60068054905081101561067f5781600682815481106105cb576105ca61299f565b5b90600052602060002001540361067257600660016006805490506105ef9190612891565b81548110610600576105ff61299f565b5b90600052602060002001546006828154811061061f5761061e61299f565b5b9060005260206000200181905550600680548061063f5761063e6129ce565b5b6001900381819060005260206000200160009055905560076000815480929190610668906129fd565b919050555061067f565b80806001019150506105a9565b5050565b670de0b6b3a764000081565b60046020528060005260406000206000915090508060000160009054906101000a900473ffffffffffffffffffffffffffffffffffffffff16908060010160009054906101000a900473ffffffffffffffffffffffffffffffffffffffff16908060010160149054906101000a900460ff16908060010160159054906101000a900460ff16908060030154908060040154905086565b600063150b7a0260e01b9050949350505050565b6107416114b9565b60005b8282905081101561086057600560009054906101000a900473ffffffffffffffffffffffffffffffffffffffff1673ffffffffffffffffffffffffffffffffffffffff166342842e0e33308686868181106107a2576107a161299f565b5b905060200201356040518463ffffffff1660e01b81526004016107c793929190612968565b600060405180830381600087803b1580156107e157600080fd5b505af11580156107f5573d6000803e3d6000fd5b50505050600683838381811061080e5761080d61299f565b5b9050602002013590806001815401808255809150506001900390600052602060002001600090919091909150556007600081548092919061084e90612a26565b91905055508080600101915050610744565b505050565b60035481565b606060068054806020026020016040519081016040528092919081815260200182805480156108b957602002820191906000526020600020905b8154815260200190600101908083116108a5575b5050505050905090565b6108cb6114b9565b6108d56000611540565b565b6000670de0b6b3a76400003414610923576040517f08c379a000000000000000000000000000000000000000000000000000000000815260040161091a90612aba565b60405180910390fd5b60026008546007546109359190612891565b1015610976576040517f08c379a000000000000000000000000000000000000000000000000000000000815260040161096d90612b4c565b60405180910390fd5b60006003600081548092919061098b90612a26565b9190505590506040518060e001604052803373ffffffffffffffffffffffffffffffffffffffff168152602001600073ffffffffffffffffffffffffffffffffffffffff1681526020016001151581526020016000151581526020016006805480602002602001604051908101604052809291908181526020018280548015610a3357602002820191906000526020600020905b815481526020019060010190808311610a1f575b505050505081526020016000815260200160008152506004600083815260200190815260200160002060008201518160000160006101000a81548173ffffffffffffffffffffffffffffffffffffffff021916908373ffffffffffffffffffffffffffffffffffffffff16021790555060208201518160010160006101000a81548173ffffffffffffffffffffffffffffffffffffffff021916908373ffffffffffffffffffffffffffffffffffffffff16021790555060408201518160010160146101000a81548160ff02191690831515021790555060608201518160010160156101000a81548160ff0219169083151502179055506080820151816002019080519060200190610b46929190611f55565b5060a0820151816003015560c08201518160040155905050600260086000828254610b719190612b6c565b925050819055507fc3e0f84839dc888c892a013d10c8f9d6dc05a21a879d0ce468ca558013e9121c8133604051610ba9929190612ba0565b60405180910390a18091505090565b6000600260009054906101000a900473ffffffffffffffffffffffffffffffffffffffff16905090565b610bea611fa2565b600460008381526020019081526020016000206040518060e00160405290816000820160009054906101000a900473ffffffffffffffffffffffffffffffffffffffff1673ffffffffffffffffffffffffffffffffffffffff1673ffffffffffffffffffffffffffffffffffffffff1681526020016001820160009054906101000a900473ffffffffffffffffffffffffffffffffffffffff1673ffffffffffffffffffffffffffffffffffffffff1673ffffffffffffffffffffffffffffffffffffffff1681526020016001820160149054906101000a900460ff161515151581526020016001820160159054906101000a900460ff1615151515815260200160028201805480602002602001604051908101604052809291908181526020018280548015610d3957602002820191906000526020600020905b815481526020019060010190808311610d25575b50505050508152602001600382015481526020016004820154815250509050919050565b6000600854600754610d6f9190612891565b905090565b60085481565b600560009054906101000a900473ffffffffffffffffffffffffffffffffffffffff1681565b600080600183610db09190612891565b90506000805490508110610dc8576000915050610e49565b6000808281548110610ddd57610ddc61299f565b5b906000526020600020906003020190506000610df7611606565b90508160020160009054906101000a900460ff16158015610e4357508067ffffffffffffffff168260000160009054906101000a900467ffffffffffffffff1667ffffffffffffffff16105b93505050505b919050565b6000610e5a8383611761565b905092915050565b60068181548110610e7257600080fd5b906000526020600020016000915090505481565b670de0b6b3a76400003414610ed0576040517f08c379a0000000000000000000000000000000000000000000000000000000008152600401610ec790612aba565b60405180910390fd5b60006004600083815260200190815260200160002090508060010160149054906101000a900460ff168015610f1457508060010160159054906101000a900460ff16155b610f53576040517f08c379a0000000000000000000000000000000000000000000000000000000008152600401610f4a90612c15565b60405180910390fd5b3373ffffffffffffffffffffffffffffffffffffffff168160000160009054906101000a900473ffffffffffffffffffffffffffffffffffffffff1673ffffffffffffffffffffffffffffffffffffffff1603610fe5576040517f08c379a0000000000000000000000000000000000000000000000000000000008152600401610fdc90612c81565b60405180910390fd5b600073ffffffffffffffffffffffffffffffffffffffff168160010160009054906101000a900473ffffffffffffffffffffffffffffffffffffffff1673ffffffffffffffffffffffffffffffffffffffff1614611078576040517f08c379a000000000000000000000000000000000000000000000000000000000815260040161106f90612ced565b60405180910390fd5b338160010160006101000a81548173ffffffffffffffffffffffffffffffffffffffff021916908373ffffffffffffffffffffffffffffffffffffffff16021790555060006110db6000600184600201805490506110d69190612891565b610e4e565b905060006110fd6000600185600201805490506110f89190612891565b610e4e565b90508167ffffffffffffffff1683600301819055508067ffffffffffffffff1683600401819055506000836002018367ffffffffffffffff16815481106111475761114661299f565b5b906000526020600020015490506000846002018367ffffffffffffffff16815481106111765761117561299f565b5b90600052602060002001549050600080828411156111bd578660000160009054906101000a900473ffffffffffffffffffffffffffffffffffffffff1691508390506111e8565b8660010160009054906101000a900473ffffffffffffffffffffffffffffffffffffffff1691508290505b600560009054906101000a900473ffffffffffffffffffffffffffffffffffffffff1673ffffffffffffffffffffffffffffffffffffffff166342842e0e3084846040518463ffffffff1660e01b815260040161124793929190612968565b600060405180830381600087803b15801561126157600080fd5b505af1158015611275573d6000803e3d6000fd5b50505050611282816117e4565b60076000815480929190611295906129fd565b91905055506002600860008282546112ad9190612891565b9250508190555060008273ffffffffffffffffffffffffffffffffffffffff166002670de0b6b3a76400006112e29190612d0d565b6040516112ee90612d80565b60006040518083038185875af1925050503d806000811461132b576040519150601f19603f3d011682016040523d82523d6000602084013e611330565b606091505b5050905080611374576040517f08c379a000000000000000000000000000000000000000000000000000000000815260040161136b90612de1565b60405180910390fd5b60018860010160156101000a81548160ff02191690831515021790555060008860010160146101000a81548160ff0219169083151502179055507f45c4f9cbafe186141862608c493f28b823fde4c2142bedc3f5169961a73fdd2289336040516113df929190612ba0565b60405180910390a17ff6ae188cc6336ef5ad970d3c81cda5814b4c4902540924c6924debe94ece13eb89848460405161141a93929190612e01565b60405180910390a1505050505050505050565b6114356114b9565b600073ffffffffffffffffffffffffffffffffffffffff168173ffffffffffffffffffffffffffffffffffffffff16036114a75760006040517f1e4fbdf700000000000000000000000000000000000000000000000000000000815260040161149e9190612590565b60405180910390fd5b6114b081611540565b50565b60075481565b6114c16118a9565b73ffffffffffffffffffffffffffffffffffffffff166114df610bb8565b73ffffffffffffffffffffffffffffffffffffffff161461153e576115026118a9565b6040517f118cdaa70000000000000000000000000000000000000000000000000000000081526004016115359190612590565b60405180910390fd5b565b6000600260009054906101000a900473ffffffffffffffffffffffffffffffffffffffff16905081600260006101000a81548173ffffffffffffffffffffffffffffffffffffffff021916908373ffffffffffffffffffffffffffffffffffffffff1602179055508173ffffffffffffffffffffffffffffffffffffffff168173ffffffffffffffffffffffffffffffffffffffff167f8be0079c531659141344cd1fd0a4f28419497f9722a3daafe3b4186f6b6457e060405160405180910390a35050565b60008060006801000000000000000173ffffffffffffffffffffffffffffffffffffffff166040516024016040516020818303038152906040527f53e87d66000000000000000000000000000000000000000000000000000000007bffffffffffffffffffffffffffffffffffffffffffffffffffffffff19166020820180517bffffffffffffffffffffffffffffffffffffffffffffffffffffffff83818316178352505050506040516116bb9190612e9e565b600060405180830381855afa9150503d80600081146116f6576040519150601f19603f3d011682016040523d82523d6000602084013e6116fb565b606091505b509150915081611740576040517f08c379a000000000000000000000000000000000000000000000000000000000815260040161173790612f4d565b60405180910390fd5b6000818060200190518101906117569190612f82565b905080935050505090565b60008061176c6118b1565b60405160200161177c9190612fd0565b60405160208183030381529060405290506000436040516020016117a09190612fd0565b60405160208183030381529060405290506117b961200f565b6117ce83838361191d9092919063ffffffff16565b6117d9818787611a36565b935050505092915050565b60005b6006805490508110156118a55781600682815481106118095761180861299f565b5b906000526020600020015403611898576006600160068054905061182d9190612891565b8154811061183e5761183d61299f565b5b90600052602060002001546006828154811061185d5761185c61299f565b5b9060005260206000200181905550600680548061187d5761187c6129ce565b5b600190038181906000526020600020016000905590556118a5565b80806001019150506117e7565b5050565b600033905090565b6000806118bc611b75565b67ffffffffffffffff16905060406118d2611b75565b67ffffffffffffffff16901b8117905060806118ec611b75565b67ffffffffffffffff16901b8117905060c0611906611b75565b67ffffffffffffffff16901b811790508091505090565b601082511015611962576040517f08c379a000000000000000000000000000000000000000000000000000000000815260040161195990613083565b60405180910390fd5b600082826040516020016119779291906130a3565b60405160208183030381529060405290506000818051906020012090506119be816040516020016119a891906130f2565b6040516020818303038152906040526000611cd0565b856000019067ffffffffffffffff16908167ffffffffffffffff1681525050611a07816040516020016119f191906130f2565b6040516020818303038152906040526008611cd0565b856020019067ffffffffffffffff16908167ffffffffffffffff1681525050611a2f85611d88565b5050505050565b60008267ffffffffffffffff168267ffffffffffffffff1611611a8e576040517f08c379a0000000000000000000000000000000000000000000000000000000008152600401611a8590613159565b60405180910390fd5b60008383611a9c9190613179565b90506000611aa982611df7565b9050600060018267ffffffffffffffff166001901b611ac89190612891565b9050600082610100611ada91906131e4565b67ffffffffffffffff1690506000806000611af48b611e3f565b90505b600115611b595784811691508667ffffffffffffffff168267ffffffffffffffff161115611b59578567ffffffffffffffff1681901c90508280611b3a90612a26565b935050838303611b5457611b4d8b611e3f565b9050600092505b611af7565b818a611b659190613215565b9750505050505050509392505050565b60008060006801000000000000000173ffffffffffffffffffffffffffffffffffffffff166040516024016040516020818303038152906040527f705fab20000000000000000000000000000000000000000000000000000000007bffffffffffffffffffffffffffffffffffffffffffffffffffffffff19166020820180517bffffffffffffffffffffffffffffffffffffffffffffffffffffffff8381831617835250505050604051611c2a9190612e9e565b600060405180830381855afa9150503d8060008114611c65576040519150601f19603f3d011682016040523d82523d6000602084013e611c6a565b606091505b509150915081611caf576040517f08c379a0000000000000000000000000000000000000000000000000000000008152600401611ca6906132e9565b60405180910390fd5b600081806020019051810190611cc59190612f82565b905080935050505090565b6000600882611cdf9190612b6c565b83511015611d22576040517f08c379a0000000000000000000000000000000000000000000000000000000008152600401611d1990613355565b60405180910390fd5b6000805b6008811015611d7d57848185611d3c9190612b6c565b81518110611d4d57611d4c61299f565b5b602001015160f81c60f81b60f81c60ff1660088367ffffffffffffffff16901b1791508080600101915050611d26565b508091505092915050565b6000816000015167ffffffffffffffff16141580611db557506000816020015167ffffffffffffffff1614155b611df4576040517f08c379a0000000000000000000000000000000000000000000000000000000008152600401611deb906133e7565b60405180910390fd5b50565b600080600090505b60008367ffffffffffffffff161115611e365760018367ffffffffffffffff16901c92508080611e2e90613407565b915050611dff565b80915050919050565b600080611e4b83611eb1565b67ffffffffffffffff1690506040611e6284611eb1565b67ffffffffffffffff16901b811790506080611e7d84611eb1565b67ffffffffffffffff16901b8117905060c0611e9884611eb1565b67ffffffffffffffff16901b8117905080915050919050565b6000611ebc82611d88565b60008260000151905060008360200151905080846000019067ffffffffffffffff16908167ffffffffffffffff168152505060178267ffffffffffffffff16901b8218915060118267ffffffffffffffff16901c82189150601a8167ffffffffffffffff16901c81188218915081846020019067ffffffffffffffff16908167ffffffffffffffff168152505080820192505050919050565b828054828255906000526020600020908101928215611f91579160200282015b82811115611f90578251825591602001919060010190611f75565b5b509050611f9e919061203d565b5090565b6040518060e00160405280600073ffffffffffffffffffffffffffffffffffffffff168152602001600073ffffffffffffffffffffffffffffffffffffffff1681526020016000151581526020016000151581526020016060815260200160008152602001600081525090565b6040518060400160405280600067ffffffffffffffff168152602001600067ffffffffffffffff1681525090565b5b8082111561205657600081600090555060010161203e565b5090565b6000604051905090565b600080fd5b600080fd5b6000819050919050565b6120818161206e565b811461208c57600080fd5b50565b60008135905061209e81612078565b92915050565b6000602082840312156120ba576120b9612064565b5b60006120c88482850161208f565b91505092915050565b6120da8161206e565b82525050565b60006020820190506120f560008301846120d1565b92915050565b600073ffffffffffffffffffffffffffffffffffffffff82169050919050565b6000612126826120fb565b9050919050565b6121368161211b565b82525050565b60008115159050919050565b6121518161213c565b82525050565b600060c08201905061216c600083018961212d565b612179602083018861212d565b6121866040830187612148565b6121936060830186612148565b6121a060808301856120d1565b6121ad60a08301846120d1565b979650505050505050565b6121c18161211b565b81146121cc57600080fd5b50565b6000813590506121de816121b8565b92915050565b600080fd5b600080fd5b6000601f19601f8301169050919050565b7f4e487b7100000000000000000000000000000000000000000000000000000000600052604160045260246000fd5b612237826121ee565b810181811067ffffffffffffffff82111715612256576122556121ff565b5b80604052505050565b600061226961205a565b9050612275828261222e565b919050565b600067ffffffffffffffff821115612295576122946121ff565b5b61229e826121ee565b9050602081019050919050565b82818337600083830152505050565b60006122cd6122c88461227a565b61225f565b9050828152602081018484840111156122e9576122e86121e9565b5b6122f48482856122ab565b509392505050565b600082601f830112612311576123106121e4565b5b81356123218482602086016122ba565b91505092915050565b6000806000806080858703121561234457612343612064565b5b6000612352878288016121cf565b9450506020612363878288016121cf565b93505060406123748782880161208f565b925050606085013567ffffffffffffffff81111561239557612394612069565b5b6123a1878288016122fc565b91505092959194509250565b60007fffffffff0000000000000000000000000000000000000000000000000000000082169050919050565b6123e2816123ad565b82525050565b60006020820190506123fd60008301846123d9565b92915050565b600080fd5b600080fd5b60008083601f840112612423576124226121e4565b5b8235905067ffffffffffffffff8111156124405761243f612403565b5b60208301915083602082028301111561245c5761245b612408565b5b9250929050565b6000806020838503121561247a57612479612064565b5b600083013567ffffffffffffffff81111561249857612497612069565b5b6124a48582860161240d565b92509250509250929050565b600081519050919050565b600082825260208201905092915050565b6000819050602082019050919050565b6124e58161206e565b82525050565b60006124f783836124dc565b60208301905092915050565b6000602082019050919050565b600061251b826124b0565b61252581856124bb565b9350612530836124cc565b8060005b8381101561256157815161254888826124eb565b975061255383612503565b925050600181019050612534565b5085935050505092915050565b600060208201905081810360008301526125888184612510565b905092915050565b60006020820190506125a5600083018461212d565b92915050565b6125b48161211b565b82525050565b6125c38161213c565b82525050565b600082825260208201905092915050565b60006125e5826124b0565b6125ef81856125c9565b93506125fa836124cc565b8060005b8381101561262b57815161261288826124eb565b975061261d83612503565b9250506001810190506125fe565b5085935050505092915050565b600060e08301600083015161265060008601826125ab565b50602083015161266360208601826125ab565b50604083015161267660408601826125ba565b50606083015161268960608601826125ba565b50608083015184820360808601526126a182826125da565b91505060a08301516126b660a08601826124dc565b5060c08301516126c960c08601826124dc565b508091505092915050565b600060208201905081810360008301526126ee8184612638565b905092915050565b6000819050919050565b600061271b612716612711846120fb565b6126f6565b6120fb565b9050919050565b600061272d82612700565b9050919050565b600061273f82612722565b9050919050565b61274f81612734565b82525050565b600060208201905061276a6000830184612746565b92915050565b60006020820190506127856000830184612148565b92915050565b600067ffffffffffffffff82169050919050565b6127a88161278b565b81146127b357600080fd5b50565b6000813590506127c58161279f565b92915050565b600080604083850312156127e2576127e1612064565b5b60006127f0858286016127b6565b9250506020612801858286016127b6565b9150509250929050565b6128148161278b565b82525050565b600060208201905061282f600083018461280b565b92915050565b60006020828403121561284b5761284a612064565b5b6000612859848285016121cf565b91505092915050565b7f4e487b7100000000000000000000000000000000000000000000000000000000600052601160045260246000fd5b600061289c8261206e565b91506128a78361206e565b92508282039050818111156128bf576128be612862565b5b92915050565b600082825260208201905092915050565b7f43616e6e6f742077697468647261773a20416c6c204e4654732061726520726560008201527f73657276656420666f722070656e64696e672067616d65730000000000000000602082015250565b60006129326038836128c5565b915061293d826128d6565b604082019050919050565b6000602082019050818103600083015261296181612925565b9050919050565b600060608201905061297d600083018661212d565b61298a602083018561212d565b61299760408301846120d1565b949350505050565b7f4e487b7100000000000000000000000000000000000000000000000000000000600052603260045260246000fd5b7f4e487b7100000000000000000000000000000000000000000000000000000000600052603160045260246000fd5b6000612a088261206e565b915060008203612a1b57612a1a612862565b5b600182039050919050565b6000612a318261206e565b91507fffffffffffffffffffffffffffffffffffffffffffffffffffffffffffffffff8203612a6357612a62612862565b5b600182019050919050565b7f4d7573742073656e642065786163746c79203120464c4f570000000000000000600082015250565b6000612aa46018836128c5565b9150612aaf82612a6e565b602082019050919050565b60006020820190508181036000830152612ad381612a97565b9050919050565b7f4e6f7420656e6f75676820756e7265736572766564204e46547320617661696c60008201527f61626c6500000000000000000000000000000000000000000000000000000000602082015250565b6000612b366024836128c5565b9150612b4182612ada565b604082019050919050565b60006020820190508181036000830152612b6581612b29565b9050919050565b6000612b778261206e565b9150612b828361206e565b9250828201905080821115612b9a57612b99612862565b5b92915050565b6000604082019050612bb560008301856120d1565b612bc2602083018461212d565b9392505050565b7f47616d65206e6f7420617661696c61626c650000000000000000000000000000600082015250565b6000612bff6012836128c5565b9150612c0a82612bc9565b602082019050919050565b60006020820190508181036000830152612c2e81612bf2565b9050919050565b7f43616e6e6f74206a6f696e20796f7572206f776e2067616d6500000000000000600082015250565b6000612c6b6019836128c5565b9150612c7682612c35565b602082019050919050565b60006020820190508181036000830152612c9a81612c5e565b9050919050565b7f47616d6520616c726561647920686173206120706c6179657200000000000000600082015250565b6000612cd76019836128c5565b9150612ce282612ca1565b602082019050919050565b60006020820190508181036000830152612d0681612cca565b9050919050565b6000612d188261206e565b9150612d238361206e565b9250828202612d318161206e565b91508282048414831517612d4857612d47612862565b5b5092915050565b600081905092915050565b50565b6000612d6a600083612d4f565b9150612d7582612d5a565b600082019050919050565b6000612d8b82612d5d565b9150819050919050565b7f4661696c656420746f2073656e6420464c4f5700000000000000000000000000600082015250565b6000612dcb6013836128c5565b9150612dd682612d95565b602082019050919050565b60006020820190508181036000830152612dfa81612dbe565b9050919050565b6000606082019050612e1660008301866120d1565b612e23602083018561212d565b612e3060408301846120d1565b949350505050565b600081519050919050565b60005b83811015612e61578082015181840152602081019050612e46565b60008484015250505050565b6000612e7882612e38565b612e828185612d4f565b9350612e92818560208601612e43565b80840191505092915050565b6000612eaa8284612e6d565b915081905092915050565b7f556e7375636365737366756c2063616c6c20746f20436164656e63652041726360008201527f68207072652d636f6d70696c65207768656e206665746368696e6720466c6f7760208201527f20626c6f636b2068656967687400000000000000000000000000000000000000604082015250565b6000612f37604d836128c5565b9150612f4282612eb5565b606082019050919050565b60006020820190508181036000830152612f6681612f2a565b9050919050565b600081519050612f7c8161279f565b92915050565b600060208284031215612f9857612f97612064565b5b6000612fa684828501612f6d565b91505092915050565b6000819050919050565b612fca612fc58261206e565b612faf565b82525050565b6000612fdc8284612fb9565b60208201915081905092915050565b7f4174206c65617374203136206279746573206f6620656e74726f70792073686f60008201527f756c642062652075736564207768656e20696e697469616c697a696e6720746860208201527f6520505247000000000000000000000000000000000000000000000000000000604082015250565b600061306d6045836128c5565b915061307882612feb565b606082019050919050565b6000602082019050818103600083015261309c81613060565b9050919050565b60006130af8285612e6d565b91506130bb8284612e6d565b91508190509392505050565b6000819050919050565b6000819050919050565b6130ec6130e7826130c7565b6130d1565b82525050565b60006130fe82846130db565b60208201915081905092915050565b7f4d6178206d7573742062652067726561746572207468616e206d696e00000000600082015250565b6000613143601c836128c5565b915061314e8261310d565b602082019050919050565b6000602082019050818103600083015261317281613136565b9050919050565b60006131848261278b565b915061318f8361278b565b9250828203905067ffffffffffffffff8111156131af576131ae612862565b5b92915050565b7f4e487b7100000000000000000000000000000000000000000000000000000000600052601260045260246000fd5b60006131ef8261278b565b91506131fa8361278b565b92508261320a576132096131b5565b5b828204905092915050565b60006132208261278b565b915061322b8361278b565b9250828201905067ffffffffffffffff81111561324b5761324a612862565b5b92915050565b7f556e7375636365737366756c2063616c6c20746f20436164656e63652041726360008201527f68207072652d636f6d70696c65207768656e206665746368696e67207265766560208201527f727469626c652072616e646f6d206e756d626572000000000000000000000000604082015250565b60006132d36054836128c5565b91506132de82613251565b606082019050919050565b60006020820190508181036000830152613302816132c6565b9050919050565b7f496e76616c69642062797465206c656e67746800000000000000000000000000600082015250565b600061333f6013836128c5565b915061334a82613309565b602082019050919050565b6000602082019050818103600083015261336e81613332565b9050919050565b7f50524720696e697469616c2073746174652069732030202d206d75737420626560008201527f20696e697469616c697a6564206173206e6f6e2d7a65726f0000000000000000602082015250565b60006133d16038836128c5565b91506133dc82613375565b604082019050919050565b60006020820190508181036000830152613400816133c4565b9050919050565b60006134128261278b565b915067ffffffffffffffff820361342c5761342b612862565b5b60018201905091905056fea2646970667358221220cfd09ac82a33689c4d06263c53451b58cc5cc8eb13d49ec6da46f11c85e5a9b464736f6c634300081c0033",
  "linkReferences": {},
  "deployedLinkReferences": {}
}